:100000000C9490150C94C1150C94C1150C94C11549
:100010000C94C1150C94C1150C94C1150C94C11508
:100020000C94C1150C94C1150C94C1150C94C115F8
:100030000C94C1150C94C1150C94C1150C94C115E8
:100040000C94C1150C94BB880C94C1150C94C1156B
:100050000C94C1150C94C1150C945A7A0C94FA7531
:100060000C94C1150C94A96A0C949F6A0C94C11548
:100070000C94C1150C94C1150C94C1150C94C115A8
:100080000C94C1150C94C1150C94C1150C94C11598
:100090000C94C1150C94C1150C94C1150C94C11588
:1000A0000C94C1150C94C1150C94C1150C94C11578
:1000B0000C94C1150C94C1150C94C1150C94C11568
:1000C0000C94C1150C94C1150C94C1150C94C11558
:1000D0000C94C1150C94C1150C94C1150C94C11548
:1000E0000C94C115084AD73B3BCE016E84BCBFFDC2
:1000F000C12F3D6C74319ABD56833DDA3D00C77FF8
:1001000011BED9E4BB4C3E916BAAAABE0000008090
:100110003F05A84CCDB2D44EB93836A9020C50B91F
:10012000918688083CA6AAAA2ABE000000803F0744
:10013000634236B79BD8A71A39685618AEBAAB5582
:100140008C1D3CB7CC5763BD6DEDFD753EF6177247
:1001500031BF000000803F08000000BE9224491219
:100160003EABAAAA2ABECDCCCC4C3E00000080BE3D
:10017000ABAAAAAA3E00000000BF000000803F001A
:1001800000000000084178D3BB4387D1133D190E0E
:100190003CC3BD4282AD2B3E68EC8276BED98FE176
:1001A000A93E4C80EFFFBE01C4FF7F3F000000006E
:1001B00000000C94A11F0C94A82E0C94DB410C940D
:1001C00077700C9440370C94CBC60C94E71D0C94BC
:1001D000B01F0C946D700C948F370C94921F0C947C
:1001E000B41F0C941A690C942CC70C94C4750C940D
:1001F000C3150C947F1F0C945C700C94DF1D0C9441
:10020000C97D0C94871F0C94412B0C9443190C94BA
:10021000E1410C94A81F0C9429690C94343F0C9470
:10022000FC680C9418410C9447690C942C2A0C948B
:1002300093700C940C530C94A61F0C94AE1F0C944A
:10024000CE680C94831F0C9460700C94516C0C94C9
:10025000581D0C9454700C94431E0C9472560C94BC
:10026000D5410C9485700C943D690C94011E0C943E
:10027000E7410C94E2680C94431B0C9458700C9466
:10028000AA440C9430190C94D0180C94F04A0C9495
:10029000AE370C94F9410C9463280C94FE6A0C94CC
:1002A00001280C94EF180C94BD420C94B17C0C9472
:1002B000AA1F0C941D410C94091E0C947B700C9485
:1002C000D54C0C949F1D0C949C180C940B190C94F9
:1002D000AB1D0C949C1F0C9468180C94EC680C9447
:1002E000CD370C9497190C94F8180C94714A0C940F
:1002F000B17D0C94D46A0C94FE1B0C9481700C9408
:10030000A17C0C943D700C944F1E0C9406690C94C7
:10031000C9680C94B21F0C9463700C943A1B0C9433
:1003200022410C94971F0C94AD2C0C94491E0C94F4
:1003300063190C94F4680C94242A0C94D6190C9428
:10034000ED410C94383F0C94082B0C94CF410C9445
:10035000C92D0C94BB1E0C94DD510C94D36A0C94E3
:10036000927D0C948F700C94D8680C9473700C94DC
:1003700042220C94BA1E0C94C4680C94B67D0C9462
:1003800051690C94A81D0C94C3410C94BD190C9494
:10039000EF190C94AA190C94C9410C94132A0C94CB
:1003A00089700C94211A0C94CB220C9463460C9403
:1003B00051190C945B690C94B61F0C948D1F0C940E
:1003C000CE7D0C9433690C94282A0C94A54E0C9481
:1003D0007C190C9469700C9498480C9442700C949D
:1003E000551E0C946B540C94F3410C9410690C94AE
:1003F00012390C94AC1F0C94F81A0C94E3180C945A
:100400009E7D0C9469220C9417194E414E494E4919
:100410005459494E46CDCCCC3D0AD7233C17B7D1D1
:100420003877CC2B329595E6241FB14F0A00002077
:10043000410000C84200401C4620BCBE4CCA1B0EF6
:100440005AAEC59D7400407A10F35A00A0724E183F
:10045000090010A5D4E80000E87648170000E40B76
:1004600054020000CA9A3B000000E1F5050000803C
:10047000969800000040420F000000A08601000096
:1004800000102700000000E80300000000640000E6
:100490000000000A00000000000100000000002C25
:1004A00076D888DC674F0823DFC1DFAE59E1B1B7EA
:1004B00096E5E3E453C63AE651997696E8E6C284B7
:1004C00026EB898C9B62ED407C6FFCEFBC9C9F40CF
:1004D000F2BAA56FA5F490055A2AF75C936B6CF9F4
:1004E000676DC11BFCE0E40D47FEF520E6B500D0CA
:1004F000ED902E0300943577050080841E080000DF
:10050000204E0A000000C80C333333330F986E12AC
:10051000831141EF8D2114893BE65516CFFEE6DBB2
:1005200018D1844B381BF77C1D901DA4BBE42420FC
:100530003284725E228100C9F124ECA1E53D27419D
:10054000425300504C41004572726F7220777269BD
:1005500074696E6720746F20454550524F4D210AD3
:10056000004D343130004D313132004D31303800E2
:1005700053544F505045442E20005072696E74659C
:10058000722073746F707065642064756520746F79
:10059000206572726F72732E2046697820746865C8
:1005A000206572726F7220616E6420757365204DD4
:1005B00039393920746F20726573746172742E201A
:1005C0002854656D70657261747572652069732059
:1005D00072657365742E205365742069742061669A
:1005E0007465722072657374617274696E67290A2A
:1005F000004E6F20436865636B73756D2077697477
:1006000068206C696E65206E756D6265722C204C79
:10061000617374204C696E653A2000636865636B92
:1006200073756D206D69736D617463682C204C6106
:100630007374204C696E653A20004C696E65204EDB
:10064000756D626572206973206E6F74204C6173E2
:1006500074204C696E65204E756D6265722B312C6D
:10066000204C617374204C696E653A20004D313125
:1006700030002121204B494C4C2063617573656427
:10068000206279204B494C4C20627574746F6E2F38
:1006900070696E0A002121204B494C4C2063617522
:1006A00073656420627920746F6F206D75636820B4
:1006B000696E6163746976652074696D65202D20AB
:1006C00063757272656E7420636F6D6D616E643AEE
:1006D0002000627573793A207061757365642066D5
:1006E0006F7220696E7075740A00627573793A20B2
:1006F00070617573656420666F7220757365720A28
:1007000000627573793A2070726F63657373696EF6
:10071000670A00506C6561736520526573657400EB
:100720005052494E5445522048414C5445440025AE
:10073000533A202553004B494C4C45442E20005041
:1007400072696E7465722068616C7465642E206BCA
:10075000696C6C28292063616C6C6564210A0065F2
:1007600063686F3A004572726F723A0020496E7684
:10077000616C6964206578747275646572200043E9
:1007800061703A00526573656E643A2000236465B7
:1007900066696E652044454641554C545F004B6484
:1007A00020004B6920004B702000504944204175C7
:1007B000746F74756E652066696E6973686564210F
:1007C0002050757420746865206C617374204B70C0
:1007D0002C204B6920616E64204B6420636F6E7324
:1007E00074616E74732066726F6D2062656C6F77D2
:1007F00020696E746F20436F6E66696775726174ED
:10080000696F6E2E680A00504944204175746F74F8
:10081000756E65206661696C6564212074696D651B
:100820006F75740A00504944204175746F74756E79
:1008300065206661696C6564212054656D70657220
:10084000617475726520746F6F20686967680A004B
:10085000204B643A2000204B693A2000204B703A2C
:1008600020000A20436C617373696320504944205F
:100870000A000A204E6F206F76657273686F6F747E
:100880000A002054753A2000204B753A2000206D54
:1008900061783A2000206D696E3A200020643A2089
:1008A0000020626961733A20005049442041757408
:1008B0006F74756E652073746172740A00504944D8
:1008C000204175746F74756E650050494420417500
:1008D000746F74756E65206661696C656421204271
:1008E0006164206578747275646572206E756D62DE
:1008F00065720A004572723A207574663820666F18
:100900006E74206E6F7420696E697469616C697AA7
:1009100065642E00456E636C6F7375726500466981
:100920006C2E204469612E202A0046696C2E2044DA
:1009300069612E004520696E206D6DC2B3002008EC
:100940002046616374002008204D61780020082053
:100950004D696E004F6666004F6E004175746F748E
:10096000656D70005654726176204D696E00566D4B
:10097000696E00566D6178204500566D6178205A89
:1009800000566D6178205900566D617820580041FD
:100990006D6178204500416D6178205A00416D619C
:1009A00078205900416D6178205800412D547261C2
:1009B00076656C00412D5265747261637400416309
:1009C00063656C00452073746570732F6D6D005AFC
:1009D0002053746570732F6D6D00592053746570CA
:1009E000732F6D6D00582053746570732F6D6D00FB
:1009F000416476616E6365642053657474696E67E3
:100A000073003F0043616E63656C00496E6974005A
:100A10004D34323800496E697469616C697A6520B9
:100A2000454550524F4D0046696C616D656E7400CE
:100A300054656D7065726174757265004A756E6398
:100A400074696F6E2044657600416363656C6572FE
:100A50006174696F6E0056656C6F636974790053D9
:100A6000657420486F6D65204F666673657473000A
:100A7000436F6E66696775726174696F6E004E656B
:100A8000787420436F726E657200446F6E65004E1D
:100A900065787400486F6D696E672058595A005A1E
:100AA00020526169736500326E64204E6F7A7A6CF1
:100AB00065205A00326E64204E6F7A7A6C65205938
:100AC00000326E64204E6F7A7A6C652058004E6F4B
:100AD0007A7A6C650046616E2053706565640052D9
:100AE0006573746F72652044656661756C7473001C
:100AF0004C6F61642053657474696E67730053743E
:100B00006F72652053657474696E67730050726507
:100B100068656174202420436F6E6600546F6F6CAB
:100B2000204368616E676500546F6F6C204F666686
:100B300073657473004D61696E004D6F74696F6EFB
:100B40000054756E6500496E666F2053637265656B
:100B50006E00486F74656E6420746F6F20636F6CF5
:100B600064004261636B0050726F636565640045A9
:100B700078747275646572202A0044697361626CCE
:100B800065205374657070657273004D3834004C85
:100B90006576656C20436F726E65727300486F6D89
:100BA00065205A004732385A00486F6D6520590059
:100BB0004732385900486F6D652058004732385821
:100BC000004175746F20486F6D65004732380050E2
:100BD000726568656174202420416C6C00507265F8
:100BE00068656174202420456E64207E0050726523
:100BF00068656174202420426564005072656865F0
:100C000061742024207E00436F6F6C646F776E00E8
:100C1000507265686561742024004E6F7A7A6C6545
:100C2000207E00466C6F77207E00466C6F77002038
:100C300020202020202000454550524F4D20566551
:100C40007273696F6E204572726F72004545505223
:100C50004F4D20496E646578204572726F72004571
:100C60004550524F4D20435243204572726F7200DF
:100C700049676E6F7265006F70656E005452494728
:100C80004745524544007A5F6D696E00795F6D613A
:100C90007800785F6D6178005265706F7274696E6C
:100CA0006720656E6473746F7020737461747573FC
:100CB0000A00486F6D696E67204661696C65640063
:100CC0005761726E696E673A20486F6D696E672072
:100CD00042756D702044697669736F72203C2031D3
:100CE0000A001FE020102310249010A011202210D1
:100CF000241037B00840048003001FE020102110AA
:100D000023101520112021102110313008400480BB
:100D100003001FE03FF03CF03B701F601EE03DF021
:100D20003BF038700FC0078003001FE03FF03EF03B
:100D30003CF01AE01EE03EF03EF03EF00FC00780AF
:100D4000030000002100240027002A002D003000AD
:100D5000330001010000040107010A0143053F05BA
:100D6000FA0CE20C2A0D120D3FFFF038007030FC37
:100D70003020FC102078102030102C00D02E31D0E4
:100D80002F7BD02F7BD02E31D02C00D020301020C4
:100D9000781020FC1030FC303800703FFFF03FFF2F
:100DA000F03800703186302387102787902F87D046
:100DB0002F03D02030102078102078102030102FF2
:100DC00003D02F87D02787902387103186303800B3
:100DD000703FFFF01FFFF81FFFF8041040020820CB
:100DE0000208200410400820801041001041000833
:100DF00020800410400000001FFFF81FFFF80000D3
:100E00000D430000BA4200003E430000D6C200007D
:100E1000BAC20000000000007041000070410000F4
:100E200080400202040000A0400000A0400000003A
:100E3000400000784300003A4300003E43000C0F9E
:100E400000FE07022503BB017FFE08FE08FE050821
:100E50000806000040F0C888889878100508080641
:100E60000000C0F88888888888F805050506000114
:100E70002030F830200508080600002070F82020F7
:100E80002020E00509090600FF2070A8A8B888887E
:100E90007020070505070001D86C366CD8050909D4
:100EA0000600FFF8A88888888888A8F8050A0A0636
:100EB00000FE205050505088A8A8887003030306F5
:100EC000000340A040FFFFFFFFFFFFFFFFFFFFFF0A
:100ED000FFFFFFFFFFFFFFFFFFFFFF000000060512
:100EE000FF010707060200808080808000800303E6
:100EF00003060105A0A0A005060606000050F85054
:100F000050F8500509090600FF2070A8A07028A815
:100F10007020050707060000C8C8102040989805F3
:100F2000070706000040A0A040A890680103030640
:100F300002058080800309090601FF20404080806F
:100F4000804040200309090601FF80404020202006
:100F500040408005070706000020A8702070A820E8
:100F60000505050600012020F820200203030601E4
:100F7000FFC04080050101060003F80202020601DD
:100F800000C0C00507070600000810102040408080
:100F9000050707060000708898A8C888700307072F
:100FA00006010040C040404040E005070706000041
:100FB000708808102040F8050707060000F80810A0
:100FC0003008887005070706000010305090F810B0
:100FD00010050707060000F880F00808887005076C
:100FE00007060000304080F088887005070706007B
:100FF00000F8081010202020050707060000708860
:10100000887088887005070706000070888878084F
:101010001060020505060100C0C000C0C00206063F
:101020000601FFC0C000C040800305050601012085
:1010300040804020050303060002F800F803050580
:1010400006010180402040800507070600007088E7
:1010500010202000200507070600007088B8A8B8F7
:101060008070050707060000708888F88888880562
:101070000707060000F04848704848F005070706D3
:10108000000070888080808870050707060000F0E7
:101090004848484848F0050707060000F88080F0F7
:1010A0008080F8050707060000F88080F0808080C7
:1010B000050707060000708880809888700507077C
:1010C000060000888888F8888888030707060100DA
:1010D000E04040404040E00507070600003810109F
:1010E000101090600507070600008890A0C0A0902F
:1010F00088050707060000808080808080F805074B
:101100000706000088D8A888888888050707060091
:10111000008888C8A8988888050707060000708896
:101120008888888870050707060000F08888F080A6
:10113000808005070706000070888888A8906805E9
:101140000707060000F08888F0A0908805070706CA
:10115000000070888070088870050707060000F896
:101160002020202020200507070600008888888886
:1011700088887005070706000088888888505020F6
:1011800005070706000088888888A8A85005070773
:101190000600008888502050888805070706000050
:1011A00088885020202020050707060000F8081036
:1011B000204080F80309090601FFE08080808080DC
:1011C0008080E005070706000080404020101008DE
:1011D0000309090601FFE020202020202020E0054F
:1011E00003030600052050880501010600FEF803F0
:1011F0000303060105804020050505060000700870
:101200007888780507070600008080F0888888F0D5
:101210000505050600007080808870050707060038
:101220000008087888888878050505060000708819
:10123000F08070050707060000304840E04040405D
:101240000507070600FE708888887808700507077C
:101250000600008080F08888888803070706010060
:101260004000C0404040E00409090601FE10003083
:10127000101010109060050707060000808088900D
:10128000E09088030707060100C04040404040E06E
:10129000050505060000D0A8A8A8A80505050600B4
:1012A00000B0C88888880505050600007088888811
:1012B000700507070600FEF0888888F08080050723
:1012C000070600FE78888888780808050505060066
:1012D00000B0C88080800505050600007880700891
:1012E000F00507070600002020F82020201805053B
:1012F00005060000888888986805050506000088AE
:10130000888850200505050600008888A8A8500593
:10131000050506000088502050880507070600FED6
:1013200088888850204080050505060000F81020B8
:1013300040F80309090601FF20404040804040403A
:10134000200109090602FF808080808080808080E3
:101350000309090601FF80404040204040408005CD
:10136000030306000248A890FF434F4D4D554E49D8
:10137000434154494F4E0044525952554E00455234
:10138000524F525300494E464F004543484F00507C
:1013900072696E742050617573656400536574746E
:1013A000696E67732053746F72656400206279748C
:1013B00065733B20637263200053657474696E67C4
:1013C000732053746F726564202800454550524F56
:1013D0004D206461746173697A65206572726F7201
:1013E0002E0A002073746F726564207365747469CB
:1013F0006E67732072657472696576656420280073
:10140000202863616C63756C6174656429210A002E
:1014100020213D2000454550524F4D20435243204E
:101420006D69736D61746368202D202873746F7209
:1014300065642920002053697A653A2000496E646A
:1014400065783A200044494749504F5453204C6F27
:10145000616465640A0044494749504F5453204C25
:101460006F6164696E670A00204D61726C696E3D40
:10147000563832290A00454550524F4D2076657244
:1014800073696F6E206D69736D61746368202845A0
:101490004550524F4D3D0048617264636F6465640E
:1014A0002044656661756C742053657474696E6759
:1014B00073204C6F616465640A003B2000546F6FB9
:1014C0006C2D6368616E67696E673A002044002086
:1014D000490020204D3330312050005049442073C2
:1014E000657474696E67733A0020460020480020D6
:1014F000204D3134352053004D6174657269616C43
:101500002068656174757020706172616D657465C5
:1015100072733A0020204D32313820540020204D83
:10152000323036205800486F6D65206F66667365EF
:10153000743A00204A0020204D32303520420041CC
:101540006476616E6365643A20423C6D696E5F73D8
:1015500065676D656E745F74696D655F75733E2058
:10156000533C6D696E5F66656564726174653E20AB
:10157000543C6D696E5F74726176656C5F6665651B
:1015800064726174653E204A3C6A756E635F64658F
:10159000763E0020204D3230342050004163636598
:1015A0006C65726174696F6E2028756E6974732F33
:1015B0007332293A20503C7072696E745F616363C4
:1015C000656C3E20523C726574726163745F616346
:1015D00063656C3E20543C74726176656C5F616338
:1015E00063656C3E0020204D3230312058004D6143
:1015F00078696D756D20416363656C6572617469AE
:101600006F6E2028756E6974732F7332293A00202B
:10161000204D3230332058004D6178696D756D2052
:101620006665656472617465732028756E6974738C
:101630002F73293A0053746570732070657220759A
:101640006E69743A0020204D323030205300202043
:101650004D3230302054002044697361626C6564FF
:101660000A0046696C616D656E74207365747469F7
:101670006E67733A0020204D3134392043203B20DF
:10168000556E69747320696E2043656C7369757358
:101690000A0020286D6D29002020473231202020AB
:1016A000203B20556E69747320696E206D6D00209B
:1016B000436F756E7420583A004532004531006220
:1016C0006564002C2073797374656D2073746F707A
:1016D00070656421204865617465725F49443A20F1
:1016E0000048656174696E67204661696C656400D5
:1016F00048656174696E67206661696C6564004560
:1017000072723A204D415854454D50004D41585445
:10171000454D502074726967676572656400457253
:10172000723A204D494E54454D50004D494E544556
:101730004D502074726967676572656400202F00E0
:101740002040002042403A0020403A004163746942
:1017500076652045787472756465723A2000687405
:101760007470733A2F2F6D61726C696E66772E6F8D
:10177000726700322E302E372E32002020506C61DE
:101780006E6E657242756666657242797465733A0B
:1017900020002046726565204D656D6F72793A2094
:1017A00000436F6D70696C65643A204D617220333F
:1017B0003120323032310A00204C61737420557070
:1017C00064617465643A20323032302D31302D310D
:1017D00035207C20417574686F723A20286E6F6ED8
:1017E000652C2064656661756C7420636F6E666934
:1017F00067290A00322E302E372E320A004D6172D0
:101800006C696E0020536F66747761726520526553
:101810007365740A00205761746368646F672052AF
:10182000657365740A002042726F776E206F75745D
:101830002052657365740A002045787465726E6184
:101840006C2052657365740A00506F77657255702D
:101850000A00456E6473746F70730025532025630E
:1018600020256320256320256300656E6473746FF3
:101870007073206869743A20004D6F766520257377
:101880006D6D004D6F766520302E316D6D004D6FA2
:10189000766520316D6D004D6F76652031306D6D50
:1018A000004D6F76652041786973004578747275D4
:1018B000646572004D6F7665205A004D6F76652025
:1018C00059004D6F76652058006F6B00202820006E
:1018D0004475706C69636174696F6E206D6F6465C7
:1018E0003A2000454550524F4D204F4B0A00486F5B
:1018F0006D65202573257325732046697273740006
:101900004F666673657473204170706C696564001E
:101910004572723A20546F6F206661722100546FD5
:101920006F206661722066726F6D207265666572E7
:10193000656E636520706F696E740A006469730078
:1019400043290A0061626C656420286D696E207409
:10195000656D702000436F6C6420657874727564E7
:10196000657320617265200020643A0020693A00A6
:1019700020703A00496E76616C69642065787472F3
:10198000756465720A0020466C6F773A20004652F3
:101990003A00486F74656E64206F66667365747391
:1019A0003A0020204D61783A200020204D696E3A9F
:1019B0002000536F667420656E6473746F70733AA1
:1019C00020003F4A206F7574206F662072616E6739
:1019D000652028302E303120746F20302E33290AB4
:1019E00000205200416363656C65726174696F6EBB
:1019F0003A2050004D31343520533C696E6465788F
:101A00003E206F7574206F662072616E67652028B6
:101A1000302D31290A002F2F20004348414D4245E7
:101A2000525F54454D504552415455524500424134
:101A300042595354455050494E4700415243530078
:101A40004D4F54494F4E5F4D4F4445530054484508
:101A5000524D414C5F50524F54454354494F4E00F4
:101A60004C4F4E475F46494C454E414D4500415510
:101A7000544F5245504F52545F53445F5354415456
:101A80005553005344434152440050524F4D50541B
:101A90005F535550504F525400454D455247454EA7
:101AA00043595F50415253455200434153455F4CA7
:101AB000494748545F4252494748544E45535300A2
:101AC000544F47474C455F4C494748545300534F88
:101AD0004654574152455F504F5745520042554971
:101AE0004C445F50455243454E54004C4556454C7E
:101AF000494E475F44415441005A5F50524F42455E
:101B00000052554E4F5554004155544F4C45564583
:101B10004C005052494E545F4A4F420050524F477A
:101B200052455353004155544F5245504F52545F04
:101B300054454D5000564F4C554D45545249430065
:101B400042494E4152595F46494C455F5452414EBD
:101B5000534645520053455249414C5F584F4E5FE2
:101B6000584F4646004649524D574152455F4E41F7
:101B70004D453A4D61726C696E20322E302E372EF3
:101B80003220284D61722033312032303231203101
:101B9000363A32363A30312920534F555243455F59
:101BA000434F44455F55524C3A68747470733A2FF2
:101BB0002F6769746875622E636F6D2F4D61726C4B
:101BC000696E4669726D776172652F4D61726C69DD
:101BD0006E2050524F544F434F4C5F56455253491D
:101BE0004F4E3A312E30204D414348494E455F54C7
:101BF0005950453A4249424F32546F7563685820F4
:101C000045585452554445525F434F554E543A320D
:101C100020555549443A63656465326132662D3416
:101C20003161322D343734382D396231322D6335FC
:101C3000356336326633363766660A004249424FAC
:101C400032546F75636858204F46462E00426564D3
:101C500020436F6F6C696E672E2E2E0042656420E4
:101C600048656174696E672E2E2E004D3131332028
:101C700053004D3131322053687574646F776E00B4
:101C80006F66660044454255473A0020573A004582
:101C9000256320255300256979202569642025695D
:101CA000682025696D20256973005072696E742063
:101CB00074696D653A20004E6F204D6F76652E0079
:101CC000436C69636B20746F20526573756D652E6C
:101CD0002E2E00536C6565702E2E2E0047322F4736
:101CE000332062616420706172616D657465727326
:101CF0000A0020746F6F206C6F6E672065787472B5
:101D00007573696F6E2070726576656E7465640AAE
:101D10000020636F6C6420657874727573696F6EF0
:101D20002070726576656E7465640A00220A00553B
:101D30006E6B6E6F776E20636F6D6D616E643A20AF
:101D400022004249424F32546F75636858205265F1
:101D50006164792E005072696E74696E672E2E2E42
:101D600000204D393220580020453A00205A3A00D0
:101D700020593A00544845524D414C2052554E414D
:101D800057415900546865726D616C2052756E61DF
:101D900077617900DB0FC93F45BCDA3F8FB3024062
:101DA000FCF0274056946140FE4B9B4084A5D840F0
:101DB000E0231841346A5641E859974164DBD54124
:101DC0006E271742B4B75542CE1A9742C8AED542D5
:101DD000B5885A43D40684BFA65FA7BF7443E0BF4B
:101DE00010B11AC01C2C58C0E8F697C0B849D6C02C
:101DF0004E4E17C124D355C1802497C1A0B5D5C17B
:101E0000121A17C244AE55C2781797C26CACD5C22D
:101E100067885AC30000AF430000AF430000204171
:101E20000000C8410000C8420000C8420000C8438A
:101E30003333BB424C0400004C0400002C01000072
:101E40008813000024F4D43050C38E20C2A240175F
:101E5000828B7011127A910D816CD90AA861E10808
:101E6000C7586607615143061E4B5D05C145A7046F
:101E70001A411104093D9803713931034036DB02E0
:101E800065339102D4305402802E1D02632CEE0182
:101E9000752AC501B028A001102781018F25640192
:101EA0002B244B01E0223401AC211F018D200D01B8
:101EB000801FFC00841EED00971DDF00B81CD200BF
:101EC000E61BC600201BBC00641AB200B219A800B1
:101ED0000A19A0006A189900D117910040178B00C9
:101EE000B516840031167E00B31579003A157300DB
:101EF000C7146F0058146A00EE136600881363005D
:101F000025135E00C7125B006C12570015125400B7
:101F1000C111510070114F0021114B00D610490022
:101F20008D1047004610440002104200C00F4000D0
:101F3000800F3E00420F3C00060F3B00CB0E3800E6
:101F4000930E37005C0E3500270E3400F30D32007F
:101F5000C10D3100900D3000600D2E00320D2D00AE
:101F6000050D2C00D90C2B00AE0C2900850C290086
:101F70005C0C2700350C27000E0C2600E80B240013
:101F8000C40B2400A00B23007D0B23005A0B21005F
:101F9000390B2100180B2000F80A1F00D90A1E0077
:101FA000BB0A1E009D0A1D00800A1D00630A1C005A
:101FB000470A1B002C0A1B00110A1A00F7091A0015
:101FC000DD091900C4091900AB09190092091700AD
:101FD0007B091800630917004C0916003609160022
:101FE000200916000A091500F5081500E00814007C
:101FF000CC081400B8081400A408140090081300BA
:102000007D0812006B0813005808120046081200E1
:1020100034081100230811001208110001081100F2
:10202000F0071000E0071000D0071000C0071000F4
:10203000B0070F00A107100091070E0083070F00E3
:1020400074070F0065070E0057070E0049070E00C2
:102050003B070D002E070E0020070D0013070D0093
:1020600006070D00F9060C00ED060D00E0060C0059
:10207000D4060C00C8060C00BC060C00B0060C0010
:10208000A4060B0099060C008D060B0082060B00BF
:1020900077060B006C060B0061060A0057060B0062
:1020A0004C060A0042060A0038060A002E060A00FC
:1020B00024060A001A060A001006090007060A008C
:1020C000FD050900F4050900EB050900E20509001A
:1020D000D9050900D0050900C7050900BE0509009A
:1020E000B5050800AD050800A50509009C05080018
:1020F000940508008C050800840508007C0508008C
:10210000740508006C050700650508005D050700FB
:10211000560508004E050700470507004005080062
:1021200038050700310507002A05070023050700C9
:102130001C050600160507000F0507000805060028
:1021400002050700FB040600F5040700EE04060084
:10215000E8040600E2040700DB040600D5040600DC
:10216000CF040600C9040600C3040600BD0406002F
:10217000B7040600B1040500AC040600A60406007E
:10218000A00405009B0406009504050090040600C9
:102190008A04050085040500800406007A04050011
:1021A00075040500700405006B0405006604050055
:1021B000610405005C040500570405005204050095
:1021C0004D04050048040500430405003E040400D6
:1021D0003A04050035040500300404002C04050011
:1021E00027040400230405001E0404001A0404004C
:1021F00016040500110404000D0404000904050080
:102200000404040000040400FC030400F8030400B8
:10221000F4030400F0030400EC030400E8030400EA
:10222000E4030400E0030400DC030400D80304001A
:10223000D4030400D0030400CC030400C80303004B
:10224000C503030024F404D9201BC40C5C0E9804BD
:10225000C4095F0265077101F405F900FB04B300CE
:1022600048048700C1036900580355000303450073
:10227000BE023A008402310053022A0029022500DE
:1022800004022000E4011C00C8011900AF0117007E
:102290009801140084011300710110006101100005
:1022A00051010E0043010D0036010B002B010B0004
:1022B00020010B00150109000C01090003010800B1
:1022C000FB000800F3000800EB000700E400060034
:1022D000DE000600D8000600D2000600CC00050093
:1022E000C7000500C2000500BD000400B9000400DD
:1022F000B5000400B1000400AD000400A900040012
:10230000A5000300A20003009F0004009B0003003F
:102310009800030095000200930003009000030062
:102320008D0002008B00030088000200860002007E
:1023300084000300810002007F0002007D00020093
:102340007B000200790002007700010076000200A5
:102350007400020072000100710002006F000200B0
:102360006D0001006C0002006A00010069000200BB
:1023700067000100660001006500010064000200C2
:102380006200010061000100600001005F000200C6
:102390005D0001005C0001005B0001005A000100CB
:1023A00059000100580001005700010056000100CB
:1023B00055000100540001005300000053000100CB
:1023C0005200010051000100500001004F000100C7
:1023D0004E0000004E0001004D0001004C000100C5
:1023E0004B0000004B0001004A00010049000100C1
:1023F00048000000480001004700010046000000BE
:1024000046000100450000004500010044000100B5
:1024100043000000430001004200000042000100B0
:102420004100000041000100400001003F000000A9
:102430003F0001003E0000003E0001003D000000A2
:102440003D0001003C0000003C0000003C00010099
:102450003B0000003B0001003A0000003A00010090
:102460003900000039000100380000003800000089
:10247000380001003700000037000100360000007E
:102480003600000036000100350000003500000075
:102490003500010034000000340000003400010069
:1024A0003300000033000000330001003200000060
:1024B0003200000032000100310000003100000055
:1024C0003100010030000000300000003000010049
:1024D0002F0000002F0000002F0000002F0001003F
:1024E0002E0000002E0000002E0001002D00000034
:1024F0002D0000002D0000002D0001002C00000028
:102500002C0000002C0000002C0001002B0000001B
:102510002B0000002B0000002B0001002A0000000F
:102520002A0000002A0000002A0001002900000003
:1025300029000000290000002900000029000100F6
:1025400028000000280000002800000028000000EB
:1025500028000100270000002700000027000000DD
:1025600027000000270001002600000026000000D0
:1025700026000000260000002600010025000000C3
:1025800025000000250000002500000025000000B7
:1025900025000100240000002400000024000000A9
:1025A000240000002400010023000000230000009C
:1025B000230000002300000023000000230000008F
:1025C0002300010022000000220000002200000081
:1025D0002200000022000000220001002100000073
:1025E0002100000021000000210000002100000067
:1025F0002100000021000100200000002000000058
:10260000200000002000000020000000200000004A
:1026100020000000200001001F0000001F0000003B
:102620001F0000001F0000001F0000001F0000002E
:102630001F0001001E0000001E0000001E00000020
:102640001E000000043700001E290000511B00007E
:102650005810000010090000CC04000078020000AF
:102660004101000030031001D00302017004F700A3
:102670001005ED00B005E5005006DD003008CC0087
:10268000100ABE00F00BB300700EA700F0109D0002
:1026900070139400F0158C00D0178700B0198200D9
:1026A000901B7D00301C7B00D01C7A00701D7800D0
:1026B000101E7700B01E7500501F7400F01F7200CE
:1026C0009020710030216F00D0216E0070226C00CC
:1026D00010236B00B023690050246800F0246600CA
:1026E0009025650030266400D026620070276100C6
:1026F00010285F00B0285E0050295C00F0295B00C4
:10270000902A5A00302B5800D02B5700702C5500BF
:10271000102D5400B02D5200502E5100F02E4F00BD
:10272000902F4D0030304C00D0304A0070314800BE
:1027300010324700B032450050334300F0334100BF
:1027400090343F0030353E00D0353C0070363900C3
:1027500010373700B037350050383300F0383000CC
:1027600090392D00303A2A00D03A2700703B2400DF
:10277000103C2000503D1700F03D1100903E090034
:10278000003F000001FFFFFFFFFFFFFFFFFFFFFF14
:10279000FFFF0FFFFFFFFFFFFFFFFFFFFFFFFFFF39
:1027A0001E0000000000000000000007FFFF3800CE
:1027B00000000000000000000003FFFF70000000A8
:1027C0000000000000000001FFFF600000000000AA
:1027D000000000000000FFFF60000000000000009B
:1027E000000000007FFFC000000000000000007833
:1027F00000003FFFC00FC0FC000000000078180080
:102800001FFFC03FE1FF0000000000783C000FFF09
:10281000C07FF3FF8000000000783C0007FFC0FF8E
:10282000FFFFC000000000783C0003FFC1F87F8775
:10283000E00000000078000001FFC1F03F03E0006D
:1028400000000078000000FFC1E01E01E01F00034F
:10285000E0783C03F07FC1E01E01E07FC00FF87814
:102860003C07FC3FC1E01E01E1FFE01FFC783C0F8C
:10287000FE1FC1E01E01E3FFF03FFE783C1FFE0F8C
:10288000C1E01E01E3F3F83F3E783C3F3F07C1E063
:102890001E01E7E0FC7C1F783C3E1F07C1E01E01E3
:1028A000E7C07C7C0F783C3C0F03C1E01E01E78051
:1028B0007C780F783C3C0F03C1E01E01E7803C7838
:1028C00000783C3C0F03C1E01E01E7803C780078B3
:1028D0003C3C0F03C1E01E01E7803C7800783C3CA3
:1028E0000F03C1E01E01E7C03C7800783C3C0F03B9
:1028F000C1E01E01E3E03C78007C3C3C0F03C1E0FA
:102900001E01E3FF3FF8007FBC3C0F03C1E01E0146
:10291000E1FF3FF8003FBFFC0F03C1E01E01E0FFF5
:102920003FF8001FBFFC0F03C1E01E01E07F3FF82E
:10293000000FBFFC0F03600000000000000000005B
:102940000000000760000000000000000000000020
:102950000006700000000000000000000000000EF3
:10296000380000000000000000000000001C1E00F5
:102970000000000000000000000000780FFFFFFFD3
:10298000FFFFFFFFFFFFFFFFFFF001FFFFFFFFFF64
:10299000FFFFFFFFFFFFFF801000C90210012C01A5
:1029A0004001220170011801B0010E01F001040183
:1029B0005002FA00B002F0003003E600D003DC0061
:1029C0009004D2007005C800A006BE000008B40044
:1029D000B009AA00D00BA000600E960060118C0018
:1029E0000015820020197800C01D6E00A02264002E
:1029F000B0275A00902C500000314600E0343C00D3
:102A000010383200903A2800603C1E00A03D1400AF
:102A1000803E0A00203F00000101FF00000D43003E
:102A200000BA42000000008A1385137E13771369F1
:102A30001300002200250028002B002E0031003456
:102A40000002010000050108010B0105050505074D
:102A50000508080808020202020A0A080804040419
:102A60000401010101010101010303030303030345
:102A700003040707070C0C0C0C0C0C0C0C020202D4
:102A80000206060606060606060B0B0B0B0B0B0BC7
:102A90000B01021020200808102040102040800266
:102AA0000102010804020101020408102040808094
:102AB0004020100804020180040201804020100818
:102AC00004020108040201010204081020408001F0
:102AD0000204081020408000000A0B02090C0D0EB1
:102AE00008070304010000000000000000000000CF
:102AF00000000000000000000000000000000000D6
:102B00000000001211100000000000000000000092
:102B100000000000000000000000000000002CC7C2
:102B200011241FBECFEFD1E2DEBFCDBF00E00CBF4E
:102B300013E0A0E0B2E0E6E3F9EB01E00BBF02C076
:102B400007900D92A430B107D9F72FE0A4E0B3E0CD
:102B500001C01D92A834B207E1F715E1C0E9D5E143
:102B600000E006C021970109802FFE010E94DBD7FB
:102B7000CF38D10780E00807A9F70E94F8C70C9466
:102B800099DC0C9400007F928F929F92AF92BF923B
:102B9000CF92DF92EF92FF920F931F93CF93DF9329
:102BA0007090810BC9E4DBE094E3C92E92E0D92E4A
:102BB0002FE5E22E22E0F22E09E71BE0772009F450
:102BC0005EC0F80180809180A280B38020E030E078
:102BD000A901C501B4010E94FAD0882309F44FC0AD
:102BE00020E030E040E05FE3C501B4010E9460D125
:102BF0009B01AC010E9460D12BED3FE049E450E421
:102C00000E9460D19B01AC0160E070E080E89FE32E
:102C10000E94F8D84B015C0189929992A992B992CD
:102C2000F601619171916F01072E000C880B990BD1
:102C30000E9401D12AE037ED43E25CE30E9460D1BB
:102C4000A50194010E9460D1F70161937193819372
:102C500091937F010C5F1F4FFBE0C135DF0709F047
:102C6000ADCFDF91CF911F910F91FF90EF90DF904B
:102C7000CF90BF90AF909F908F907F900895812CC0
:102C8000912C80E8A82E8FE3B82EC6CFCF92DF928A
:102C9000EF92FF92FC01C080D180E280F38020E0BF
:102CA00030E0A901C701B6010E94FAD087FF68C0D1
:102CB000C701B601905820E030E040E251E40E94A4
:102CC00060D120E030E040EA50E40E94FED720E0EE
:102CD00030E040E251E40E94F8D80E946AD99B019A
:102CE00060E22031F7E23F0730F0C90160E177E2AE
:102CF0000E9494D7605D60938C04283E83E038077F
:102D000008F445C0C90168EE73E00E9494D7CB0176
:102D10006AE070E00E9494D7805D80938D0480E229
:102D20002436310558F0C90164E670E00E9494D75A
:102D3000CB016AE070E00E9494D7805D80938E049E
:102D400080E22A30310558F0EAE0F0E0C901BF0125
:102D50000E9494D7CB01BF010E9494D7805D8093DD
:102D60008F04C9016AE070E00E9494D7805D80936F
:102D700090048CE894E0FF90EF90DF90CF9008955E
:102D800020E030E040E251E4C701B60198CF80E294
:102D9000C4CF8F929F92AF92BF92CF92DF92EF9269
:102DA000FF92FC01C080D180E280F38020E030E01F
:102DB00040E251E4C701B6010E9460D120E030E05A
:102DC00040E251E40E9460D14B015C0120E030E020
:102DD000A901C701B6010E94FAD020E030E040EA24
:102DE00050E487FF04C020E030E040EA50ECC50129
:102DF000B4010E94FED720E030E040E251E40E949E
:102E0000F8D80E946AD99B018BE237FF05C02227C0
:102E10003327261B370B8DE280938B04C90168EEA4
:102E200073E00E94A8D7CB01EAE0F0E0BF010E9466
:102E3000A8D7805D80938C04C90164E670E00E948D
:102E4000A8D7CB01BF010E94A8D7805D80938D04D5
:102E5000C901BF010E94A8D7282FCB01BF010E9442
:102E6000A8D7805D80938E048EE280938F04205DCE
:102E7000209390048BE894E0FF90EF90DF90CF9048
:102E8000BF90AF909F908F9008959C0197FF26C0B0
:102E9000EE27FF27E81BF90B2D398FEF38070CF0D1
:102EA0005DC08DE280938D04CF0164E670E00E94E6
:102EB000A8D7CB012AE030E0B9010E94A8D7805DF5
:102EC00080938E04CF01B9010E94A8D7CB01B9012C
:102ED0000E94A8D7805D80938F042AC0283E83E09B
:102EE0003807B4F1C90168EE73E00E94A8D7CB019E
:102EF000EAE0F0E0BF010E94A8D7805D80938D04D6
:102F0000C90164E670E00E94A8D7CB01BF010E940E
:102F1000A8D7805D80938E04C901BF010E94A8D705
:102F2000CB01BF010E94A8D7805D80938F04F90177
:102F3000CF016AE070E00E94A8D7805D8093900482
:102F40008DE894E008958DE237FDC5CF80E2C3CFD0
:102F5000F90180E2243631050CF0A4CF80E28093A1
:102F60008D0480938E04EA30F1056CF38DE237FF17
:102F700080E280938E04CF016AE070E00E94A8D7BF
:102F8000605D60938F04D4CF9C0197FD2DC080E2DB
:102F9000243631055CF0C90164E670E00E94A8D7D0
:102FA000CB016AE070E00E94A8D7805D80938E0418
:102FB00080E22A3031055CF0EAE0F0E0C901BF01AF
:102FC0000E94A8D7CB01BF010E94A8D7805D809343
:102FD0008F04C9016AE070E00E94A8D7805D8093E9
:102FE00090048EE894E008953195219531098DE2A1
:102FF000DDCF9C0180E22436310558F0C90164E63A
:1030000070E00E9494D7CB016AE070E00E9494D7F0
:10301000805D80938E0480E22A30310558F0EAE02A
:10302000F0E0C901BF010E9494D7CB01BF010E940B
:1030300094D7805D80938F04C9016AE070E00E949C
:1030400094D7805D809390048EE894E0089524E600
:10305000829FC001112481589F4F6FEF70E00E9442
:10306000A8D7262F81E3643609F080E280938D048F
:1030700090E22A3040F03AE0822F632F0E947AD704
:103080000E947AD7905D90938E04822F6AE00E940E
:103090007AD7905D90938F0485E2809390048DE8B9
:1030A00094E00895FC01A081B1811C92A281B381BA
:1030B0008C918F5F8C930280F381E02D90818CE066
:1030C000989F800D1124E6EBFCE013AE84AF0895C9
:1030D0000F931F93CF93DF938091450B90E0EC010A
:1030E000CC0FDD1FCC0FDD1F8E01015A1D4F880F45
:1030F000991FFC01EC5CFD4F60817181072E000C73
:10310000880B990B0E9401D12AE037ED43E25CE382
:103110000E9460D1C75BD44F288139814A815B818D
:103120000E9460D1F8016083718382839383DF9171
:10313000CF911F910F9108950F931F93CF93DF931A
:103140008091F10B90E0EC01CC0FDD1FCC0FDD1F67
:103150008E01015A1D4F880F991FFC01EC5CFD4F39
:1031600060817181072E000C880B990B0E9401D1A0
:103170002AE037ED43E25CE30E9460D1C75BD44FA5
:10318000288139814A815B810E9460D1F801608386
:10319000718382839383DF91CF911F910F91089563
:1031A000CF93DF93EC01CB01BA010E9401D120E063
:1031B00030E0A9010E94FED70E946AD97983688312
:1031C000DF91CF9108950E9401D120E030E0A90164
:1031D0000E94FED70E946AD9CB010C94C41780913B
:1031E000450B811104C08091230B8093970B0895A8
:1031F000CF93DF93EC01CB01BA010E9401D120E013
:1032000030E0A9010E94FED70E9471D979836883BA
:10321000DF91CF9108950E9401D120E030E0A90113
:103220000E94FED70E9471D9CB010C94F917CF935D
:10323000DF93EC01CB01BA010E9401D129EC38ECFB
:1032400048EC5EE30E94F8D820E030E040E05FE325
:103250000E94FED70E9471D96883DF91CF910895B3
:103260000E9401D129EC38EC48EC5EE30E94F8D8CA
:1032700020E030E040E05FE30E94FED70E9471D979
:10328000862F0C942718E091450B86E0E802F001A8
:103290001124E756F44F8091230B90E095838483AB
:1032A00008958091F10B882369F08091860B8770D7
:1032B000873041F48BEC9BE09093990980939809B7
:1032C0001092F10B0895CF93DF93EC01CB01BA017B
:1032D0000E9401D120E030E040E251E40E94F8D8A1
:1032E00020E030E0A9010E94FED7688379838A83B9
:1032F0009B83DF91CF910895CF93DF93EC01CB01B6
:10330000BA010E9401D12AE037ED43E25DE30E9459
:10331000F8D820E030E0A9010E94FED70E9471D9C0
:10332000688379838A839B83DF91CF910895CF93BC
:10333000DF93EC01CB01BA010E9401D120E030E023
:10334000A9010E94FED7688379838A839B83DF91DA
:10335000CF910895CF93DF93EC01CB01BA010E9486
:1033600001D120E030E0A9010E94FED76883798373
:103370008A839B83DF91CF910895CF93DF93EC01F4
:10338000CB01BA010E9401D12AE037ED43E25DE3AF
:103390000E94F8D820E030E0A9010E94FED768839F
:1033A00079838A839B83DF91CF910895CF93DF93B5
:1033B000EC01CB01BA010E9401D120E030E048ECE1
:1033C00052E40E94F8D820E030E0A9010E94FED724
:1033D000688379838A839B83DF91CF910895CF930C
:1033E000DF93EC01CB01BA010E9401D120E030E073
:1033F0004AE754E40E94F8D820E030E0A9010E9496
:10340000FED7688379838A839B83DF91CF91089568
:10341000CF93DF9300D01F92CDB7DEB70E9471D952
:103420000E94FFD069837A838B839C83CE010196AF
:103430000E9446160F900F900F900F90DF91CF9142
:1034400008950E9401D12AE037ED43E25DE30E9436
:10345000F8D820E030E0A9010E94FED70C94081AA9
:103460008F929F92AF92BF92CF92DF92EF92FF9294
:10347000CF936B017C0120E030E0A9010E94FAD0DB
:1034800087FDAAC06DEB77E386E095E3A70196017F
:103490000E94FED76B017C0120E030E0A9010E9470
:1034A000FAD087FF9EC0C701B601905820E030E0F7
:1034B00040E251E40E9460D120E030E040E251E47B
:1034C0000E9460D120E030E040EA50E40E94FED744
:1034D00020E030E040E251E40E94F8D80E946AD92E
:1034E0006B017C0180E280938A0460E280E1C8166F
:1034F00087E2D806E104F1048CF0C701B60120E1AF
:1035000037E240E050E00E94BCD7CA01B9012AE08E
:1035100030E040E050E00E94BCD7605D60938B04D7
:1035200060E288EEC81683E0D806E104F1048CF06E
:10353000C701B60128EE33E040E050E00E94BCD75E
:10354000CA01B9012AE030E040E050E00E94BCD757
:10355000605D60938C0460E284E6C816D104E104E7
:10356000F1048CF0C701B60124E630E040E050E001
:103570000E94BCD7CA01B9012AE030E040E050E027
:103580000E94BCD7605D60938D048AE0882E912CE8
:10359000A12CB12CC701B601A50194010E94BCD792
:1035A000C62FCA01B901A50194010E94BCD7605D74
:1035B00060938E048EE280938F04C05DC09390046C
:1035C0008AE894E0CF91FF90EF90DF90CF90BF908A
:1035D000AF909F908F9008956DEB77E386E095EB29
:1035E00055CF20E030E040E251E4C701B60162CFA0
:1035F0000E9401D120E030E040E251E40E94F8D87E
:1036000020E030E0A9010E94FED70C94301ACF923E
:10361000DF92EF92FF92CF93DF9300D01F92CDB74E
:10362000DEB76B017C0120E030E0A9010E94FAD0F6
:1036300087FD1BC06DEB77E386E095E3A70196015C
:103640000E94FED769837A838B839C83CE01019687
:103650000E9446160F900F900F900F90DF91CF9120
:10366000FF90EF90DF90CF9008956DEB77E386E0C9
:1036700095EBE4CF0E9401D120E030E0A9010E9447
:10368000FED70C94071B0E9401D12AE037ED43E2DC
:103690005DE30E94F8D820E030E0A9010E94FED747
:1036A0000C94071B8F929F92AF92BF92CF92DF92A2
:1036B000EF92FF92CF936B017C0120E030E0A901F3
:1036C0000E94FAD087FD93C06DEB77E386E095E327
:1036D000A70196010E94FED76B017C0120E030E03B
:1036E00040E251E40E9460D120E030E04AE754E437
:1036F0000E9460D14B015C0120E030E0A901C701CC
:10370000B6010E94FAD020E030E040EA50E487FFA2
:1037100004C020E030E040EA50ECC501B4010E9452
:10372000FED720E030E040E251E40E94F8D80E9449
:103730006AD96B017C01C114D104E104F10409F4DC
:103740005BC0F7FE59C0F094E094D094C094C11CC3
:10375000D11CE11CF11C8DE280938B04C701B601E2
:1037600028EE33E040E050E00E94BCD78AE0882E8B
:10377000912CA12CB12CCA01B901A50194010E9480
:10378000BCD7605D60938C048EE280938D04C7018A
:10379000B60124E630E040E050E00E94BCD7CA0108
:1037A000B901A50194010E94BCD7605D60938E04AD
:1037B000C701B601A50194010E94BCD7C62FCA015A
:1037C000B901A50194010E94BCD7605D60938F048C
:1037D000C05DC09390048BE894E0CF91FF90EF9090
:1037E000DF90CF90BF90AF909F908F9008956DEB3A
:1037F00077E386E095EB6CCF80E2AECF0E9401D1FB
:1038000020E030E04AE754E40E94F8D820E030E0BD
:10381000A9010E94FED70C94521B8F929F92AF92E7
:10382000BF92CF92DF92EF92FF92CF936B017C0118
:1038300020E030E0A9010E94FAD087FFA3C06DEB21
:1038400077E386E095EBA70196010E94FED76B0116
:103850007C0120E030E040E251E40E9460D120E0B1
:1038600030E048EC52E40E9460D14B015C0120E062
:1038700030E040E251ECC701B6010E94FAD01816C0
:1038800054F420E030E048EC52E4C701B6010E9455
:103890005EDA87FD8BC020E030E0A901C701B601E8
:1038A0000E94FAD087FF73C060E070E080EA90EC7D
:1038B000A50194010E94FED720E030E040E251E4EF
:1038C0000E94F8D80E946AD96B017C01F7FC64C0A1
:1038D00020E137E240E050E00E94BCD7CA01B901C4
:1038E0002AE030E040E050E00E94BCD7605D609389
:1038F0008B04C701B60128EE33E040E050E00E949F
:10390000BCD79AE0892E912CA12CB12CCA01B90107
:10391000A50194010E94BCD7605D60938C04C7012F
:10392000B60124E630E040E050E00E94BCD7CA0176
:10393000B901A50194010E94BCD7605D60938D041C
:103940008EE280938E04C701B601A50194010E9406
:10395000BCD7C62FCA01B901A50194010E94BCD7EA
:10396000605D60938F04C05DC09390048BE894E029
:10397000CF91FF90EF90DF90CF90BF90AF909F904E
:103980008F9008956DEB77E386E095E35CCF60E080
:1039900070E080EA90E48CCFF094E094D094C094EE
:1039A000C11CD11CE11CF11C6DE2A1CF20E030E074
:1039B000A901C701B6010E94FAD087FF6AC060E082
:1039C00070E080EA90ECA50194010E94FED720E00F
:1039D00030E040E251E40E94F8D80E946AD94B01DD
:1039E0005C0120E030E0A901C701B6010E945EDA67
:1039F00087FD0BC020E030E040E251E4C701B60192
:103A00000E94FAD060E287FD13C0B7FC47C0C50131
:103A1000B40128EE33E040E050E00E94BCD7CA0178
:103A2000B9012AE030E040E050E00E94BCD7605D80
:103A300060938C04C501B40124E630E040E050E01E
:103A40000E94BCD78AE0C82ED12CE12CF12CCA01EF
:103A5000B901A70196010E94BCD7605D60938D04F7
:103A60008EE280938E04C501B401A70196010E94E5
:103A7000BCD7C62FCA01B901A70196010E94BCD7C5
:103A8000605D60938F04C05DC09390048CE894E007
:103A90006FCF60E070E080EA90E495CFB094A0949E
:103AA00090948094811C911CA11CB11C6DE2C0CF2C
:103AB0000E9401D120E030E048EC52E40E94F8D8A6
:103AC00020E030E0A9010E94FED70C940D1CCF929B
:103AD000DF92EF92FF926B017C0120E030E0A901C0
:103AE0000E94FAD087FD26C06DEB77E386E095E370
:103AF000A70196010E94FED76B017C0120E030E017
:103B0000A9010E94FAD020E030E040E05FE387FFA7
:103B100004C020E030E040E05FEBC701B6010E9446
:103B2000FED70E946AD9CB01FF90EF90DF90CF9033
:103B30000C94C4176DEB77E386E095EBD9CF0E9428
:103B400001D120E030E0A9010E94FED70C94671D4E
:103B5000FC0184910895FC01808108950F931F93C7
:103B6000522F2091B40C3091B50C2817390721F150
:103B70009093B50C8093B40C8B0130E020E000935F
:103B8000330B1093340B2093350B3093360B40934B
:103B90002B0B50932C0B8251994321F410927504F6
:103BA0001092540482E080933E0281E08093430BA4
:103BB00010927D04109255041F910F91089520E0FA
:103BC00040E070E060E082E199E30C94AE1D81E09A
:103BD000809375048091860B8770873051F0109226
:103BE000860B1092BD0B8BEC9BE090939909809310
:103BF000980920E040E070E060E083E698E20C94F1
:103C0000AE1D20E040E070E060E081EA9FE10C94AE
:103C1000AE1D8091C20B81111FC0E091F10B87E1B5
:103C2000E89FF0011124ED53F44F64817581868182
:103C300097810E946AD920916702309168022150D1
:103C400031096217730744F420E040E070E060E05F
:103C50008FE897E30C94AE1D0C94011E21E0209395
:103C600075046093000270930102809302029093A6
:103C7000030220E040E070E060E08091210B909131
:103C8000220B0C94AE1D6DEC7CEC8CEC9CE30C9444
:103C90002E1E6DEC7CEC8CEC9DE30C942E1E60E0F3
:103CA00070E080E89FE30C942E1E60E070E080E2FC
:103CB00091E40C942E1E80919E0C90919F0C891B78
:103CC0008F7039F481E09091360C913019F080E0DA
:103CD000089581E0089511989091020187FD9095D3
:103CE000917090930001119A000011989091020137
:103CF00086FD9095917090930001119A00001198A3
:103D00009091020185FD9095917090930001119A18
:103D1000000011989091020184FD9095917090930C
:103D20000001119A000011989091020183FD909575
:103D3000917090930001119A0000119890910201E6
:103D400082FD9095917090930001119A0000119856
:103D50009091020181FD9095917090930001119ACC
:103D60000000119880910201817080930001119AE6
:103D700000000895089590E080E00895282F909124
:103D8000030C833021F495FD0FC094FD0FC0892FE3
:103D900090E0B0E0A0E004C0B695A7959795879510
:103DA0002A95D2F78170089581E0089580E0089502
:103DB0000F931F930E94B875009193091091940975
:103DC00020919509309196090115110521053105BC
:103DD000D9F52091A20C2223A1F1E091A00C215051
:103DE0002093A20C21E02E0F2093A00C3091A30C65
:103DF000231302C01092A00C24E0E29FF0011124D2
:103E0000EC55F34F008111812281338100938F099A
:103E1000109390092093910930939209600F711FBC
:103E2000811D911D60939309709394098093950966
:103E3000909396098091910990919209892B09F0AC
:103E4000409A1F910F910895601B710B820B930B89
:103E500097FDF7CF40981092930910929409109211
:103E6000950910929609EDCFCF92DF92EF92FF92D3
:103E7000CF93C82F833029F467FD6091F10B6093D5
:103E800070040E94B8756B017C0124EA30E74DE7AD
:103E90005FE36091000270910102809102029091B3
:103EA00003020E94FAD087FD18C08AEF90E0A0E0DC
:103EB000B0E08C0D9D1DAE1DBF1D809371049093CD
:103EC0007204A0937304B0937404C0930402CF915E
:103ED000FF90EF90DF90CF90089580E090E0DC01BC
:103EE000E8CFCF93DF93CDB7DEB720E24885598581
:103EF0006F818E810E94E471DF91CF91089580914E
:103F0000450B0C94C77A8091450B0C94C77A10929C
:103F1000970B0E94927A0C94DF1D64E37FE383E0A9
:103F20000C94B2C468E171E482E00C94B2C46DE117
:103F300071E481E00C94B2C462E271E480E00C941C
:103F4000B2C468E37FE383E00C94B2C40C9478A31A
:103F50000C9478A30C9478A30C9478A30C9458A098
:103F60000C9458A00C9458A00C9458A0AF92BF92F7
:103F7000CF92DF92EF92FF920F931F93CF93DF9335
:103F80006B01E9014A3009F4C1C0453109F073C041
:103F9000DB011296ED91FC91F280C681D781809170
:103FA0000201809582708093000188E28A9500006A
:103FB000E9F7BF2CB29420EFB22230E1A32EAF0C70
:103FC00048E2E42E88EF0E946B1E8E2D8A95000039
:103FD000E9F7BFE1BF1508F485C08F2D80778068B1
:103FE0000E946B1E8B2D0E946B1E8E2D8A950000E9
:103FF000E9F780E80E946B1E80E00E946B1E8E2D08
:104000008A950000E9F78AEF0E946B1E8E2D8A9533
:104010000000E9F78E01005F1F4F8881807F0E94BA
:104020006B1E89918295807F0E946B1EC017D107FD
:10403000A1F78E2D8A950000E9F7F394E0E1BE0E1A
:10404000FA10C0CF80910201827080930001D601E6
:104050001296CD91DC91CE010E9444768111F7C178
:10406000DF91CF911F910F91FF90EF90DF90CF9054
:10407000BF90AF900895FB0102811381423309F490
:10408000A1C108F4A5C1463409F492C1473409F42A
:1040900095C14B3329F589812B81D80112966C91FA
:1040A000129713964C91213009F4E8C1233009F09E
:1040B000B2C138EF380F582F91E0431708F490E061
:1040C00041E0531708F040E031E0561708F430E0C3
:1040D000592F542B352309F0C6C1942309F0C3C1CD
:1040E00081E0BECF80EE8F0D8068807F0E946B1EC6
:1040F0008F2D8295807F0E946B1E8E2D8A950000E9
:10410000E9F780E80E946B1E80E877CF809101017B
:10411000826080930101809102018270809300018E
:104120008091010181608093010180910201817081
:1041300080930001099A119A809102018095827002
:104140008093000188E28A950000E9F788E790E013
:10415000CEE9DFE0FE013197F1F70197D9F788EF5B
:104160000E946B1E18E2812F8A950000E9F780E219
:104170000E946B1E80E00E946B1E812F8A950000BA
:10418000E9F780E00E946B1E80E80E946B1E812F81
:104190008A950000E9F780E00E946B1E80E10E9492
:1041A0006B1E812F8A950000E9F7CE010197F1F788
:1041B000CE010197F1F7CE010197F1F7CE010197FA
:1041C000F1F7CE010197F1F7CE010197F1F7CE019A
:1041D0000197F1F7CE010197F1F7CE010197F1F7C1
:1041E000CE010197F1F7CE010197F1F7CE010197CA
:1041F000F1F7CE010197F1F7CE010197F1F7219781
:10420000F1F780E20E946B1E80E40E946B1E812FFA
:104210008A950000E9F780E20E946B1E80E60E940A
:104220006B1E1A950000E9F710E0D0E0C8E28D2F70
:10423000807780680E946B1E812F0E946B1E8C2FDE
:104240008A950000E9F780E80E946B1E80E00E94DA
:104250006B1E8C2F8A950000E9F78AEF0E946B1E77
:104260008C2F8A950000E9F790E211988091020165
:10427000817080930001119A0000119880910201D1
:10428000817080930001119A0000119880910201C1
:10429000817080930001119A0000119880910201B1
:1042A000817080930001119A0000119880910201A1
:1042B000817080930001119A000011988091020191
:1042C000817080930001119A000011988091020181
:1042D000817080930001119A000011988091020171
:1042E000817080930001119A000011988091020161
:1042F000817080930001119A000011988091020151
:10430000817080930001119A000011988091020140
:10431000817080930001119A000011988091020130
:10432000817080930001119A000011988091020120
:10433000817080930001119A000011988091020110
:10434000817080930001119A000011988091020100
:10435000817080930001119A0000119880910201F0
:10436000817080930001119A00008C2F8A950000C3
:10437000E9F7915009F079CF88EF0E946B1E8C2FDE
:104380008A950000E9F7DF5F105FD03209F04FCF68
:1043900080E00E946B1E80EC0E946B1ECA9500009C
:1043A000E9F78091020182708093000181E058CE8C
:1043B000D80115968C91888381E052CEF8018181D5
:1043C0008883FACFB901C8010E94617681E048CEA6
:1043D000443171F0473109F083CE1882F8018281AF
:1043E0008983858181508A8383818B8381E038CE64
:1043F000D80115964C91159750E0440F551F70E069
:1044000060E016968D919C910E9458DCC8010E9434
:104410005A7681E025CE481708F462CE861708F454
:104420005FCEFA80E12CD12C243070F41DC0BE0187
:10443000C8010E946176898198819D0D98838E0DB7
:104440008983FF0C09F44CCEF7FEF6CFF0CF4D81F7
:1044500050E0440F551F70E060E08E819F810E9404
:1044600058DC81E0FDCDFA8030E0F901ED57FD4FD9
:10447000D08021583D4FF901E080E6CF58E0580F39
:10448000382F1ACEDF92EF92FF920F931F93CF93A4
:10449000DF93EC01D62E1CAD0BAD7C0184E0E80E61
:1044A000F11CE98DFA8DC7011995412F480F2D2D6B
:1044B000602FC7010E949A789BAD890F8BAF81E076
:1044C00090E0DF91CF911F910F91FF90EF90DF90DF
:1044D00008959F92AF92BF92CF92DF92EF92FF9298
:1044E0000F931F93CF93DF93EC018B01942EA52E96
:1044F0008A859B858617970731F0888199810E946C
:1045000042781B870A8788859985019649F5BC8082
:104510000A818E81080FC880D980D6015596ED9109
:10452000FC91C6011995B80EE92CFA2C10E0F701A0
:1045300021917F01211127C08E819F81810F911DC3
:104540009F838E8390E080E0DF91CF911F910F9148
:10455000FF90EF90DF90CF90BF90AF909F90089525
:104560000E811F81692D7A2D888199810E94537156
:10457000800F912F911D288539852817390738F626
:1045800081E090E0E1CF4B2D602FC6010E949A7828
:10459000080F180FCCCFEF92FF920F931F93CF937A
:1045A000DF93EC018B017A018A859B85861797073B
:1045B00031F0888199810E9442781B870A87B70170
:1045C000888199810E9453712E813F81820F932FA0
:1045D000911D9F838E8390E080E0DF91CF911F91AA
:1045E0000F91FF90EF900895CF92DF92EF92FF929C
:1045F0000F931F93CF93DF93CDB7DEB72C970FB6F2
:10460000F894DEBF0FBECDBFF090F10CE090F20C3D
:104610002091570421111DC044EF58E06E2D8F2DBD
:104620000E94067990E080E0F80EF092F10CE092A2
:10463000F20C99272C960FB6F894DEBF0FBECDBFB3
:10464000DF91CF911F910F91FF90EF90DF90CF906E
:104650000895C090BE0CD090BF0C2AEB3CE03A838A
:1046600029832F2D30E03C832B832E2D30E03E8399
:104670002D8318861F827A8769871C861B8609E628
:1046800012E29E012F5F3F4F48EA5DE1BC01C60187
:104690000E94CC6FB6018AEB9CE00E9442788F8129
:1046A0009885C2CF4F925F926F927F928F929F9226
:1046B000AF92BF92CF92DF92EF92FF920F931F9330
:1046C000CF93DF93CDB7DEB76A970FB6F894DEBF0E
:1046D0000FBECDBF9A8F898F5B018A01DC01D7960F
:1046E0006D917D918D919C91DA970E94FFD06B0125
:1046F0007C01F50120813181428153810E9460D18A
:104700000E94DCD82B013C01D8012D913D914D91A7
:104710005C91C701B6010E9460D10E94DCD84B01B8
:104720005C01C301B2010E9471D9698B7A8B8B8BBA
:104730009C8B683771058105910540F428E730E0CE
:1047400040E050E0298B3A8B4B8B5C8BC501B40168
:104750000E9471D96D877E878F87988B6837710526
:104760008105910540F488E790E0A0E0B0E08D87F6
:104770009E87AF87B88BE98DFA8DED5BFF4F208167
:1047800031814281538129833A834B835C83CA01FF
:10479000B9010E9401D12B013C0169897A898B8979
:1047A0009C890E94FFD069877A878B879C8720E04D
:1047B00030E0A901C301B2010E94FAD0882309F4B4
:1047C0003BC1A7019601C701B6010E9460D14B0110
:1047D0005C0129853A854B855C85CA01B9010E9437
:1047E00060D19B01AC01C501B4010E94FDD74B0112
:1047F0005C01A3019201C301B2010E94FED79B019B
:10480000AC01C501B4010E94F8D80E94DCD80E9416
:1048100071D96D837E838F83988769817A818B813B
:104820009C8190958095709561957F4F8F4F9F4F9C
:104830000E9401D14B015C016D857E858F85988931
:104840000E94FFD069837A838B839C8320E030E0D1
:10485000A901C501B4010E94FAD0882309F4F0C06F
:1048600029813A814B815C81CA01B9010E9460D1E2
:104870006D8B7E8B8F8B988FA7019601C701B60138
:104880000E9460D19B01AC016D897E898F89988DD2
:104890000E94FDD76B017C01A5019401C501B40103
:1048A0000E94FED79B01AC01C701B6010E94F8D857
:1048B0000E94A0D9A98DBA8D95968D909D90AD90AE
:1048C000BC909897750164012D813E814F81588578
:1048D000C21AD30AE40AF50A0E9471D9C61AD70A85
:1048E000E80AF90AF7FE6EC020E030E0A901C30132
:1048F000B2010E94FAD0882309F4A6C0C501B40110
:104900000E94FFD06B017C01A3019201C301B2019F
:104910000E94FED79B01AC01C701B6010E9460D185
:104920006B017C0129853A854B855C85CA01B901FB
:104930000E9460D19B01AC01C701B6010E94FDD766
:104940006B017C0129813A814B815C81CA01B901EB
:104950000E9460D19B01AC01C701B6010E94FED745
:104960006B017C0120E030E040E850E4C301B2017B
:104970000E9460D19B01AC01C701B6010E94F8D82A
:104980000E94DCD86B017C0120E030E0A9010E948C
:104990005EDA18161CF0C12CD12C7601C701B601C5
:1049A0000E9471D96D837E838F83988786169706C0
:1049B000A806B90620F48D829E82AF82B886C12CEB
:1049C000D12C76018D819E81AF81B885E98DFA8DDC
:1049D00082A793A7A4A7B5A7C80ED91EEA1EFB1EDF
:1049E000C6A6D7A6E0AAF1AA29893A894B895C898B
:1049F00023AF34AF45AF56AFFF962D853E854F852B
:104A0000588920833183428353836A960FB6F89482
:104A1000DEBF0FBECDBFDF91CF911F910F91FF90F1
:104A2000EF90DF90CF90BF90AF909F908F907F904E
:104A30006F905F904F90089560E070E0CB01E5CEFD
:104A400060E070E0CB0134CF60E070E0CB0198CF44
:104A50000F931F9380919E0C90919F0C891B8F70D8
:104A600009F449C090919B0C992361F0833040F484
:104A70008FEF890F29F080939B0C90E080E038C085
:104A800010929B0C80919F0C2CE4829FC0011124FA
:104A900081559B4FFC01208120FDEFCF40919B046D
:104AA00050919C0460919D0470919E04E85BFF4FBF
:104AB0000081118122813381401B510B620B730BEA
:104AC00040939B0450939C0460939D0470939E04B8
:104AD00020919F0C2F5F2F7020939C0C30919F0C86
:104AE00020919D0C321304C020919C0C20939D0CAE
:104AF0001F910F9108950E944AA0BFCF90916F001F
:104B000081E091FD02C080E0089590916F009D7F4B
:104B100090936F000895EFE6F0E0808182608083DB
:104B20000895CF92DF92EF92FF92CF93DF93C82F39
:104B30000E947E2594E0C99FE0011124FE01EF58F8
:104B4000F64FC080D180E280F38081110E948B25D6
:104B5000C156DB4FC701B6010E9401D128813981BE
:104B60004A815B810E9460D1DF91CF91FF90EF90ED
:104B7000DF90CF900895CF93DF9324E0829FC00110
:104B80001124EC01CD57D34FFC01E759F44F805568
:104B9000944FDC012D913D914D915C91608171812B
:104BA000828193810E94FED7688379838A839B8365
:104BB000DF91CF910895CF92DF92EF92FF921F93F2
:104BC000CF93DF9320913F02222309F48DC0EC01A3
:104BD0001091BD0B10FF2CC0C0904102D09042023A
:104BE000E0904302F0904402288139814A815B8140
:104BF000C701B6010E945EDA181624F4C882D98271
:104C0000EA82FB82C0904D02D0904E02E0904F02AB
:104C1000F0905002288139814A815B81C701B60139
:104C20000E94FAD087FF04C0C882D982EA82FB8240
:104C300011FF2CC0C0904502D0904602E090470280
:104C4000F09048022C813D814E815F81C701B60101
:104C50000E945EDA181624F4CC82DD82EE82FF8296
:104C6000C0905102D0905202E0905302F090540252
:104C70002C813D814E815F81C701B6010E94FAD02F
:104C800087FF04C0CC82DD82EE82FF8212FF2CC03F
:104C9000C0904902D0904A02E0904B02F0904C0242
:104CA000288539854A855B85C701B6010E945EDA91
:104CB000181624F4C886D986EA86FB86C090550269
:104CC000D0905602E0905702F0905802288539851E
:104CD0004A855B85C701B6010E94FAD087FF04C0F0
:104CE000C886D986EA86FB86DF91CF911F91FF9017
:104CF000EF90DF90CF900895CF92DF92EF92FF92E6
:104D00000F931F93CF93DF9390E0EC01CC0FDD1F47
:104D1000CC0FDD1F641709F44BC050E0DA01AA0F75
:104D2000BB1FA40FB51FA80FB91FAA0FBB1FAA0F47
:104D3000BB1FAF5AB44F70E0FB01EE0FFF1FE60F31
:104D4000F71FE80FF91FEE0FFF1FEE0FFF1FEF5ABF
:104D5000F44F20813181428153816D917D918D91FC
:104D60009C910E94FDD76B017C01C15CDD4FAC01C1
:104D70009B016A817B818C819D810E94FED76A8321
:104D80007B838C839D83A70196016E857F858889AF
:104D900099890E94FED76E877F87888B998BDF91D8
:104DA000CF911F910F91FF90EF90DF90CF900895DA
:104DB000E091F10B2E2F30E0F901EE0FFF1FE20F13
:104DC000F31FE80FF91FEE0FFF1FEE0FFF1FEF5A43
:104DD000F44FC080D180E280F380FE01E65FF14FA6
:104DE00025913591459154918E01015C1D4FC7016C
:104DF000B6010E94FED7F801628373838483958392
:104E0000FE01E250F24F2591359145915491C70131
:104E1000B6010E94FED7F80166877787808B918B59
:104E2000BECFEF920F931F93E090F10B8C0125E71B
:104E300032E041E752E06DE672E089E692E00E94DE
:104E4000EE9F1F910F91EF9008954F925F926F9296
:104E50007F928F929F92AF92BF92CF92DF92EF920A
:104E6000FF920F931F93CF93DF93CDB7DEB72C97AD
:104E70000FB6F894DEBF0FBECDBF2B013C012987D2
:104E80003A874B875C8747015801F601E080F18043
:104E90000281138120E030E0A901B701C8010E941E
:104EA000FAD081118AC0EEE1FEE085919591A5913D
:104EB000B491582F492F3A2F2B2F852F942FA32FA2
:104EC000B22F89839A83AB83BC8320E030E0A901B1
:104ED000B701C8010E94FAD0811104C0E12CF12C65
:104EE00005E013E4C701D8018D839E83AF83B887A3
:104EF000A501940160917102709172028091730218
:104F0000909174020E94FAD087FF0CC080927102C7
:104F100090927202A0927302B0927402CE01019636
:104F20000E9411274092690250926A0260926B02BD
:104F300070926C0289859A85AB85BC8580936D02E1
:104F400090936E02A0936F02B0937002CE0105960B
:104F50000E941127A5019401609171027091720263
:104F600080917302909174020E945EDA181664F4C4
:104F70008092710290927202A0927302B0927402B7
:104F8000CE0101960E9411270E94A6A02C960FB672
:104F9000F894DEBF0FBECDBFDF91CF911F910F916F
:104FA000FF90EF90DF90CF90BF90AF909F908F9049
:104FB0007F906F905F904F9008955E2D4F2D302F12
:104FC000212F7BCFCF92DF92EF92FF920F931F930F
:104FD0006B01FC01E080F18002811381E9E6F2E0DF
:104FE00024813581468157816081718182819381DD
:104FF0000E9425271F910F91FF90EF90DF90CF9097
:10500000089580E090E0A0E8B0E48093710290936E
:105010007202A0937302B09374028FE892E00E9430
:105020001127809156048130C9F1D4F4882309F105
:1050300087E892E00E94112710927102109272028A
:1050400010927302109274028FE892E00E9411276E
:10505000809156048F5F84309CF5809356040895A8
:10506000823049F1833021F780E090E0A0EFB1E495
:1050700019C080E090E0A0EFB1E4809369029093C2
:105080006A02A0936B02B0936C0280936D029093BE
:105090006E02A0936F02B0937002CACF80E090E0DE
:1050A000A8E3B3E48093690290936A02A0936B0231
:1050B000B0936C02BDCF80E090E0ACE1B3E4E5CF0B
:1050C00010925604089580913E02882331F041E009
:1050D00064E97AE082E00E9487718091BD0B87705D
:1050E000873079F41092560420E040E070E060E0F0
:1050F0008EEA97E30E94AE1D81E0809355040C94E4
:1051000001280895CF93DF93CDB7DEB760970FB630
:10511000F894DEBF0FBECDBFE9E6F2E08081918159
:10512000A281B38189839A83AB83BC838481958177
:10513000A681B7818D839E83AF83B8878085918553
:10514000A285B38589879A87AB87BC878485958537
:10515000A685B7858D879E87AF87B88B9E01235F15
:105160003F4FAE01475F5F4FBE016B5F7F4FCE0188
:1051700001960E947BA260960FB6F894DEBF0FBE28
:10518000CDBFDF91CF910895CF93DF93CDB7DEB739
:105190002C970FB6F894DEBF0FBECDBF0E94BA7039
:1051A0000E947E259CE0EDE7F9E0DE01119601907A
:1051B0000D929A95E1F781110E948B25CE010196FF
:1051C0000E9493812C960FB6F894DEBF0FBECDBF20
:1051D000DF91CF91089580919A04649955C08061C0
:1051E00080939A049091030180919A0490FD4EC09F
:1051F000806280939A0480919A044B9949C084609C
:1052000080939A0480916F0980FF10C08091970964
:1052100080FD0CC080919A0484FF08C080911B0B14
:10522000806180931B0B80E00E94C78180916F0991
:10523000869580FF11C080919709869580FD0CC0EE
:1052400080919A0485FF08C080911B0B8062809337
:105250001B0B81E00E94C78180916F09869586951E
:1052600080FF18C0809197098695869580FF12C0AF
:1052700080919A0482FF0EC080911B0B8460809302
:105280001B0B82E00C94C7818F7EAACF8F7DB1CF9C
:105290008B7FB6CF08950F931F938091360C81308A
:1052A00019F50E94B8750091960410919704209109
:1052B000980430919904601B710B820B930B28EEBC
:1052C00033E040E050E00E943ED76091920470913C
:1052D00093048091940490919504620F731F841F2E
:1052E000951F1F910F9108956091A50B7091A60BCA
:1052F0008091A70B9091A80BD6CF1092360C1092EC
:1053000096041092970410929804109299041092A7
:10531000A50B1092A60B1092A70B1092A80B10923F
:10532000920410929304109294041092950408959C
:105330008091360C8130F1F08230C9F40E944B2903
:1053400060939204709393048093940490939504D3
:1053500081E08093360C0E94B87560939604709338
:105360009704809398049093990481E008950E9493
:105370007D29EECF80E008958091360C81508230F7
:1053800070F41092360C0E94B8756093A50B709360
:10539000A60B8093A70B9093A80B81E0089580E063
:1053A00008950F931F93CF93DF938C01EB0190919E
:1053B000A20C2091A30C921305C00E94D81E0E943B
:1053C000E17DF5CF8091A10C34E0839FF0011124A1
:1053D000EC55F34F11830083D383C2839F5F909377
:1053E000A20C8F5F281739F08093A10CDF91CF9129
:1053F0001F910F9108951092A10CF8CF63E972E00C
:1054000084E690E00E94D1296AEB72E084E690E0A5
:105410000C94D12981110C94FE2968EB71E084E190
:1054200090E00C94D129CF930E946CA40E946F8BC2
:10543000C82F882319F080E00E94FB888C2F0E94DF
:105440000A2ACF910C94DF1D0E946F8B0C940A2ABC
:105450000E948CAB0C940A2A0E946CA40C94FE2926
:105460008093230B20E040E070E060E080E497E36D
:105470000C94AE1D0F931F93CF93DF938C016F3F5E
:1054800019F41092330C60E02091330C862F062E15
:10549000000C990B2817190609F0F4F46093330CEB
:1054A000C8010E9447D0800F911FEC01C01BD10B97
:1054B000CB32D1053CF00197FC012491207C2038AF
:1054C000D1F3F3CFDD27AE01B80188E09CE00E9464
:1054D00068D0C85FD34F1882DF91CF911F910F9191
:1054E0000895CF93DF93CDB7DEB78E819091330CC3
:1054F000891768F08093330C9E01275F3F4F4F81DF
:1055000058856AE270E088E09CE00E94C1D0DF919B
:10551000CF9108950F931F930E94B8750091860450
:10552000109187042091880430918904601B710BCD
:10553000820B930B97FD0CC086B186FB882780F900
:1055400091E08927349B8260329B8460809385043C
:105550008091850481709091850491FD8260909185
:105560008404981749F0813009F148F0823079F0CD
:10557000833091F0809384041F910F9108959130AE
:1055800079F09230B9F7909183049F5F0CC0992312
:1055900039F09330C1F3EECF9130A9F3923051F747
:1055A00090918304915090938304E4CF992359F30D
:1055B000933001F7F5CF81E080935704E7E9FCE0F1
:1055C00080E69DE091838083138212823E98469A02
:1055D0003C98449A3A98429A0E948A2A10928304EC
:1055E0000895E0915404EE2389F0E150E0935404CF
:1055F00088E0E89FF0011124EC5DFB4F628173812C
:1056000027814681808191810C94AE1D0C94DF1D11
:10561000109275040C94F12AE0915404E63010F5D0
:1056200081E08E0F809354044091330B5091340BE2
:105630006091350B7091360B90912B0B80912C0B58
:1056400028E0E29FF0011124EC5DFB4F2091B40CA7
:105650003091B50C318320834283538364837583F7
:10566000968387830895CF93DF93EC010E940C2BE0
:1056700020E040E070E060E0CE01DF91CF910C943B
:10568000AE1D9F92AF92BF92CF92DF92EF92FF92A8
:105690000F931F93CF93DF930E949772C0912B0BB0
:1056A000CC2E85E0982E9C0E9BE8A92E9BE0B92E6F
:1056B000D7E0DC1B16E01C1B05E00C1B84E0F82E79
:1056C000FC1A83E0E82EEC1A82E0D82EDC1AC11115
:1056D0002EC080912D0B882391F080913E0288236B
:1056E00009F4F9C06C2D619581E090912D0B911119
:1056F00080E024E045E35BE00E94E471ECC080912F
:105700001C0B10921C0B882341F30E94F12A8091FC
:10571000430B882311F3DF91CF911F910F91FF90DD
:10572000EF90DF90CF90BF90AF909F900895C130E1
:1057300021F580912D0B813089F080913E028823E4
:1057400009F4C9C061E06C1981E090912D0B913092
:1057500009F080E023E041EA58E1CECF80911C0BB4
:1057600010921C0B882349F38DEA9CE20E94332B94
:105770008091430B882309F3CECFC23009F0CEC00D
:1057800090912D0B923071F080913E02882309F4A4
:10579000A2C081E0923009F080E020E241EC5BE0C1
:1057A0006D2DAACF80911C0B10921C0B882361F3E6
:1057B0002BEC3BE030939909209398098091430B9F
:1057C000882311F3A8CF90912D0B933071F0809125
:1057D0003E02882309F47FC081E0933009F080E025
:1057E00020E245EB5BE06E2D87CF80911C0B109281
:1057F0001C0B882361F32CEB3BE030939909209339
:1058000098098091430B882311F385CF90912D0B3C
:10581000943071F080913E02882309F45CC081E0ED
:10582000943009F080E020E249EA5BE06F2D64CF1C
:1058300080911C0B10921C0B882361F320EB3BE042
:1058400030939909209398098091430B882311F391
:1058500062CF90912D0B953069F080913E028823A4
:10586000D1F181E0953009F080E020E24DE95BE084
:10587000602F42CF80911C0B10921C0B882369F380
:1058800024EA3BE030939909209398098091430BD7
:10589000882319F340CF80912D0B863019F1809128
:1058A0003E028823C1F087EE9DE19F938F938FE89E
:1058B0009BE09F938F931F9381E090912D0B9630E7
:1058C00009F080E08F930E94711F0F900F900F904E
:1058D0000F900F900F90CF5FC911F9CE88E08093A1
:1058E0002C0B19CF80911C0B10921C0B8823B9F242
:1058F0000E94E71D8091430B882389F20CCF809191
:105900001C0B10921C0B8823D9F0B0929909A0921D
:1059100098098091430B882399F0FDCEC33009F498
:1059200052CFC43009F472CFC53009F492CFC630DB
:1059300009F4B1CFC73079F690912D0B9730F9F279
:1059400080913E02882339F281E0973009F080E0AF
:1059500020E24AE75BE06D2FCFCEAF92BF92CF92AD
:10596000DF92EF92FF920F931F93CF93DF930E94EA
:105970009772C0912B0BDC2E85E0C82ECC0E14E064
:105980001C1B03E00C1B82E0F82EFC1A81E0E82EC1
:10599000EC1ABC2EB194C11152C080912D0B8823FA
:1059A000B1F180913E02882359F081E090912D0B56
:1059B000911180E024E04AE35BE06B2D0E94E471EA
:1059C000D5E0AC2EAD18DC1318C08BEF8D0F809393
:1059D000450B80912D0B8D1709F4B0C080913E02CC
:1059E000882359F081E090912D0B9D1380E023E0F6
:1059F0004FE65BE06A2D0E94E471D63009F09CC04E
:105A0000CF5FCC11C8CF87E080932C0B0DC0809165
:105A10001C0B10921C0B882321F20E94F12A80910A
:105A2000430B882309F4BDCFDF91CF911F910F91D4
:105A3000FF90EF90DF90CF90BF90AF900895C1306E
:105A400019F580912D0B813081F080913E028823E1
:105A500009F4B6CF81E090912D0B913009F080E0F0
:105A600023E042EC58E16E2DA9CF80911C0B1092DF
:105A70001C0B882351F38CE99FE10E94332B80910A
:105A8000430B882311F3D0CFC23009F068C0809156
:105A90002D0B823081F080913E02882309F490CF53
:105AA00081E090912D0B923009F080E023E04BEBE8
:105AB00058E16F2D83CF80911C0B10921C0B882313
:105AC00051F387E99FE10E94332B8091430B882398
:105AD00011F3AACF80912D0B833081F080913E028B
