:100000000C94B7150C94E8150C94E8150C94E815AD
:100010000C94E8150C94E8150C94E8150C94E8156C
:100020000C94E8150C94E8150C94E8150C94E8155C
:100030000C94E8150C94E8150C94E8150C94E8154C
:100040000C94E8150C94C1920C94E8150C94E815E6
:100050000C94E8150C94E8150C9467820C94077EB8
:100060000C94E8150C9428700C941E700C94E815F0
:100070000C94E8150C94E8150C94E8150C94E8150C
:100080000C94E8150C94E8150C94E8150C94E815FC
:100090000C94E8150C94E8150C94E8150C94E815EC
:1000A0000C94E8150C94E8150C94E8150C94E815DC
:1000B0000C94E8150C94E8150C94E8150C94E815CC
:1000C0000C94E8150C94E8150C94E8150C94E815BC
:1000D0000C94E8150C94E8150C94E8150C94E815AC
:1000E0000C94E815084AD73B3BCE016E84BCBFFD9B
:1000F000C12F3D6C74319ABD56833DDA3D00C77FF8
:1001000011BED9E4BB4C3E916BAAAABE0000008090
:100110003F05A84CCDB2D44EB93836A9020C50B91F
:10012000918688083CA6AAAA2ABE000000803F0744
:10013000634236B79BD8A71A39685618AEBAAB5582
:100140008C1D3CB7CC5763BD6DEDFD753EF6177247
:1001500031BF000000803F08000000BE9224491219
:100160003EABAAAA2ABECDCCCC4C3E00000080BE3D
:10017000ABAAAAAA3E00000000BF000000803F001A
:1001800000000000084178D3BB4387D1133D190E0E
:100190003CC3BD4282AD2B3E68EC8276BED98FE176
:1001A000A93E4C80EFFFBE01C4FF7F3F000000006E
:1001B00000000C94E3850C9478190C94C8660C9498
:1001C000F71F0C946A190C94D5410C9401200C94DF
:1001D00057190C94D1190C9426240C9452700C9439
:1001E000C3180C941B230C94E31F0C94AB2D0C949C
:1001F00098770C94FB850C94A4660C941A3F0C948D
:10020000232B0C94D0710C94FD190C94EA150C94CA
:10021000F46A0C94A3190C94CE840C948A190C944F
:100220001A1F0C94F7180C94954C0C94FF400C94E6
:10023000654E0C94ED1F0C94B3770C946ECE0C9419
:10024000DF1F0C94F4380C94B51E0C94B1410C943F
:1002500090370C9422370C94DC660C94BB770C948A
:10026000D17D0C94E4190C9406200C94E6660C9451
:100270000B1E0C94F6850C94811A0C94B81D0C94EA
:10028000E71F0C94CC520C94D2770C94C9410C9477
:100290005E1C0C94D2660C94FC1F0C94AB410C9425
:1002A000581B0C9495660C94B7410C94F21F0C9457
:1002B000B9220C94163F0C9416190C9420240C941B
:1002C00022240C94EA770C94A0460C94EE770C94BC
:1002D000081E0C9404410C946A560C94CF410C9463
:1002E00087280C9425280C94C4770C94691E0C94D0
:1002F000C0660C94CB850C947D700C94AF770C94F5
:1003000070CE0C94CE770C94F5660C9427670C9401
:1003100009670C9424240C940E2A0C94E7440C9442
:10032000471E0C94C8770C940A190C949D770C9472
:1003300013670C94A31B0C94062A0C94F26A0C9479
:100340001B1F0C94B04A0C94A91E0C94AF370C944C
:10035000DE840C943F1E0C94E0770C94A31E0C9446
:100360008F180C9432190C94BF850C9492220C9423
:10037000611E0C94FF660C94A5410C94FF1D0C9417
:10038000F06A0C9490660C94EA2A0C9406540C942F
:10039000DC770C94DB410C94D6770C94B8660C9403
:1003A000E4770C948F2C0C9453700C94DE850C9491
:1003B000FA400C949A1B0C941D670C942F1A0C9401
:1003C000D7480C940A2A0C94BE770C949A660C9425
:1003D000BD410C949F420C94C3410C94314A0C943F
:1003E000F66A0C94161A0C941F190C94AE660C94B1
:1003F0003E190C94B7770C948A2E0C94BE190C9469
:10040000AF1E0C9471370C949D510C94F5294E41FC
:100410004E494E495459494E46CDCCCC3D0AD7237E
:100420003C17B7D13877CC2B329595E6241FB14FC6
:100430000A000020410000C84200401C4620BCBE0B
:100440004CCA1B0E5AAEC59D7400407A10F35A0078
:10045000A0724E18090010A5D4E80000E8764817ED
:100460000000E40B54020000CA9A3B000000E1F5D2
:1004700005000080969800000040420F000000A098
:100480008601000000102700000000E803000000C3
:10049000006400000000000A0000000000010000ED
:1004A0000000002C76D888DC674F0823DFC1DFAE60
:1004B00059E1B1B796E5E3E453C63AE65199769629
:1004C000E8E6C28426EB898C9B62ED407C6FFCEFF2
:1004D000BC9C9F40F2BAA56FA5F490055A2AF75C20
:1004E000936B6CF9676DC11BFCE0E40D47FEF520D2
:1004F000E6B500D0ED902E0300943577050080849A
:100500001E080000204E0A000000C80C33333333AD
:100510000F986E12831141EF8D2114893BE6551619
:10052000CFFEE6DB18D1844B381BF77C1D901DA451
:10053000BBE424203284725E228100C9F124ECA144
:10054000E53D2741425300504C41004572726F72A5
:100550002077726974696E6720746F204545505228
:100560004F4D210A004D343130004D313132004DB4
:100570003130380053544F505045442E20005072B3
:10058000696E7465722073746F7070656420647531
:100590006520746F206572726F72732E20466978C1
:1005A00020746865206572726F7220616E642075B8
:1005B0007365204D39393920746F20726573746109
:1005C00072742E202854656D706572617475726541
:1005D0002069732072657365742E205365742069D9
:1005E00074206166746572207265737461727469D7
:1005F0006E67290A004E6F20436865636B73756DE3
:100600002077697468206C696E65206E756D62650F
:10061000722C204C617374204C696E653A20006323
:100620006865636B73756D206D69736D6174636864
:100630002C204C617374204C696E653A20004C6923
:100640006E65204E756D626572206973206E6F74E1
:10065000204C617374204C696E65204E756D626527
:10066000722B312C204C617374204C696E653A20DA
:10067000004D313130002121204B494C4C20636129
:1006800075736564206279204B494C4C2062757407
:10069000746F6E2F70696E0A002121204B494C4CFB
:1006A0002063617573656420627920746F6F206DBB
:1006B00075636820696E6163746976652074696D1D
:1006C00065202D2063757272656E7420636F6D6D89
:1006D000616E643A2000627573793A2070617573B7
:1006E000656420666F7220696E7075740A006275A9
:1006F00073793A2070617573656420666F72207536
:100700007365720A00627573793A2070726F63655F
:100710007373696E670A00506C656173652052657A
:10072000736574005052494E5445522048414C5410
:1007300045440025533A202553004B494C4C454431
:100740002E20005072696E7465722068616C746549
:10075000642E206B696C6C28292063616C6C656465
:10076000210A006563686F3A004572726F723A0041
:1007700020496E76616C6964206578747275646571
:100780007220004361703A00526573656E643A20CE
:10079000004525632025530023646566696E652046
:1007A00044454641554C545F004B6420004B692042
:1007B000004B702000504944204175746F74756E71
:1007C000652066696E6973686564212050757420C0
:1007D000746865206C617374204B702C204B692009
:1007E000616E64204B6420636F6E7374616E74730A
:1007F0002066726F6D2062656C6F7720696E746F12
:1008000020436F6E66696775726174696F6E2E68DA
:100810000A00504944204175746F74756E652066F6
:1008200061696C6564212074696D656F75740A0077
:10083000504944204175746F74756E652066616916
:100840006C6564212054656D7065726174757265A4
:1008500020746F6F20686967680A00204B643A2033
:1008600000204B693A2000204B703A20000A2043B8
:100870006C617373696320504944200A000A204E5A
:100880006F206F76657273686F6F740A00205475FD
:100890003A2000204B753A2000206D61783A200004
:1008A000206D696E3A200020643A20002062696160
:1008B000733A2000504944204175746F74756E6519
:1008C0002073746172740A00504944204175746F3A
:1008D00074756E6500504944204175746F74756E6F
:1008E00065206661696C65642120426164206578D9
:1008F000747275646572206E756D6265720A00456A
:1009000072723A207574663820666F6E74206E6F4E
:100910007420696E697469616C697A65642E00453A
:100920006E636C6F737572650046696C2E20446946
:10093000612E202A0046696C2E204469612E0045F4
:1009400020696E206D6DC2B300416476616E63658F
:10095000204B202A002008204661637400200820D4
:100960004D6178002008204D696E004F6666004F8B
:100970006E004175746F74656D70005654726176C7
:10098000204D696E00566D696E00566D6178204588
:1009900000566D6178205A00566D617820590056D6
:1009A0006D6178205800416D6178204500416D618E
:1009B00078205A00416D6178205900416D6178209E
:1009C0005800412D54726176656C00412D5265745A
:1009D0007261637400416363656C004520737465E4
:1009E00070732F6D6D005A2053746570732F6D6D89
:1009F00000592053746570732F6D6D005820537427
:100A00006570732F6D6D00416476616E636564205F
:100A100053657474696E6773003F0043616E63656C
:100A20006C00496E6974004D34323800496E697447
:100A300069616C697A6520454550524F4D004669A1
:100A40006C616D656E740054656D7065726174756E
:100A50007265004A756E6374696F6E204465760036
:100A6000416363656C65726174696F6E0056656C95
:100A70006F636974790053657420486F6D65204F0A
:100A800066667365747300436F6E6669677572613D
:100A900074696F6E004E65787420436F726E657274
:100AA00000446F6E65004E65787400486F6D696E26
:100AB000672058595A005A20526169736500326E96
:100AC00064204E6F7A7A6C65205A00326E64204E34
:100AD0006F7A7A6C65205900326E64204E6F7A7A94
:100AE0006C652058004E6F7A7A6C650046616E2006
:100AF000537065656400526573746F726520446558
:100B00006661756C7473004C6F6164205365747416
:100B1000696E67730053746F7265205365747469EE
:100B20006E67730050726568656174202420436F9E
:100B30006E6600546F6F6C204368616E6765005489
:100B40006F6F6C204F666673657473004D61696EDC
:100B5000004D6F74696F6E0054756E6500496E6666
:100B60006F2053637265656E00486F74656E642014
:100B7000746F6F20636F6C64004261636B0050722E
:100B80006F63656564004578747275646572202AC8
:100B90000044697361626C6520537465707065729E
:100BA00073004D3834004C6576656C20436F726E6F
:100BB00065727300486F6D65205A004732385A00DD
:100BC000486F6D652059004732385900486F6D6590
:100BD00020580047323858004175746F20486F6DB7
:100BE00065004732380050726568656174202420C2
:100BF000416C6C0050726568656174202420456EFC
:100C000064207E005072656865617420242042650E
:100C10006400507265686561742024207E00436F13
:100C20006F6C646F776E0050726568656174202424
:100C3000004E6F7A7A6C65207E00466C6F77207E5E
:100C400000466C6F770020202020202020004545A2
:100C500050524F4D2056657273696F6E2045727207
:100C60006F7200454550524F4D20496E64657820A3
:100C70004572726F7200454550524F4D20435243AA
:100C8000204572726F720049676E6F7265006F70F7
:100C9000656E00545249474745524544007A5F6D9E
:100CA000696E00795F6D617800785F6D61780052E0
:100CB00065706F7274696E6720656E6473746F70AF
:100CC000207374617475730A00486F6D696E6720D4
:100CD0004661696C6564005761726E696E673A209F
:100CE000486F6D696E672042756D70204469766942
:100CF000736F72203C20310A001FE0201023102463
:100D00009010A011202210241037B0084004800356
:100D1000001FE02010211023101520112021102188
:100D20001031300840048003001FE03FF03CF03BEE
:100D3000701F601EE03DF03BF038700FC00780036D
:100D4000001FE03FF03EF03CF01AE01EE03EF03EB7
:100D5000F03EF00FC00780030000002100240027B0
:100D6000002A002D003000330001010000040107BB
:100D7000010A0147054305110DF90C410D290D3FED
:100D8000FFF038007030FC3020FC1020781020304C
:100D9000102C00D02E31D02F7BD02F7BD02E31D0F5
:100DA0002C00D020301020781020FC1030FC30387F
:100DB00000703FFFF03FFFF038007031863023872E
:100DC000102787902F87D02F03D020301020781045
:100DD0002078102030102F03D02F87D02787902322
:100DE00087103186303800703FFFF01FFFF81FFF7B
:100DF000F804104002082002082004104008208057
:100E00001041001041000820800410400000001F25
:100E1000FFF81FFFF800000D430000BA4200003E3B
:100E2000430000D6C20000BAC200000000000070FB
:100E30004100007041000080400202040000A04018
:100E40000000A040000000400000784300003A434A
:100E500000003E43000C0F00FE07022503BB017F8C
:100E6000FE08FE08FE05080806000040F0C8888855
:100E7000987810050808060000C0F88888888888D7
:100E8000F80505050600012030F8302005080806A1
:100E900000002070F820202020E00509090600FF4E
:100EA0002070A8A8B888887020070505070001D819
:100EB0006C366CD80509090600FFF8A88888888870
:100EC00088A8F8050A0A0600FE205050505088A84D
:100ED000A8887003030306000340A040FFFFFFFF44
:100EE000FFFFFFFFFFFFFFFFFFFFFFFFFFFFFFFF12
:100EF000FFFF0000000605FF0107070602008080D3
:100F00008080800080030303060105A0A0A00506E1
:100F10000606000050F85050F8500509090600FF79
:100F20002070A8A07028A87020050707060000C838
:100F3000C8102040989805070706000040A0A04070
:100F4000A890680103030602058080800309090652
:100F500001FF2040408080804040200309090601B5
:100F6000FF80404020202040408005070706000009
:100F700020A8702070A8200505050600012020F893
:100F800020200203030601FFC04080050101060086
:100F900003F8020202060100C0C0050707060000B0
:100FA0000810102040408005070706000070889850
:100FB000A8C8887003070706010040C040404040B1
:100FC000E0050707060000708808102040F80507B4
:100FD00007060000F80810300888700507070600AB
:100FE0000010305090F81010050707060000F88038
:100FF000F008088870050707060000304080F08878
:101000008870050707060000F8081010202020054A
:101010000707060000708888708888700507070633
:10102000000070888878081060020505060100C07D
:10103000C000C0C00206060601FFC0C000C040805C
:10104000030505060101204080402005030306003A
:1010500002F800F8030505060101804020408005E4
:1010600007070600007088102020002005070706EB
:1010700000007088B8A8B8807005070706000070E7
:101080008888F8888888050707060000F0484870B7
:101090004848F00507070600007088808080887047
:1010A000050707060000F04848484848F0050707CC
:1010B000060000F88080F08080F805070706000031
:1010C000F88080F080808005070706000070888027
:1010D00080988870050707060000888888F8888847
:1010E00088030707060100E04040404040E0050754
:1010F0000706000038101010109060050707060062
:10110000008890A0C0A09088050707060000808096
:1011100080808080F805070706000088D8A88888A6
:1011200088880507070600008888C8A89888880569
:1011300007070600007088888888887005070706FA
:101140000000F08888F080808005070706000070A6
:10115000888888A89068050707060000F08888F04E
:10116000A0908805070706000070888070088870C6
:10117000050707060000F82020202020200507078B
:1011800006000088888888888870050707060000A0
:1011900088888888505020050707060000888888BE
:1011A00088A8A850050707060000888850205088A6
:1011B00088050707060000888850202020200507A2
:1011C00007060000F80810204080F803090906010E
:1011D000FFE080808080808080E0050707060000B7
:1011E000804040201010080309090601FFE020207C
:1011F0002020202020E0050303060005205088055C
:1012000001010600FEF803030306010580402005E6
:1012100005050600007008788878050707060000B5
:101220008080F0888888F0050505060000708080C1
:101230008870050707060000080878888888780500
:1012400005050600007088F080700507070600009D
:10125000304840E04040400507070600FE7088889F
:10126000887808700507070600008080F088888865
:10127000880307070601004000C0404040E0040921
:10128000090601FE100030101010109060050707CD
:1012900006000080808890E0908803070706010020
:1012A000C04040404040E0050505060000D0A8A829
:1012B000A8A8050505060000B0C8888888050505AA
:1012C00006000070888888700507070600FEF08811
:1012D0008888F080800507070600FE78888888786F
:1012E0000808050505060000B0C8808080050505D2
:1012F00006000078807008F005070706000020202F
:10130000F8202020180505050600008888889868C0
:10131000050505060000888888502005050506009B
:10132000008888A8A85005050506000088502050B0
:10133000880507070600FE8888885020408005053C
:1013400005060000F8102040F80309090601FF20F7
:1013500040404080404040200109090602FF808053
:10136000808080808080800309090601FF804040E2
:1013700040204040408005030306000248A890FF3B
:1013800020573A00434F4D4D554E49434154494F24
:101390004E0044525952554E004552524F5253003E
:1013A000494E464F004543484F005072696E7420C5
:1013B0005061757365640053657474696E6773205A
:1013C00053746F726564002062797465733B2063A7
:1013D0007263200053657474696E67732053746F71
:1013E000726564202800454550524F4D2064617459
:1013F0006173697A65206572726F722E0A002073BC
:10140000746F7265642073657474696E677320729B
:101410006574726965766564202800202863616CB4
:1014200063756C6174656429210A0020213D2000E8
:10143000454550524F4D20435243206D69736D61B5
:10144000746368202D202873746F726564292000EE
:101450002053697A653A2000496E6465783A200025
:1014600044494749504F5453204C6F616465640AA6
:101470000044494749504F5453204C6F6164696E92
:10148000670A00204D61726C696E3D563832290A38
:1014900000454550524F4D2076657273696F6E203E
:1014A0006D69736D617463682028454550524F4DD6
:1014B0003D0048617264636F6465642044656661E1
:1014C000756C742053657474696E6773204C6F611A
:1014D0006465640A003B2000546F6F6C2D63686183
:1014E0006E67696E673A0020204D39303020540015
:1014F0004C696E65617220416476616E63653A0085
:1015000020440020490020204D333031205000502D
:1015100049442073657474696E67733A002046000D
:1015200020480020204D3134352053004D61746532
:101530007269616C20686561747570207061726198
:101540006D65746572733A0020204D323138205435
:101550000020204D323036205800486F6D65206FD6
:1015600066667365743A00204A0020204D3230359B
:10157000204200416476616E6365643A20423C6DAE
:10158000696E5F7365676D656E745F74696D655FC5
:1015900075733E20533C6D696E5F6665656472616C
:1015A00074653E20543C6D696E5F74726176656C43
:1015B0005F66656564726174653E204A3C6A756E5B
:1015C000635F6465763E0020204D32303420500049
:1015D000416363656C65726174696F6E2028756E16
:1015E0006974732F7332293A20503C7072696E749B
:1015F0005F616363656C3E20523C72657472616327
:10160000745F616363656C3E20543C7472617665FF
:101610006C5F616363656C3E0020204D3230312089
:1016200058004D6178696D756D20416363656C6527
:10163000726174696F6E2028756E6974732F7332CE
:10164000293A0020204D3230332058004D6178690E
:101650006D756D20666565647261746573202875AB
:101660006E6974732F73293A005374657073207018
:10167000657220756E69743A0020204D323030203A
:10168000530020204D3230302054002044697361D3
:10169000626C65640A0046696C616D656E742073E6
:1016A000657474696E67733A0020204D31343920B7
:1016B00043203B20556E69747320696E2043656C2E
:1016C000736975730A0020286D6D29002020473248
:1016D00031202020203B20556E69747320696E20D4
:1016E0006D6D0020436F756E7420583A00453200CE
:1016F000453100626564002C2073797374656D2038
:1017000073746F7070656421204865617465725FE1
:1017100049443A200048656174696E6720466169F2
:101720006C65640048656174696E67206661696C08
:101730006564004572723A204D415854454D500041
:101740004D415854454D5020747269676765726504
:1017500064004572723A204D494E54454D50004D3B
:10176000494E54454D5020747269676765726564CF
:1017700000202F002040002042403A0020403A0044
:101780004163746976652045787472756465723A50
:10179000200068747470733A2F2F6D61726C696EDB
:1017A00066772E6F726700322E302E372E32002071
:1017B00020506C616E6E6572427566666572427924
:1017C0007465733A20002046726565204D656D6F23
:1017D00072793A2000436F6D70696C65643A204DF0
:1017E000617220333020323032310A00204C617374
:1017F0007420557064617465643A20323032302D43
:1018000031302D3135207C20417574686F723A205B
:10181000286E6F6E652C2064656661756C7420633C
:101820006F6E666967290A00322E302E372E320A13
:10183000004D61726C696E0020536F66747761723F
:10184000652052657365740A00205761746368648B
:101850006F672052657365740A002042726F776E5D
:10186000206F75742052657365740A002045787482
:1018700065726E616C2052657365740A00506F77F3
:10188000657255700A00456E6473746F707300253D
:101890005320256320256320256320256300656E82
:1018A0006473746F7073206869743A20004D6F76AA
:1018B000652025736D6D004D6F766520302E316D7E
:1018C0006D004D6F766520316D6D004D6F76652032
:1018D00031306D6D004D6F7665204178697300453C
:1018E00078747275646572004D6F7665205A004D8C
:1018F0006F76652059004D6F76652058006F6B003C
:101900002028302D313029002076616C7565206FDC
:101910007574206F662072616E6765004164766140
:101920006E6365204B00202820004475706C69634D
:101930006174696F6E206D6F64653A200045455093
:10194000524F4D204F4B0A00486F6D65202573257F
:10195000732573204669727374004F6666736574ED
:1019600073204170706C696564004572723A20544E
:101970006F6F206661722100546F6F206661722064
:1019800066726F6D207265666572656E6365207044
:101990006F696E740A006469730043290A0061620A
:1019A0006C656420286D696E2074656D702000433D
:1019B0006F6C6420657874727564657320617265FC
:1019C000200020643A0020693A0020703A00496EF5
:1019D00076616C69642065787472756465720A005A
:1019E00020466C6F773A200046523A00486F746583
:1019F0006E64206F6666736574733A0020204D61D3
:101A0000783A200020204D696E3A2000536F6674AA
:101A100020656E6473746F70733A20003F4A206FC4
:101A20007574206F662072616E67652028302E30D5
:101A30003120746F20302E33290A00205200416378
:101A400063656C65726174696F6E3A2050004D3148
:101A5000343520533C696E6465783E206F75742080
:101A60006F662072616E67652028302D31290A006B
:101A70002F2F20004348414D4245525F54454D5061
:101A800045524154555245004241425953544550E4
:101A900050494E470041524353004D4F54494F4E19
:101AA0005F4D4F44455300544845524D414C5F50A3
:101AB000524F54454354494F4E004C4F4E475F469A
:101AC000494C454E414D45004155544F5245504FAC
:101AD00052545F53445F535441545553005344434D
:101AE0004152440050524F4D50545F535550504F47
:101AF000525400454D455247454E43595F5041525F
:101B000053455200434153455F4C494748545F4257
:101B100052494748544E45535300544F47474C454C
:101B20005F4C494748545300534F46545741524520
:101B30005F504F574552004255494C445F50455203
:101B400043454E54004C4556454C494E475F444131
:101B50005441005A5F50524F42450052554E4F5526
:101B600054004155544F4C4556454C005052494E37
:101B7000545F4A4F420050524F4752455353004121
:101B800055544F5245504F52545F54454D50005696
:101B90004F4C554D45545249430042494E415259CC
:101BA0005F46494C455F5452414E5346455200539F
:101BB000455249414C5F584F4E5F584F464600468C
:101BC00049524D574152455F4E414D453A4D617224
:101BD0006C696E20322E302E372E3220284D6172E5
:101BE00020333020323032312031363A30333A31FE
:101BF000362920534F555243455F434F44455F5567
:101C0000524C3A68747470733A2F2F676974687510
:101C1000622E636F6D2F4D61726C696E4669726DD5
:101C2000776172652F4D61726C696E2050524F540E
:101C30004F434F4C5F56455253494F4E3A312E3029
:101C4000204D414348494E455F545950453A424919
:101C5000424F32546F75636858204558545255446A
:101C600045525F434F554E543A3220555549443AF8
:101C700063656465326132662D343161322D3437EB
:101C800034382D396231322D63353563363266335F
:101C9000363766660A004249424F32546F756368B0
:101CA00058204F46462E0042656420436F6F6C6992
:101CB0006E672E2E2E004265642048656174696E41
:101CC000672E2E2E004D3131332053004D313132ED
:101CD0002053687574646F776E006F6666004445C4
:101CE0004255473A002569792025696420256968AD
:101CF0002025696D20256973005072696E74207407
:101D0000696D653A20004E6F204D6F76652E004359
:101D10006C69636B20746F20526573756D652E2E30
:101D20002E00536C6565702E2E2E0047322F4733E0
:101D30002062616420706172616D65746572730AFE
:101D40000020746F6F206C6F6E67206578747275F9
:101D500073696F6E2070726576656E7465640A00D3
:101D600020636F6C6420657874727573696F6E2080
:101D700070726576656E7465640A00220A00556E9D
:101D80006B6E6F776E20636F6D6D616E643A2022AB
:101D9000004249424F32546F756368582052656162
:101DA00064792E005072696E74696E672E2E2E0053
:101DB000204D393220580020453A00205A3A002060
:101DC000593A00544845524D414C2052554E4157C6
:101DD000415900546865726D616C2052756E61776F
:101DE000617900DB0FC93F45BCDA3F8FB30240FC8D
:101DF000F0274056946140FE4B9B4084A5D840E0BC
:101E0000231841346A5641E859974164DBD5416E45
:101E1000271742B4B75542CE1A9742C8AED542B53D
:101E2000885A43D40684BFA65FA7BF7443E0BF109F
:101E3000B11AC01C2C58C0E8F697C0B849D6C04E9D
:101E40004E17C124D355C1802497C1A0B5D5C11266
:101E50001A17C244AE55C2781797C26CACD5C26788
:101E6000885AC30000AF430000AF43000020410088
:101E700000C8410000C8420000C8420000C8433307
:101E800033BB424C0400004C0400002C01000088CD
:101E900013000024F4D43050C38E20C2A240178215
:101EA0008B7011127A910D816CD90AA861E108C773
:101EB000586607615143061E4B5D05C145A7041ACC
:101EC000411104093D9803713931034036DB026545
:101ED000339102D4305402802E1D02632CEE017522
:101EE0002AC501B028A001102781018F2564012B8C
:101EF000244B01E0223401AC211F018D200D018013
:101F00001FFC00841EED00971DDF00B81CD200E608
:101F10001BC600201BBC00641AB200B219A8000A3C
:101F200019A0006A189900D117910040178B00B5CD
:101F300016840031167E00B31579003A157300C778
:101F4000146F0058146A00EE1366008813630025AE
:101F5000135E00C7125B006C12570015125400C1CB
:101F600011510070114F0021114B00D61049008D06
:101F70001047004610440002104200C00F4000808D
:101F80000F3E00420F3C00060F3B00CB0E38009383
:101F90000E37005C0E3500270E3400F30D3200C101
:101FA0000D3100900D3000600D2E00320D2D00051A
:101FB0000D2C00D90C2B00AE0C2900850C29005CDF
:101FC0000C2700350C27000E0C2600E80B2400C45B
:101FD0000B2400A00B23007D0B23005A0B2100399A
:101FE0000B2100180B2000F80A1F00D90A1E00BBA5
:101FF0000A1E009D0A1D00800A1D00630A1C00477E
:102000000A1B002C0A1B00110A1A00F7091A00DD2E
:10201000091900C4091900AB091900920917007BBE
:10202000091800630917004C09160036091600202C
:102030000916000A091500F5081500E0081400CC7F
:10204000081400B8081400A4081400900813007DB8
:102050000812006B081300580812004608120034DA
:10206000081100230811001208110001081100F0E6
:10207000071000E0071000D0071000C0071000B0E4
:10208000070F00A107100091070E0083070F0074CF
:10209000070F0065070E0057070E0049070E003BAB
:1020A000070D002E070E0020070D0013070D000678
:1020B000070D00F9060C00ED060D00E0060C00D43B
:1020C000060C00C8060C00BC060C00B0060C00A4F0
:1020D000060B0099060C008D060B0082060B00779C
:1020E000060B006C060B0061060A0057060B004C3D
:1020F000060A0042060A0038060A002E060A0024D4
:10210000060A001A060A001006090007060A00FD62
:10211000050900F4050900EB050900E2050900D9ED
:10212000050900D0050900C7050900BE050900B56D
:10213000050800AD050800A50509009C05080094E8
:102140000508008C050800840508007C050800745B
:102150000508006C050700650508005D05070056C9
:102160000508004E05070047050700400508003830
:10217000050700310507002A050700230507001C95
:10218000050600160507000F0507000805060002F2
:10219000050700FB040600F5040700EE040600E84E
:1021A000040600E2040700DB040600D5040600CFA5
:1021B000040600C9040600C3040600BD040600B7F7
:1021C000040600B1040500AC040600A6040600A045
:1021D0000405009B04060095040500900406008A8F
:1021E00004050085040500800406007A04050075D6
:1021F000040500700405006B040500660405006119
:102200000405005C04050057040500520405004D58
:1022100004050048040500430405003E0404003A98
:1022200004050035040500300404002C04050027D3
:10223000040400230405001E0404001A040400160C
:10224000040500110404000D040400090405000441
:1022500004040000040400FC030400F8030400F478
:10226000030400F0030400EC030400E8030400E4AA
:10227000030400E0030400DC030400D8030400D4DA
:10228000030400D0030400CC030400C8030300C50A
:1022900003030024F404D9201BC40C5C0E9804C46E
:1022A000095F0265077101F405F900FB04B30048FA
:1022B000048700C10369005803550003034500BEAD
:1022C000023A008402310053022A00290225000448
:1022D000022000E4011C00C8011900AF011700989A
:1022E00001140084011300710110006101100051FC
:1022F000010E0043010D0036010B002B010B0020E5
:10230000010B00150109000C01090003010800FB85
:10231000000800F3000800EB000700E4000600DE00
:10232000000600D8000600D2000600CC000500C759
:10233000000500C2000500BD000400B9000400B59E
:10234000000400B1000400AD000400A9000400A5D1
:10235000000300A20003009F0004009B00030098FC
:102360000003009500020093000300900003008D1D
:102370000002008B00030088000200860002008437
:10238000000300810002007F0002007D0002007B4C
:10239000000200790002007700010076000200745C
:1023A00000020072000100710002006F0002006D67
:1023B0000001006C0002006A000100690002006771
:1023C0000001006600010065000100640002006277
:1023D00000010061000100600001005F0002005D7B
:1023E0000001005C0001005B0001005A000100597F
:1023F000000100580001005700010056000100557F
:10240000000100540001005300000053000100527D
:1024100000010051000100500001004F0001004E7A
:102420000000004E0001004D0001004C0001004B77
:102430000000004B0001004A000100490001004873
:10244000000000480001004700010046000000466F
:102450000001004500000045000100440001004368
:102460000000004300010042000000420001004162
:1024700000000041000100400001003F0000003F5B
:102480000001003E0000003E0001003D0000003D54
:102490000001003C0000003C0000003C0001003B4B
:1024A0000000003B0001003A0000003A0001003942
:1024B000000000390001003800000038000000383A
:1024C0000001003700000037000100360000003630
:1024D0000000003600010035000000350000003526
:1024E000000100340000003400000034000100331B
:1024F0000000003300000033000100320000003211
:102500000000003200010031000000310000003105
:102510000001003000000030000000300001002FFA
:102520000000002F0000002F0000002F0001002EEF
:102530000000002E0000002E0001002D0000002DE4
:102540000000002D0000002D0001002C0000002CD8
:102550000000002C0000002C0001002B0000002BCC
:102560000000002B0000002B0001002A0000002AC0
:102570000000002A0000002A0001002900000029B4
:1025800000000029000000290000002900010028A7
:10259000000000280000002800000028000000289B
:1025A000000100270000002700000027000000278E
:1025B0000000002700010026000000260000002681
:1025C0000000002600000026000100250000002574
:1025D0000000002500000025000000250000002567
:1025E000000100240000002400000024000000245A
:1025F000000000240001002300000023000000234D
:10260000000000230000002300000023000000233E
:102610000001002200000022000000220000002231
:102620000000002200000022000100210000002123
:102630000000002100000021000000210000002116
:102640000000002100010020000000200000002008
:1026500000000020000000200000002000000020FA
:10266000000000200001001F0000001F0000001FEC
:102670000000001F0000001F0000001F0000001FDE
:102680000001001E0000001E0000001E0000001ED1
:10269000000000C23100001C260000F4190000D820
:1026A0000F0000EB080000C00400007502000040AD
:1026B00001000030031001D00302017004F7001084
:1026C00005ED00B005E5005006DD003008CC001037
:1026D0000ABE00F00BB300700EA700F0109D007052
:1026E000139400F0158C00D0178700B01982009069
:1026F0001B7D00301C7B00D01C7A00701D78001000
:102700001E7700B01E7500501F7400F01F720090FD
:1027100020710030216F00D0216E0070226C0010FB
:10272000236B00B023690050246800F024660090F9
:1027300025650030266400D02662007027610010F5
:10274000285F00B0285E0050295C00F0295B0090F3
:102750002A5A00302B5800D02B5700702C550010EF
:102760002D5400B02D5200502E5100F02E4F0090ED
:102770002F4D0030304C00D0304A007031480010EE
:10278000324700B032450050334300F033410090EF
:10279000343F0030353E00D0353C007036390010F3
:1027A000373700B037350050383300F038300090FC
:1027B000392D00303A2A00D03A2700703B2400100F
:1027C0003C2000503D1700F03D1100903E090000F4
:1027D0003F000001FFFFFFFFFFFFFFFFFFFFFFFFC5
:1027E000FF0FFFFFFFFFFFFFFFFFFFFFFFFFFF1ECA
:1027F0000000000000000000000007FFFF3800009C
:10280000000000000000000003FFFF700000000057
:1028100000000000000001FFFF6000000000000059
:102820000000000000FFFF6000000000000000004A
:102830000000007FFFC000000000000000007800E2
:10284000003FFFC00FC0FC00000000007818001F10
:10285000FFC03FE1FF0000000000783C000FFFC018
:102860007FF3FF8000000000783C0007FFC0FFFFFF
:10287000FFC000000000783C0003FFC1F87F87E044
:102880000000000078000001FFC1F03F03E00000FD
:10289000000078000000FFC1E01E01E01F0003E01F
:1028A000783C03F07FC1E01E01E07FC00FF8783C68
:1028B00007FC3FC1E01E01E1FFE01FFC783C0FFE7A
:1028C0001FC1E01E01E3FFF03FFE783C1FFE0FC179
:1028D000E01E01E3F3F83F3E783C3F3F07C1E01EB6
:1028E00001E7E0FC7C1F783C3E1F07C1E01E01E7CA
:1028F000C07C7C0F783C3C0F03C1E01E01E7807C6C
:10290000780F783C3C0F03C1E01E01E7803C780063
:10291000783C3C0F03C1E01E01E7803C7800783C26
:102920003C0F03C1E01E01E7803C7800783C3C0F7F
:1029300003C1E01E01E7C03C7800783C3C0F03C1B6
:10294000E01E01E3E03C78007C3C3C0F03C1E01E4C
:1029500001E3FF3FF8007FBC3C0F03C1E01E01E133
:10296000FF3FF8003FBFFC0F03C1E01E01E0FF3F47
:10297000F8001FBFFC0F03C1E01E01E07F3FF8001D
:102980000FBFFC0F0360000000000000000000000B
:1029900000000760000000000000000000000000D0
:1029A00006700000000000000000000000000E386B
:1029B0000000000000000000000000001C1E0000DD
:1029C00000000000000000000000780FFFFFFFFF84
:1029D000FFFFFFFFFFFFFFFFF001FFFFFFFFFFFF14
:1029E000FFFFFFFFFFFF801000C90210012C014014
:1029F00001220170011801B0010E01F00104015023
:102A000002FA00B002F0003003E600D003DC0090D0
:102A100004D2007005C800A006BE000008B400B0D3
:102A200009AA00D00BA000600E960060118C000077
:102A300015820020197800C01D6E00A0226400B02D
:102A4000275A00902C500000314600E0343C001022
:102A5000383200903A2800603C1E00A03D140080EF
:102A60003E0A00203F00000101FF00000D4300006E
:102A7000BA4200000000A513A01399139213841307
:102A800000002200250028002B002E003100340019
:102A900002010000050108010B01050505050705F8
:102AA00008080808020202020A0A080804040404CA
:102AB00001010101010101010303030303030303F6
:102AC000040707070C0C0C0C0C0C0C0C0202020285
:102AD00006060606060606060B0B0B0B0B0B0B0B6E
:102AE0000102102020080810204010204080020120
:102AF0000201080402010102040810204080804005
:102B00002010080402018004020180402010080403
:102B100002010804020101020408102040800102A1
:102B200004081020408000000A0B02090C0D0E085A
:102B30000703040100000000000000000000000086
:102B40000000000000000000000000000000000085
:102B50000000121110000000000000000000000042
:102B600000000000000000000000000070CE1124F2
:102B70001FBECFEFD1E2DEBFCDBF00E00CBF13E040
:102B8000A0E0B2E0EEEFF7EC01E00BBF02C007906F
:102B90000D92AC30B107D9F720E1ACE0B3E001C051
:102BA0001D92A432B207E1F715E1C7EBD5E100E0D1
:102BB00006C021970109802FFE010E943FDFC63B1E
:102BC000D10780E00807A9F70E945CCF0C94FDE3D1
:102BD0000C9400007F928F929F92AF92BF92CF92FF
:102BE000DF92EF92FF920F931F93CF93DF9370903A
:102BF0004A0CCEE0DCE09CE3C92E92E0D92E27E619
:102C0000E22E22E0F22E02E41CE0772009F45EC0FE
:102C1000F80180809180A280B38020E030E0A9019B
:102C2000C501B4010E945ED8882309F44FC020E09A
:102C300030E040E05FE3C501B4010E94C4D89B01CD
:102C4000AC010E94C4D82BED3FE049E450E40E945F
:102C5000C4D89B01AC0160E070E080E89FE30E9473
:102C60005CE04B015C0189929992A992B992F601BC
:102C7000619171916F01072E000C880B990B0E94D6
:102C800065D82AE037ED43E25CE30E94C4D8A50191
:102C900094010E94C4D8F701619371938193919339
:102CA0007F010C5F1F4FFCE0C631DF0709F0ADCF9D
:102CB000DF91CF911F910F91FF90EF90DF90CF9018
:102CC000BF90AF909F908F907F900895812C912C12
:102CD00080E8A82E8FE3B82EC6CFCF92DF92EF9276
:102CE000FF92FC01C080D180E280F38020E030E0E0
:102CF000A901C701B6010E945ED887FF68C0C7015D
:102D0000B601905820E030E040E251E40E94C4D87F
:102D100020E030E040EA50E40E9462DF20E030E052
:102D200040E251E40E945CE00E94CEE09B0160E240
:102D30002031F7E23F0730F0C90160E177E20E94FD
:102D4000F8DE605D60939404283E83E0380708F461
:102D500045C0C90168EE73E00E94F8DECB016AE06D
:102D600070E00E94F8DE805D8093950480E2243656
:102D7000310558F0C90164E670E00E94F8DECB012D
:102D80006AE070E00E94F8DE805D8093960480E245
:102D90002A30310558F0EAE0F0E0C901BF010E9495
:102DA000F8DECB01BF010E94F8DE805D80939704BE
:102DB000C9016AE070E00E94F8DE805D80939804AB
:102DC00084E994E0FF90EF90DF90CF90089520E0A9
:102DD00030E040E251E4C701B60198CF80E2C4CFB1
:102DE0008F929F92AF92BF92CF92DF92EF92FF921B
:102DF000FC01C080D180E280F38020E030E040E23E
:102E000051E4C701B6010E94C4D820E030E040E29E
:102E100051E40E94C4D84B015C0120E030E0A901DC
:102E2000C701B6010E945ED820E030E040EA50E4DD
:102E300087FF04C020E030E040EA50ECC501B40157
:102E40000E9462DF20E030E040E251E40E945CE05A
:102E50000E94CEE09B018BE237FF05C0222733277B
:102E6000261B370B8DE280939304C90168EE73E053
:102E70000E940CDFCB01EAE0F0E0BF010E940CDF12
:102E8000805D80939404C90164E670E00E940CDFC9
:102E9000CB01BF010E940CDF805D80939504C901C6
:102EA000BF010E940CDF282FCB01BF010E940CDF65
:102EB000805D809396048EE280939704205D20933A
:102EC000980483E994E0FF90EF90DF90CF90BF905B
:102ED000AF909F908F9008959C0197FF26C0EE279A
:102EE000FF27E81BF90B2D398FEF38070CF05DC079
:102EF0008DE280939504CF0164E670E00E940CDFC0
:102F0000CB012AE030E0B9010E940CDF805D8093A4
:102F10009604CF01B9010E940CDFCB01B9010E94D8
:102F20000CDF805D809397042AC0283E83E0380739
:102F3000B4F1C90168EE73E00E940CDFCB01EAE056
:102F4000F0E0BF010E940CDF805D80939504C90111
:102F500064E670E00E940CDFCB01BF010E940CDF31
:102F6000805D80939604C901BF010E940CDFCB01F4
:102F7000BF010E940CDF805D80939704F901CF01AF
:102F80006AE070E00E940CDF805D8093980485E920
:102F900094E008958DE237FDC5CF80E2C3CFF901FB
:102FA00080E2243631050CF0A4CF80E280939504B2
:102FB00080939604EA30F1056CF38DE237FF80E2EE
:102FC00080939604CF016AE070E00E940CDF605DA0
:102FD00060939704D4CF9C0197FD2DC080E22436E6
:102FE00031055CF0C90164E670E00E940CDFCB01A2
:102FF0006AE070E00E940CDF805D8093960480E2BE
:103000002A3031055CF0EAE0F0E0C901BF010E941E
:103010000CDFCB01BF010E940CDF805D8093970421
:10302000C9016AE070E00E940CDF805D8093980423
:1030300086E994E008953195219531098DE2DDCF3F
:103040009C0180E22436310558F0C90164E670E045
:103050000E94F8DECB016AE070E00E94F8DE805D3D
:103060008093960480E22A30310558F0EAE0F0E0DF
:10307000C901BF010E94F8DECB01BF010E94F8DE4A
:10308000805D80939704C9016AE070E00E94F8DED9
:10309000805D8093980486E994E0089524E6829FF9
:1030A000C001112481589F4F6FEF70E00E940CDF28
:1030B000262F81E3643609F080E28093950490E244
:1030C0002A3040F03AE0822F632F0E94DEDE0E9419
:1030D000DEDE905D90939604822F6AE00E94DEDE31
:1030E000905D9093970485E28093980485E994E03D
:1030F0000895FC01A081B1811C92A281B3818C91C1
:103100008F5F8C930280F381E02D90818CE0989FFB
:10311000800D1124EFEAFDE013AE84AF08950F9304
:103120001F93CF93DF938091020C90E0EC01CC0FC2
:10313000DD1FCC0FDD1F8E0109591D4F880F991F10
:10314000FC01E45CFD4F60817181072E000C880B4F
:10315000990B0E9465D82AE037ED43E25CE30E94B8
:10316000C4D8C25FD34F288139814A815B810E94D4
:10317000C4D8F8016083718382839383DF91CF91F8
:103180001F910F9108950F931F93CF93DF93809119
:10319000C90C90E0EC01CC0FDD1FCC0FDD1F8E01C0
:1031A00009591D4F880F991FFC01E45CFD4F608198
:1031B0007181072E000C880B990B0E9465D82AE0BC
:1031C00037ED43E25CE30E94C4D8C25FD34F28814D
:1031D00039814A815B810E94C4D8F8016083718380
:1031E00082839383DF91CF911F910F910895CF93A5
:1031F000DF93EC01CB01BA010E9465D820E030E0FA
:10320000A9010E9462DF0E94CEE079836883DF918A
:10321000CF9108950E9465D820E030E0A9010E9476
:1032200062DF0E94CEE0CB010C94EB178091020C80
:10323000811104C08091E00B8093700C0895CF93AE
:10324000DF93EC01CB01BA010E9465D820E030E0A9
:10325000A9010E9462DF0E94D5E079836883DF9133
:10326000CF9108950E9465D820E030E0A9010E9426
:1032700062DF0E94D5E0CB010C942018CF93DF933E
:10328000EC01CB01BA010E9465D829EC38EC48EC7E
:103290005EE30E945CE020E030E040E05FE30E94FB
:1032A00062DF0E94D5E06883DF91CF9108950E948C
:1032B00065D829EC38EC48EC5EE30E945CE020E045
:1032C00030E040E05FE30E9462DF0E94D5E0862F9D
:1032D0000C944E18E091020C86E0E802F0011124F3
:1032E000EF58F34F8091E00B90E09583848308952D
:1032F0008091C90C882369F080915F0C87708730BA
:1033000041F482EE9BE09093560A8093550A109206
:10331000C90C0895CF93DF93EC01CB01BA010E9451
:1033200065D820E030E040E251E40E945CE020E01B
:1033300030E0A9010E9462DF688379838A839B83DE
:10334000DF91CF910895CF93DF93EC01CB01BA01C8
:103350000E9465D82AE037ED43E25DE30E945CE01D
:1033600020E030E0A9010E9462DF0E94D5E068837E
:1033700079838A839B83DF91CF910895CF93DF93E5
:10338000EC01CB01BA010E9465D820E030E0A90130
:103390000E9462DF688379838A839B83DF91CF9168
:1033A0000895CF93DF93EC01CB01BA010E9465D859
:1033B00020E030E0A9010E9462DF688379838A837C
:1033C0009B83DF91CF910895CF93DF93EC01CB01E5
:1033D000BA010E9465D82AE037ED43E25DE30E941E
:1033E0005CE020E030E0A9010E9462DF688379831D
:1033F0008A839B83DF91CF910895CF93DF93EC0174
:10340000CB01BA010E9465D820E030E04AE754E4DD
:103410000E945CE020E030E0A9010E9462DF688346
:1034200079838A839B83DF91CF910895CF93DF9334
:10343000EC01CB01BA010E9465D820E030E048ECF5
:1034400052E40E945CE020E030E0A9010E9462DFCB
:10345000688379838A839B83DF91CF910895CF928C
:10346000DF92EF92FF9223EF34E045E35FE3609158
:103470003E0C70913F0C8091400C9091410C0E9449
:10348000C4D82AE136EF45E95EE30E945CE06B01B7
:103490007C016091100D7091110D8091120D909131
:1034A000130D0E9463D89B01AC01C701B6010E94B5
:1034B000C4D80E9460E260933A0C70933B0C8093F6
:1034C0003C0C90933D0CFF90EF90DF90CF900895CF
:1034D000CF93DF9300D01F92CDB7DEB70E94D5E027
:1034E0000E9463D869837A838B839C83CE01019683
:1034F0000E946D160F900F900F900F90DF91CF915B
:1035000008950E9465D82AE037ED43E25DE30E940A
:103510005CE020E030E0A9010E9462DF0C94681AB0
:103520008F929F92AF92BF92CF92DF92EF92FF92D3
:10353000CF936B017C0120E030E0A9010E945ED8AE
:1035400087FDAAC06DEB77E386E095E3A7019601BE
:103550000E9462DF6B017C0120E030E0A9010E9443
:103560005ED887FF9EC0C701B601905820E030E0CA
:1035700040E251E40E94C4D820E030E040E251E44F
:103580000E94C4D820E030E040EA50E40E9462DFAC
:1035900020E030E040E251E40E945CE00E94CEE096
:1035A0006B017C0180E28093920460E280E1C816A6
:1035B00087E2D806E104F1048CF0C701B60120E1EE
:1035C00037E240E050E00E9420DFCA01B9012AE062
:1035D00030E040E050E00E9420DF605D60939304A3
:1035E00060E288EEC81683E0D806E104F1048CF0AE
:1035F000C701B60128EE33E040E050E00E9420DF32
:10360000CA01B9012AE030E040E050E00E9420DF2A
:10361000605D6093940460E284E6C816D104E1041E
:10362000F1048CF0C701B60124E630E040E050E040
:103630000E9420DFCA01B9012AE030E040E050E0FA
:103640000E9420DF605D609395048AE0882E912CB3
:10365000A12CB12CC701B601A50194010E9420DF65
:10366000C62FCA01B901A50194010E9420DF605D47
:10367000609396048EE280939704C05DC093980493
:1036800082E994E0CF91FF90EF90DF90CF90BF90D0
:10369000AF909F908F9008956DEB77E386E095EB68
:1036A00055CF20E030E040E251E4C701B60162CFDF
:1036B0000E9465D820E030E040E251E40E945CE0E6
:1036C00020E030E0A9010E9462DF0C94901ACF92B2
:1036D000DF92EF92FF92CF93DF9300D01F92CDB78E
:1036E000DEB76B017C0120E030E0A9010E945ED8CA
:1036F00087FD1BC06DEB77E386E095E3A70196019C
:103700000E9462DF69837A838B839C83CE0101965A
:103710000E946D160F900F900F900F90DF91CF9138
:10372000FF90EF90DF90CF9008956DEB77E386E008
:1037300095EBE4CF0E9465D820E030E0A9010E941B
:1037400062DF0C94671B0E9465D82AE037ED43E2E4
:103750005DE30E945CE020E030E0A9010E9462DFAE
:103760000C94671B8F929F92AF92BF92CF92DF9281
:10377000EF92FF92CF936B017C0120E030E0A90132
:103780000E945ED887FD93C06DEB77E386E095E3FA
:10379000A70196010E9462DF6B017C0120E030E00E
:1037A00040E251E40E94C4D820E030E04AE754E40B
:1037B0000E94C4D84B015C0120E030E0A901C701A0
:1037C000B6010E945ED820E030E040EA50E487FF76
:1037D00004C020E030E040EA50ECC501B4010E9492
:1037E00062DF20E030E040E251E40E945CE00E94B1
:1037F000CEE06B017C01C114D104E104F10409F4B1
:103800005BC0F7FE59C0F094E094D094C094C11C02
:10381000D11CE11CF11C8DE280939304C701B60119
:1038200028EE33E040E050E00E9420DF8AE0882E5E
:10383000912CA12CB12CCA01B901A50194010E94BF
:1038400020DF605D609394048EE280939504C7014D
:10385000B60124E630E040E050E00E9420DFCA01DB
:10386000B901A50194010E9420DF605D6093960478
:10387000C701B601A50194010E9420DFC62FCA012D
:10388000B901A50194010E9420DF605D6093970457
:10389000C05DC093980483E994E0CF91FF90EF90CE
:1038A000DF90CF90BF90AF909F908F9008956DEB79
:1038B00077E386E095EB6CCF80E2AECF0E9465D8CF
:1038C00020E030E04AE754E40E945CE020E030E091
:1038D000A9010E9462DF0C94B21B8F929F92AF925B
:1038E000BF92CF92DF92EF92FF92CF936B017C0158
:1038F00020E030E0A9010E945ED887FFA3C06DEBF5
:1039000077E386E095EBA70196010E9462DF6B01E9
:103910007C0120E030E040E251E40E94C4D820E085
:1039200030E048EC52E40E94C4D84B015C0120E036
:1039300030E040E251ECC701B6010E945ED8181693
:1039400054F420E030E048EC52E4C701B6010E9494
:10395000C2E187FD8BC020E030E0A901C701B601BC
:103960000E945ED887FF73C060E070E080EA90EC50
:10397000A50194010E9462DF20E030E040E251E4C2
:103980000E945CE00E94CEE06B017C01F7FC64C009
:1039900020E137E240E050E00E9420DFCA01B90197
:1039A0002AE030E040E050E00E9420DF605D60935C
:1039B0009304C701B60128EE33E040E050E00E94D6
:1039C00020DF9AE0892E912CA12CB12CCA01B901DB
:1039D000A50194010E9420DF605D60939404C701FB
:1039E000B60124E630E040E050E00E9420DFCA014A
:1039F000B901A50194010E9420DF605D60939504E8
:103A00008EE280939604C701B601A50194010E943D
:103A100020DFC62FCA01B901A50194010E9420DF51
:103A2000605D60939704C05DC093980483E994E05F
:103A3000CF91FF90EF90DF90CF90BF90AF909F908D
:103A40008F9008956DEB77E386E095E35CCF60E0BF
:103A500070E080EA90E48CCFF094E094D094C0942D
:103A6000C11CD11CE11CF11C6DE2A1CF20E030E0B3
:103A7000A901C701B6010E945ED887FF6AC060E055
:103A800070E080EA90ECA50194010E9462DF20E0E2
:103A900030E040E251E40E945CE00E94CEE04B0145
:103AA0005C0120E030E0A901C701B6010E94C2E13B
:103AB00087FD0BC020E030E040E251E4C701B601D1
:103AC0000E945ED860E287FD13C0B7FC47C0C50105
:103AD000B40128EE33E040E050E00E9420DFCA014C
:103AE000B9012AE030E040E050E00E9420DF605D54
:103AF00060939404C501B40124E630E040E050E056
:103B00000E9420DF8AE0C82ED12CE12CF12CCA01C2
:103B1000B901A70196010E9420DF605D60939504C2
:103B20008EE280939604C501B401A70196010E941C
:103B300020DFC62FCA01B901A70196010E9420DF2C
:103B4000605D60939704C05DC093980484E994E03D
:103B50006FCF60E070E080EA90E495CFB094A094DD
:103B600090948094811C911CA11CB11C6DE2C0CF6B
:103B70000E9465D820E030E048EC52E40E945CE00E
:103B800020E030E0A9010E9462DF0C946D1CCF920E
:103B9000DF92EF92FF926B017C0120E030E0A901FF
:103BA0000E945ED887FD26C06DEB77E386E095E343
:103BB000A70196010E9462DF6B017C0120E030E0EA
:103BC000A9010E945ED820E030E040E05FE387FF7B
:103BD00004C020E030E040E05FEBC701B6010E9486
:103BE00062DF0E94CEE0CB01FF90EF90DF90CF909C
:103BF0000C94EB176DEB77E386E095EBD9CF0E9441
:103C000065D820E030E0A9010E9462DF0C94C71D56
:103C1000FC0184910895FC01808108950F931F9306
:103C2000522F2091AD0D3091AE0D2817390721F19B
:103C30009093AE0D8093AD0D8B0130E020E00093AA
:103C4000F00B1093F10B2093F20B3093F30B409396
:103C5000E80B5093E90B845F984321F410927D04A4
:103C600010925C0482E08093460281E08093000C15
:103C70001092850410925D041F910F91089520E029
:103C800040E070E060E084EF98E30C940E1E81E069
:103C900080937D0480915F0C8770873051F0109283
:103CA0005F0C1092950C82EE9BE09093560A8093E5
:103CB000550A20E040E070E060E087E898E20C946C
:103CC0000E1E20E040E070E060E081E090E20C94A5
:103CD0000E1E80919A0C81111FC0E091C90C87E1E2
:103CE000E89FF0011124E556F34F648175818681C8
:103CF00097810E94CEE020916F0230917002215096
:103D000031096217730744F420E040E070E060E09E
:103D100081E797E30C940E1E0C94611E21E0209322
:103D20007D046093000270930102809302029093DD
:103D3000030220E040E070E060E08091DE0B9091B3
:103D4000DF0B0C940E1E6DEC7CEC8CEC9CE30C9465
:103D50008E1E6DEC7CEC8CEC9DE30C948E1E60E072
:103D600070E080E89FE30C948E1E60E070E080E2DB
:103D700091E40C948E1E8091770D9091780D891BA3
:103D80008F7039F481E090910F0D913019F080E03F
:103D9000089581E0089511989091020187FD909512
:103DA000917090930001119A000011989091020176
:103DB00086FD9095917090930001119A00001198E2
:103DC0009091020185FD9095917090930001119A58
:103DD000000011989091020184FD9095917090934C
:103DE0000001119A000011989091020183FD9095B5
:103DF000917090930001119A000011989091020126
:103E000082FD9095917090930001119A0000119895
:103E10009091020181FD9095917090930001119A0B
:103E20000000119880910201817080930001119A25
:103E300000000895089590E080E00895282F909163
:103E4000DC0C833021F495FD0FC094FD0FC0892F49
:103E500090E0B0E0A0E004C0B695A795979587954F
:103E60002A95D2F78170089581E0089580E0089541
:103E70000F931F930E94C57D0091500A1091510A23
:103E80002091520A3091530A01151105210531057F
:103E9000D9F520919B0D2223A1F1E091990D21509C
:103EA00020939B0D21E02E0F2093990D30919C0DB6
:103EB000231302C01092990D24E0E29FF001112417
:103EC000E356F24F008111812281338100934C0A25
:103ED00010934D0A20934E0A30934F0A600F711FC2
:103EE000811D911D6093500A7093510A8093520A6C
:103EF0009093530A80914E0A90914F0A892B09F0B2
:103F0000409A1F910F910895601B710B820B930BC8
:103F100097FDF7CF40981092500A1092510A1092D4
:103F2000520A1092530AEDCFCF92DF92EF92FF9296
:103F3000CF93C82F833029F467FD6091C90C60933B
:103F400078040E94C57D6B017C0124EA30E74DE7CF
:103F50005FE36091000270910102809102029091F2
:103F600003020E945ED887FD18C08AEF90E0A0E0AF
:103F7000B0E08C0D9D1DAE1DBF1D80937904909304
:103F80007A04A0937B04B0937C04C0930402CF9185
:103F9000FF90EF90DF90CF90089580E090E0DC01FB
:103FA000E8CFCF93DF93CDB7DEB720E248855985C0
:103FB0006F818E810E943F79DF91CF91089580912A
:103FC000020C0C94F4828091020C0C94F4821092F6
:103FD000700C0E94BF820C943F1E66E17FE383E079
:103FE0000C9455CC6AEF70E482E00C9455CC6FEFE2
:103FF00070E481E00C9455CC64E071E480E00C94B2
:1040000055CC6AE17FE383E00C9455CCAF92BF922C
:10401000CF92DF92EF92FF920F931F93CF93DF9394
:104020006B01E9014A3009F4C1C0453109F073C0A0
:10403000DB011296ED91FC91F280C681D7818091CF
:104040000201809582708093000188E28A950000C9
:10405000E9F7BF2CB29420EFB22230E1A32EAF0CCF
:1040600048E2E42E88EF0E94CB1E8E2D8A95000038
:10407000E9F7BFE1BF1508F485C08F2D8077806810
:104080000E94CB1E8B2D0E94CB1E8E2D8A95000088
:10409000E9F780E80E94CB1E80E00E94CB1E8E2DA7
:1040A0008A950000E9F78AEF0E94CB1E8E2D8A9533
:1040B0000000E9F78E01005F1F4F8881807F0E941A
:1040C000CB1E89918295807F0E94CB1EC017D1079D
:1040D000A1F78E2D8A950000E9F7F394E0E1BE0E7A
:1040E000FA10C0CF80910201827080930001D60146
:1040F0001296CD91DC91CE010E94517E8111F7C1C3
:10410000DF91CF911F910F91FF90EF90DF90CF90B3
:10411000BF90AF900895FB0102811381423309F4EF
:10412000A1C108F4A5C1463409F492C1473409F489
:1041300095C14B3329F589812B81D80112966C9159
:10414000129713964C91213009F4E8C1233009F0FD
:10415000B2C138EF380F582F91E0431708F490E0C0
:1041600041E0531708F040E031E0561708F430E022
:10417000592F542B352309F0C6C1942309F0C3C12C
:1041800081E0BECF80EE8F0D8068807F0E94CB1EC5
:104190008F2D8295807F0E94CB1E8E2D8A950000E8
:1041A000E9F780E80E94CB1E80E877CF809101017B
:1041B00082608093010180910201827080930001EE
:1041C00080910101816080930101809102018170E1
:1041D00080930001099A119A809102018095827062
:1041E0008093000188E28A950000E9F788E790E073
:1041F000CEE9DFE0FE013197F1F70197D9F788EFBB
:104200000E94CB1E18E2812F8A950000E9F780E218
:104210000E94CB1E80E00E94CB1E812F8A95000059
:10422000E9F780E00E94CB1E80E80E94CB1E812F20
:104230008A950000E9F780E00E94CB1E80E10E9491
:10424000CB1E812F8A950000E9F7CE010197F1F787
:10425000CE010197F1F7CE010197F1F7CE01019759
:10426000F1F7CE010197F1F7CE010197F1F7CE01F9
:104270000197F1F7CE010197F1F7CE010197F1F720
:10428000CE010197F1F7CE010197F1F7CE01019729
:10429000F1F7CE010197F1F7CE010197F1F72197E0
:1042A000F1F780E20E94CB1E80E40E94CB1E812F9A
:1042B0008A950000E9F780E20E94CB1E80E60E940A
:1042C000CB1E1A950000E9F710E0D0E0C8E28D2F70
:1042D000807780680E94CB1E812F0E94CB1E8C2F7E
:1042E0008A950000E9F780E80E94CB1E80E00E94DA
:1042F000CB1E8C2F8A950000E9F78AEF0E94CB1E17
:104300008C2F8A950000E9F790E2119880910201C4
:10431000817080930001119A000011988091020130
:10432000817080930001119A000011988091020120
:10433000817080930001119A000011988091020110
:10434000817080930001119A000011988091020100
:10435000817080930001119A0000119880910201F0
:10436000817080930001119A0000119880910201E0
:10437000817080930001119A0000119880910201D0
:10438000817080930001119A0000119880910201C0
:10439000817080930001119A0000119880910201B0
:1043A000817080930001119A0000119880910201A0
:1043B000817080930001119A000011988091020190
:1043C000817080930001119A000011988091020180
:1043D000817080930001119A000011988091020170
:1043E000817080930001119A000011988091020160
:1043F000817080930001119A000011988091020150
:10440000817080930001119A00008C2F8A95000022
:10441000E9F7915009F079CF88EF0E94CB1E8C2FDD
:104420008A950000E9F7DF5F105FD03209F04FCFC7
:1044300080E00E94CB1E80EC0E94CB1ECA9500003B
:10444000E9F78091020182708093000181E058CEEB
:10445000D80115968C91888381E052CEF801818134
:104460008883FACFB901C8010E946E7E81E048CEF0
:10447000443171F0473109F083CE1882F80182810E
:104480008983858181508A8383818B8381E038CEC3
:10449000D80115964C91159750E0440F551F70E0C8
:1044A00060E016968D919C910E94BCE3C8010E9429
:1044B000677E81E025CE481708F462CE861708F49F
:1044C0005FCEFA80E12CD12C243070F41DC0BE01E7
:1044D000C8010E946E7E898198819D0D98838E0D02
:1044E0008983FF0C09F44CCEF7FEF6CFF0CF4D8157
:1044F00050E0440F551F70E060E08E819F810E9464
:10450000BCE381E0FDCDFA8030E0F901E557FD4FD5
:10451000D08029573D4FF901E080E6CF58E0580F91
:10452000382F1ACEDF92EF92FF920F931F93CF9303
:10453000DF93EC01D62E1CAD0BAD7C0184E0E80EC0
:10454000F11CE98DFA8DC7011995412F480F2D2DCA
:10455000602FC7010E94A7809BAD890F8BAF81E0C0
:1045600090E0DF91CF911F910F91FF90EF90DF903E
:1045700008959F92AF92BF92CF92DF92EF92FF92F7
:104580000F931F93CF93DF93EC018B01942EA52EF5
:104590008A859B858617970731F0888199810E94CB
:1045A0004F801B870A8788859985019649F5BC80CD
:1045B0000A818E81080FC880D980D6015596ED9169
:1045C000FC91C6011995B80EE92CFA2C10E0F70100
:1045D00021917F01211127C08E819F81810F911D23
:1045E0009F838E8390E080E0DF91CF911F910F91A8
:1045F000FF90EF90DF90CF90BF90AF909F90089585
:104600000E811F81692D7A2D888199810E94AE7853
:10461000800F912F911D288539852817390738F685
:1046200081E090E0E1CF4B2D602FC6010E94A78072
:10463000080F180FCCCFEF92FF920F931F93CF93D9
:10464000DF93EC018B017A018A859B85861797079A
:1046500031F0888199810E944F801B870A87B701BA
:10466000888199810E94AE782E813F81820F932F9D
:10467000911D9F838E8390E080E0DF91CF911F9109
:104680000F91FF90EF900895CF92DF92EF92FF92FB
:104690000F931F93CF93DF93CDB7DEB72C970FB651
:1046A000F894DEBF0FBECDBFF090EA0DE090EB0DA9
:1046B00020915F0421111DC04FEF58E06E2D8F2D0A
:1046C0000E94138190E080E0F80EF092EA0DE092F3
:1046D000EB0D99272C960FB6F894DEBF0FBECDBF19
:1046E000DF91CF911F910F91FF90EF90DF90CF90CE
:1046F0000895C090B70DD090B80D23EB3DE03A83FC
:1047000029832F2D30E03C832B832E2D30E03E83F8
:104710002D8318861F827A8769871C861B8609EB82
:1047200012E29E012F5F3F4F48E05EE1BC01C601EF
:104730000E942777B60183EB9DE00E944F808F8116
:104740009885C2CFAF92BF92CF92DF92EF92FF9245
:104750000F931F93CF93DF93C0E1DDE00BE41CE0E8
:1047600080E2A82E8DE0B82EC12CD12C7601C39406
:1047700069917991899199910E9463D828893989A1
:104780004A895B890E94C4D80E94D5E0F8016193F0
:104790007193819391938F01C616D706E806F906A7
:1047A00010F46B017C01AC16BD0611F76FEF7FEFC3
:1047B000CB01A70196010E94A2DE2093A3043093AF
:1047C000A4044093A5045093A60423EF34E045E3EA
:1047D0005FE360913E0C70913F0C8091400C909192
:1047E000410C0E94C4D82AE136EF45E95EE30E94FD
:1047F0005CE06B017C016091100D7091110D809156
:10480000120D9091130D0E9463D89B01AC01C7015A
:10481000B6010E94C4D80E9460E260933A0C709383
:104820003B0C80933C0C90933D0CDF91CF911F91FA
:104830000F91FF90EF90DF90CF90BF90AF900895D1
:104840000C94A2230C94A2230C94A2230C94A223D4
:104850004F925F926F927F928F929F92AF92BF9290
:10486000CF92DF92EF92FF920F931F93CF93DF933C
:10487000CDB7DEB768970FB6F894DEBF0FBECDBFD9
:104880008C015B015A834983FC01EE5BFF4F608121
:104890007181828193810E9463D86B017C01D50173
:1048A0002D913D914D915C910E94C4D80E9440E0B1
:1048B0002B013C01E981FA812081318142815381C0
:1048C000C701B6010E94C4D80E9440E04B015C01C0
:1048D000C301B2010E94D5E0698B7A8B8B8B9C8BD4
:1048E000683771058105910540F428E730E040E024
:1048F00050E0298B3A8B4B8B5C8BC501B4010E9435
:10490000D5E06D877E878F87988B68377105810525
:10491000910540F488E790E0A0E0B0E08D879E87A5
:10492000AF87B88BF801E25BFF4F20813181428174
:10493000538129833A834B835C83CA01B9010E9466
:1049400065D82B013C0169897A898B899C890E94F1
:1049500063D869877A878B879C8720E030E0A9013C
:10496000C301B2010E945ED8882309F43BC1A701AC
:104970009601C701B6010E94C4D84B015C0129858C
:104980003A854B855C85CA01B9010E94C4D89B0158
:10499000AC01C501B4010E9461DF4B015C01A301C0
:1049A0009201C301B2010E9462DF9B01AC01C5010B
:1049B000B4010E945CE00E9440E00E94D5E06D835B
:1049C0007E838F83988769817A818B819C81909582
:1049D0008095709561957F4F8F4F9F4F0E9465D84E
:1049E0004B015C016D857E858F8598890E9463D817
:1049F00069837A838B839C8320E030E0A901C50121
:104A0000B4010E945ED8882309F4F0C029813A815C
:104A10004B815C81CA01B9010E94C4D86D8B7E8B29
:104A20008F8B988FA7019601C701B6010E94C4D849
:104A30009B01AC016D897E898F89988D0E9461DF11
:104A40006B017C01A5019401C501B4010E9462DFE4
:104A50009B01AC01C701B6010E945CE00E9404E129
:104A6000D80195968D909D90AD90BC9098977501CA
:104A700064012D813E814F815885C21AD30AE40A10
:104A8000F50A0E94D5E0C61AD70AE80AF90AF7FE25
:104A90006EC020E030E0A901C301B2010E945ED8DF
:104AA000882309F4A7C0C501B4010E9463D86B0133
:104AB0007C01A3019201C301B2010E9462DF9B014C
:104AC000AC01C701B6010E94C4D86B017C012985E5
:104AD0003A854B855C85CA01B9010E94C4D89B0107
:104AE000AC01C701B6010E9461DF6B017C01298125
:104AF0003A814B815C81CA01B9010E94C4D89B01F3
:104B0000AC01C701B6010E9462DF6B017C0120E0AD
:104B100030E040E850E4C301B2010E94C4D89B01D8
:104B2000AC01C701B6010E945CE00E9440E06B014D
:104B30007C0120E030E0A9010E94C2E118161CF0BF
:104B4000C12CD12C7601C701B6010E94D5E06D833E
:104B50007E838F83988786169706A806B90620F469
:104B60008D829E82AF82B886C12CD12C76018D8138
:104B70009E81AF81B885F80182A793A7A4A7B5A7A6
:104B8000C80ED91EEA1EFB1EC6A6D7A6E0AAF1AA29
:104B9000EA5BFF4F29893A894B895C8920833183FD
:104BA0004283538334968D859E85AF85B8898083F3
:104BB0009183A283B38368960FB6F894DEBF0FBECD
:104BC000CDBFDF91CF911F910F91FF90EF90DF90BC
:104BD000CF90BF90AF909F908F907F906F905F909D
:104BE0004F90089560E070E0CB01E5CE60E070E0AA
:104BF000CB0134CF60E070E0CB0197CF0F931F93D0
:104C00008091770D9091780D891B8F7009F449C0C0
:104C10009091740D992361F0833040F48FEF890FE8
:104C200029F08093740D90E080E038C01092740DEC
:104C30008091780D27E5829FC001112485549B4FF8
:104C4000FC01208120FDEFCF4091A7045091A804E2
:104C50006091A9047091AA04ED5AFF4F008111815F
:104C600022813381401B510B620B730B4093A704CD
:104C70005093A8046093A9047093AA042091780D1E
:104C80002F5F2F702093750D3091780D2091760D48
:104C9000321304C02091750D2093760D1F910F9152
:104CA00008950E9447CCBFCF90916F0081E091FDA5
:104CB00002C080E0089590916F009D7F90936F00F7
:104CC0000895EFE6F0E08081826080830895CF92BE
:104CD000DF92EF92FF92CF93DF93C82F0E9454266A
:104CE00094E0C99FE0011124FE01E75CF54FC0800C
:104CF000D180E280F38081110E946126C555DB4F8F
:104D0000C701B6010E9465D8288139814A815B813B
:104D10000E94C4D8DF91CF91FF90EF90DF90CF90A9
:104D20000895CF92DF92EF92FF92CF93DF93C82F37
:104D30000E94542694E0C99FE0011124FE01E35D26
:104D4000F54FC080D180E280F38081110E946126FE
:104D5000C555DB4FC701B6010E9465D8288139814E
:104D60004A815B810E94C4D8DF91CF91FF90EF9080
:104D7000DF90CF900895CF93DF9324E0829FC0010E
:104D80001124EC01C45AD24FFC01E25DF34F885765
:104D9000934FDC012D913D914D915C91608171812A
:104DA000828193810E9462DF688379838A839B83F7
:104DB000DF91CF910895CF92DF92EF92FF921F93F0
:104DC000CF93DF9320914702222309F48DC0EC0199
:104DD0001091950C10FF2CC0C0904902D0904A024F
:104DE000E0904B02F0904C02288139814A815B812E
:104DF000C701B6010E94C2E1181624F4C882D98204
:104E0000EA82FB82C0905502D0905602E090570291
:104E1000F0905802288139814A815B81C701B6012F
:104E20000E945ED887FF04C0C882D982EA82FB82D2
:104E300011FF2CC0C0904D02D0904E02E0904F0266
:104E4000F09050022C813D814E815F81C701B601F7
:104E50000E94C2E1181624F4CC82DD82EE82FF8229
:104E6000C0905902D0905A02E0905B02F0905C0230
:104E70002C813D814E815F81C701B6010E945ED8C1
:104E800087FF04C0CC82DD82EE82FF8212FF2CC03D
:104E9000C0905102D0905202E0905302F090540220
:104EA000288539854A855B85C701B6010E94C2E124
:104EB000181624F4C886D986EA86FB86C0905D025F
:104EC000D0905E02E0905F02F09060022885398504
:104ED0004A855B85C701B6010E945ED887FF04C082
:104EE000C886D986EA86FB86DF91CF911F91FF9015
:104EF000EF90DF90CF900895CF92DF92EF92FF92E4
:104F00000F931F93CF93DF9390E0EC01CC0FDD1F45
:104F1000CC0FDD1F641709F44BC050E0DA01AA0F73
:104F2000BB1FA40FB51FA80FB91FAA0FBB1FAA0F45
:104F3000BB1FAA5EB34F70E0FB01EE0FFF1FE60F31
:104F4000F71FE80FF91FEE0FFF1FEE0FFF1FEA5EBE
:104F5000F34F20813181428153816D917D918D91FB
:104F60009C910E9461DF6B017C01C95BDD4FAC014C
:104F70009B016A817B818C819D810E9462DF6A83B3
:104F80007B838C839D83A70196016E857F858889AD
:104F900099890E9462DF6E877F87888B998BDF916A
:104FA000CF911F910F91FF90EF90DF90CF900895D8
:104FB000E091C90C2E2F30E0F901EE0FFF1FE20F38
:104FC000F31FE80FF91FEE0FFF1FEE0FFF1FEA5E42
:104FD000F34FC080D180E280F380FE01EF5DF14F9E
:104FE00025913591459154918E01095B1D4FC70163
:104FF000B6010E9462DFF801628373838483958324
:10500000FE01EB5EF14F2591359145915491C70119
:10501000B6010E9462DFF80166877787808B918BEB
:10502000BECFEF920F931F93E090C90C8C012DE738
:1050300032E049E752E065E772E081E792E00E94E2
:105040001BB41F910F91EF90089580E090E0A0E8CD
:10505000B0E48093790290937A02A0937B02B0939C
:105060007C0287E992E00E94112880915E048130E1
:10507000C9F1D4F4882309F18FE892E00E94112845
:105080001092790210927A0210927B0210927C02A6
:1050900087E992E00E94112880915E048F5F84303E
:1050A0009CF580935E040895823049F1833021F7A6
:1050B00080E090E0A0EFB1E419C080E090E0A0EFC4
:1050C000B1E48093710290937202A0937302B09343
:1050D00074028093750290937602A0937702B09346
:1050E0007802CACF80E090E0A8E3B3E48093710235
:1050F00090937202A0937302B0937402BDCF80E0CC
:1051000090E0ACE1B3E4E5CF10925E0408958091A5
:105110004602882331F041E06BEA7AE082E00E94A7
:10512000E2788091950C8770873079F410925E0454
:1051300020E040E070E060E080E997E30E940E1E0E
:1051400081E080935D040C9425280895CF93DF932C
:10515000CDB7DEB72C970FB6F894DEBF0FBECDBF2C
:105160000E9415780E9454269CE0E9E3FAE0DE01F3
:10517000119601900D929A95E1F781110E94612696
:10518000CE0101960E94C0892C960FB6F894DEBF1E
:105190000FBECDBFDF91CF9108958091A204649995
:1051A00055C080618093A204909103018091A20474
:1051B00090FD4EC080628093A2048091A2044B991E
:1051C00049C084608093A20480912B0A80FF10C0A4
:1051D0008091540A80FD0CC08091A20484FF08C015
:1051E0008091D80B80618093D80B80E00E94F48975
:1051F00080912B0A869580FF11C08091540A869574
:1052000080FD0CC08091A20485FF08C08091D80B5E
:1052100080628093D80B81E00E94F48980912B0AF0
:105220008695869580FF18C08091540A869586954C
:1052300080FF12C08091A20482FF0EC08091D80B23
:1052400084608093D80B82E00C94F4898F7EAACF7F
:105250008F7DB1CF8B7FB6CF08950F931F93809131
:105260000F0D813019F50E94C57D00919E041091AB
:105270009F042091A0043091A104601B710B820B4C
:10528000930B28EE33E040E050E00E94A2DE6091F4
:105290009A0470919B0480919C0490919D04620FEC
:1052A000731F841F951F1F910F91089560917D0CAE
:1052B00070917E0C80917F0C9091800CD6CF1092D3
:1052C0000F0D10929E0410929F041092A004109251
:1052D000A10410927D0C10927E0C10927F0C109203
:1052E000800C10929A0410929B0410929C041092CD
:1052F0009D04089580910F0D8130F1F08230C9F442
:105300000E942D2960939A0470939B0480939C04BF
:1053100090939D0481E080930F0D0E94C57D609362
:105320009E0470939F048093A0049093A10481E055
:1053300008950E945F29EECF80E0089580910F0DBF
:105340008150823070F410920F0D0E94C57D6093E1
:105350007D0C70937E0C80937F0C9093800C81E089
:10536000089580E008950F931F93CF93DF938C01EE
:10537000EB0190919B0D20919C0D921305C00E9412
:10538000381F0E940E86F5CF80919A0D34E0839FDE
:10539000F0011124E356F24F11830083D383C283BB
:1053A0009F5F90939B0D8F5F281739F080939A0D24
:1053B000DF91CF911F910F91089510929A0DF8CF20
:1053C00063E972E084E690E00E94B3296AEB72E040
:1053D00084E690E00C94B32981110C94E02968EBE9
:1053E00071E084E190E00C94B329CF930E947D9BFF
:1053F0000E94F99CC82F882319F080E00E94019335
:105400008C2F0E94EC29CF910C943F1E0E94F99C96
:105410000C94EC290E94EB9C0C94EC290E947D9B3F
:105420000C94E0298093E00B20E040E070E060E025
:1054300082E297E30C940E1E0F931F93CF93DF939A
:105440008C016F3F19F410920C0D60E020910C0D4F
:10545000862F062E000C990B2817190609F0F4F474
:1054600060930C0DC8010E94ABD7800F911FEC0117
:10547000C01BD10BCB32D1053CF00197FC0124912C
:10548000207C2038D1F3F3CFDD27AE01B80181EEC7
:105490009CE00E94CCD7CF51D34F1882DF91CF919F
:1054A0001F910F910895CF93DF93CDB7DEB78E8113
:1054B00090910C0D891768F080930C0D9E01275F69
:1054C0003F4F4F8158856AE270E081EE9CE00E9478
:1054D00025D8DF91CF9108950F931F930E94C57D2A
:1054E00000918E0410918F042091900430919104CA
:1054F000601B710B820B930B97FD0CC086B186FB72
:10550000882780F991E08927349B8260329B8460F0
:1055100080938D0480918D04817090918D0491FD14
:10552000826090918C04981749F0813009F148F01D
:10553000823079F0833091F080938C041F910F9129
:105540000895913079F09230B9F790918B049F5F74
:105550000CC0992339F09330C1F3EECF9130A9F309
:10556000923051F790918B04915090938B04E4CF3B
:10557000992359F3933001F7F5CF81E080935F04CD
:10558000E0E7FDE087E79DE091838083138212824C
:105590003E98469A3C98449A3A98429A0E946C2ABD
:1055A00010928B040895E0915C04EE2389F0E150A1
:1055B000E0935C0488E0E89FF0011124E45DFB4F78
:1055C0006281738127814681808191810C940E1EB6
:1055D0000C943F1E10927D040C94D32AE0915C043D
:1055E000E63010F581E08E0F80935C044091F00B63
:1055F0005091F10B6091F20B7091F30B9091E80BCD
:105600008091E90B28E0E29FF0011124E45DFB4F5B
:105610002091AD0D3091AE0D3183208342835383B1
:1056200064837583968387830895CF93DF93EC011A
:105630000E94EE2A20E040E070E060E0CE01DF91C1
:10564000CF910C940E1E9F92AF92BF92CF92DF9299
:10565000EF92FF920F931F93CF93DF930E94F27903
:10566000C091E80BCC2E85E0982E9C0E92EAA92ED4
:105670009BE0B92ED7E0DC1B16E01C1B05E00C1BE1
:1056800084E0F82EFC1A83E0E82EEC1A82E0D82E93
:10569000DC1AC1112EC08091EA0B882391F0809111
:1056A0004602882309F4F9C06C2D619581E0909140
:1056B000EA0B911180E024E04CE45BE00E943F792A
:1056C000ECC08091D90B1092D90B882341F30E9432
:1056D000D32A8091000C882311F3DF91CF911F9181
:1056E0000F91FF90EF90DF90CF90BF90AF909F9081
:1056F0000895C13021F58091EA0B813089F08091C5
:105700004602882309F4C9C061E06C1981E09091D8
:10571000EA0B913009F080E023E045ED58E1CECF6F
:105720008091D90B1092D90B882349F38FE89CE222
:105730000E94152B8091000C882309F3CECFC23034
:1057400009F0CEC09091EA0B923071F08091460240
:10575000882309F4A2C081E0923009F080E020E2C1
:1057600048ED5BE06D2DAACF8091D90B1092D90B3B
:10577000882361F322EE3BE03093560A2093550ACA
:105780008091000C882311F3A8CF9091EA0B9330FD
:1057900071F080914602882309F47FC081E0933044
:1057A00009F080E020E24CEC5BE06E2D87CF809129
:1057B000D90B1092D90B882361F323ED3BE0309392
:1057C000560A2093550A8091000C882311F385CF47
:1057D0009091EA0B943071F080914602882309F48D
:1057E0005CC081E0943009F080E020E240EC5BE0B6
:1057F0006F2D64CF8091D90B1092D90B882361F360
:1058000027EC3BE03093560A2093550A8091000C18
:10581000882311F362CF9091EA0B953069F0809163
:1058200046028823D1F181E0953009F080E020E242
:1058300044EB5BE0602F42CF8091D90B1092D90BE3
:10584000882369F32BEB3BE03093560A2093550AEB
:105850008091000C882319F340CF8091EA0B8630A9
:1058600019F1809146028823C1F087E49EE19F935D
:105870008F9386EA9BE09F938F931F9381E0909193
:10588000EA0B963009F080E08F930E94D11F0F90B1
:105890000F900F900F900F900F90CF5FC911F9CE1E
:1058A00088E08093E90B19CF8091D90B1092D90B26
:1058B0008823B9F20E94471E8091000C882389F248
:1058C0000CCF8091D90B1092D90B8823D9F0B092CC
:1058D000560AA092550A8091000C882399F0FDCEBB
:1058E000C33009F452CFC43009F472CFC53009F483
:1058F00092CFC63009F4B1CFC73079F69091EA0B58
:105900009730F9F280914602882339F281E097308E
:1059100009F080E020E241E95BE06D2FCFCEAF924D
:10592000BF92CF92DF92EF92FF920F931F93CF938C
:10593000DF930E94F279C091E80BDC2E85E0C82E3F
:10594000CC0E14E01C1B03E00C1B82E0F82EFC1AAA
:1059500081E0E82EEC1ABC2EB194C11152C08091A6
:10596000EA0B8823B1F180914602882359F081E047
:105970009091EA0B911180E024E041E55BE06B2D12
:105980000E943F79D5E0AC2EAD18DC1318C08BEF28
:105990008D0F8093020C8091EA0B8D1709F4B0C033
:1059A00080914602882359F081E09091EA0B9D1383
:1059B00080E023E046E85BE06A2D0E943F79D63024
:1059C00009F09CC0CF5FCC11C8CF87E08093E90B72
:1059D0000DC08091D90B1092D90B882321F20E941F
:1059E000D32A8091000C882309F4BDCFDF91CF9199
:1059F0001F910F91FF90EF90DF90CF90BF90AF90ED
:105A00000895C13019F58091EA0B813081F08091C1
:105A10004602882309F4B6CF81E09091EA0B9130D9
:105A200009F080E023E046EF58E16E2DA9CF809188
:105A3000D90B1092D90B882351F38CEF9FE10E9470
:105A4000152B8091000C882311F3D0CFC23009F0C0
:105A500068C08091EA0B823081F0809146028823F1
:105A600009F490CF81E09091EA0B923009F080E048
:105A700023E04FEE58E16F2D83CF8091D90B109228
:105A8000D90B882351F387EF9FE10E94152B80915A
:105A9000000C882311F3AACF8091EA0B833081F0A8
:105AA00080914602882309F46DCF81E09091EA0B42
:105AB000933009F080E023E048EE58E1602F60CF9A
:105AC0008091D90B1092D90B882351F382EF9FE17B
:105AD0000E94152B8091000C882311F387CF8091B1
