:100000000C943A170C946B170C946B170C946B1799
:100010000C946B170C946B170C946B170C946B1758
:100020000C946B170C946B170C946B170C946B1748
:100030000C946B170C946B170C946B170C946B1738
:100040000C946B170C94B2310C946B170C946B17C7
:100050000C946B170C946B170C947FE50C94BBCC31
:100060000C946B170C944CA70C9442A70C946B1730
:100070000C946B170C946B170C946B170C946B17F8
:100080000C946B170C946B170C946B170C946B17E8
:100090000C946B170C946B170C946B170C946B17D8
:1000A0000C946B170C946B170C946B170C946B17C8
:1000B0000C946B170C946B170C946B170C946B17B8
:1000C0000C946B170C946B170C946B170C946B17A8
:1000D0000C946B170C946B170C946B170C946B1798
:1000E0000C946B17084AD73B3BCE016E84BCBFFD16
:1000F000C12F3D6C74319ABD56833DDA3D00C77FF8
:1001000011BED9E4BB4C3E916BAAAABE0000008090
:100110003F05A84CCDB2D44EB93836A9020C50B91F
:10012000918688083CA6AAAA2ABE000000803F0744
:10013000634236B79BD8A71A39685618AEBAAB5582
:100140008C1D3CB7CC5763BD6DEDFD753EF6177247
:1001500031BF000000803F08000000BE9224491219
:100160003EABAAAA2ABECDCCCC4C3E00000080BE3D
:10017000ABAAAAAA3E00000000BF000000803F001A
:1001800000000000084178D3BB4387D1133D190E0E
:100190003CC3BD4282AD2B3E68EC8276BED98FE176
:1001A000A93E4C80EFFFBE01C4FF7F3F000000006E
:1001B00000000C9424260C94812A0C942B260C9479
:1001C00098C90C94515D0C946E190C94CB260C9428
:1001D0002D210C94F3C90C94D0C90C9454E50C94C3
:1001E000645B0C9480640C94A51A0C94ACC90C94B8
:1001F000591A0C94FB190C945C2D0C94D1BE0C94E0
:100200009A210C944D2D0C94BCC90C9460810C94D3
:100210004FE50C94D91A0C9473BE0C94E51D0C9404
:10022000B5BE0C94D7BE0C94BC7C0C94957C0C94FD
:10023000851A0C94BBBE0C9407CA0C94B8210C947C
:1002400004BF0C94CDBE0C9489C90C94DAC90C94EB
:10025000D91D0C9485CC0C94992A0C946A2A0C9480
:10026000C9BE0C94D6BE0C9481170C94AD530C945B
:10027000041E0C94182B0C94BEEE0C943D260C948A
:10028000231E0C94D86A0C94DF1D0C94BE1A0C9497
:1002900081C90C9474480C94F4790C94FA790C94F8
:1002A000A0BE0C943E680C94FB870C94B4C90C94CB
:1002B0007F790C943CE50C94C6C90C94FDC90C9450
:1002C000628C0C94D31D0C94F6790C94A2190C94A6
:1002D000A8BE0C94E8190C94097A0C94871B0C9412
:1002E000A2C90C949CBE0C94D6480C94B2210C94D8
:1002F00022540C94EC790C94BFBE0C942A890C9473
:1003000011CA0C94F2790C94B1BE0C944FE40C9485
:1003100001550C94BE210C94181B0C9484210C9450
:10032000FC790C94A6210C9488210C9419220C942D
:100330002C790C9465660C9415770C94931A0C9494
:1003400037260C948EC90C9430E50C94FF1A0C944B
:100350007C640C9480210C9400790C9411770C949B
:10036000AC210C94CD1D0C94E9C90C94ABBE0C943B
:10037000A0210C9472BE0C94311B0C9467E50C9474
:10038000F0790C945D5D0C94EC1A0C94DBBE0C942B
:10039000722A0C94D6190C94BBE60C946E680C94DB
:1003A00057C00C94AA280C94AF280C94C3BE0C948C
:1003B00011200C943A1A0C9411790C941E7D0C9413
:1003C0009E1D0C94902A0C941BCA0C948E210C94A4
:1003D0009F1E0C94918F0C94DF190C9420790C942F
:1003E00029790C94421E0C94F8790C943FE40C94F7
:1003F00096BE0C94B4280C94A11E0C94A5280C94C1
:10040000C7260C94721A0C944D1A0C94EE790C9425
:100410006CE50C947E790C94A51E0C9431260C94FA
:10042000A4BE0C94328E0C9494214E414E494E49F8
:100430005459494E46CDCCCC3D0AD7233C17B7D1B1
:100440003877CC2B329595E6241FB14F0A00002057
:10045000410000C84200401C4620BCBE4CCA1B0ED6
:100460005AAEC59D7400407A10F35A00A0724E181F
:10047000090010A5D4E80000E87648170000E40B56
:1004800054020000CA9A3B000000E1F5050000801C
:10049000969800000040420F000000A08601000076
:1004A00000102700000000E80300000000640000C6
:1004B0000000000A00000000000100000000002C05
:1004C00076D888DC674F0823DFC1DFAE59E1B1B7CA
:1004D00096E5E3E453C63AE651997696E8E6C28497
:1004E00026EB898C9B62ED407C6FFCEFBC9C9F40AF
:1004F000F2BAA56FA5F490055A2AF75C936B6CF9D4
:10050000676DC11BFCE0E40D47FEF520E6B500D0A9
:10051000ED902E0300943577050080841E080000BE
:10052000204E0A000000C80C333333330F986E128C
:10053000831141EF8D2114893BE65516CFFEE6DB92
:1005400018D1844B381BF77C1D901DA4BBE42420DC
:100550003284725E228100C9F124ECA1E53D27417D
:100560006476616E6365642053657474696E677345
:10057000004D38340041425300504C410020746F0C
:100580006F206C6F6E6720657874727573696F6E1B
:100590002070726576656E7465640A0020636F6C06
:1005A0006420657874727573696F6E2070726576F9
:1005B000656E7465640A00486F74656E64206F66CA
:1005C00066736574733A002052003F0043616E63A6
:1005D000656C00496E6974004D34323800496E69AB
:1005E0007469616C697A6520454550524F4D0046EB
:1005F000696C616D656E740054656D7065726174CF
:10060000757265004A756E6374696F6E2044657615
:1006100000416363656C65726174696F6E00566555
:100620006C6F636974790053657420486F6D652041
:100630004F66667365747300436F6E6669677572A3
:100640006174696F6E004E65787420436F726E65D9
:100650007200446F6E65004E65787400486F6D6976
:100660006E672058595A005A2052616973650032EA
:100670006E64204E6F7A7A6C65205A00326E642068
:100680004E6F7A7A6C65205900326E64204E6F7A14
:100690007A6C652058004E6F7A7A6C650046616E00
:1006A00020537065656400526573746F72652044F1
:1006B000656661756C7473004C6F6164205365747A
:1006C00074696E67730053746F7265205365747438
:1006D000696E6773005072656865617420242043F9
:1006E0006F6E6600546F6F6C204368616E676500C3
:1006F000546F6F6C204F666673657473004D61694B
:100700006E004261636B0053746F70004368616EEA
:100710006765204D65646961004D3231004D6F742D
:10072000696F6E00526573756D65205072696E74E5
:100730000054756E650053746F70205072696E744A
:10074000005061757365205072696E74004E6F20A1
:100750004D6564696100496E666F2053637265651B
:100760006E005374617274205072696E740043613C
:100770006E6E6F7420656E74657220737562646945
:10078000723A2000022E2E004D6F76652025736D83
:100790006D004D6F766520302E316D6D004D6F769A
:1007A0006520316D6D004D6F76652031306D6D00C7
:1007B000486F74656E6420746F6F20636F6C6400A3
:1007C0004578747275646572202A00457874727574
:1007D000646572004D6F7665205A004D6F76652016
:1007E00059004D6F766520580044697361626C65ED
:1007F000205374657070657273004C6576656C206B
:10080000436F726E65727300486F6D65205A0047C2
:1008100032385A00486F6D65205900473238590008
:10082000486F6D6520580047323858004175746F25
:1008300020486F6D6500473238004D6F7665204166
:100840007869730050726568656174202420416C7A
:100850006C0050726568656174202420456E6420C8
:100860007E005072656865617420242042656400D2
:10087000507265686561742024207E00436F6F6C40
:10088000646F776E00507265686561742024004E55
:100890006F7A7A6C65207E00466C6F77207E00460A
:1008A0006C6F77002568753A2530326875002568C9
:1008B00075642025303268753A253032687500201D
:1008C000202020202020005072696E742041626F29
:1008D00072746564004D32350050617573696E67DE
:1008E0002E2E2E00454550524F4D2056657273698D
:1008F0006F6E204572726F7200454550524F4D2009
:10090000496E646578204572726F72004545505299
:100910004F4D20435243204572726F720049676EFB
:100920006F7265006F70656E0054524947474552BB
:100930004544007A5F6D696E00795F6D617800787B
:100940005F6D6178005265706F7274696E672065C3
:100950006E6473746F70207374617475730A0048E9
:100960006F6D696E67204661696C656400576172DE
:100970006E696E673A20486F6D696E672042756DCB
:10098000702044697669736F72203C20310A0053ED
:10099000657474696E67732053746F7265640020A8
:1009A00062797465733B20637263200053657474CD
:1009B000696E67732053746F726564202800454523
:1009C00050524F4D206461746173697A652065727D
:1009D000726F722E0A002073746F726564207365E3
:1009E0007474696E67732072657472696576656484
:1009F000202800202863616C63756C61746564292C
:100A0000210A0020213D2000454550524F4D2043F2
:100A10005243206D69736D61746368202D202873C3
:100A2000746F726564292000496E6465783A20000D
:100A3000204D61726C696E3D563831290A0045457A
:100A400050524F4D2076657273696F6E206D6973D9
:100A50006D617463682028454550524F4D3D0048F4
:100A6000617264636F6465642044656661756C746B
:100A70002053657474696E6773204C6F616465649C
:100A80000A003B2000546F6F6C2D6368616E6769CC
:100A90006E673A0020440020490020204D33303159
:100AA0002050005049442073657474696E67733A2E
:100AB0000020460020480020204D313435205300CE
:100AC0004D6174657269616C206865617475702030
:100AD000706172616D65746572733A0020204D32E9
:100AE000313820540020204D323036205800486FD5
:100AF0006D65206F66667365743A00204A00202099
:100B00004D323035204200416476616E6365643A4F
:100B100020423C6D696E5F7365676D656E745F74CE
:100B2000696D655F75733E20533C6D696E5F6665E8
:100B30006564726174653E20543C6D696E5F7472C9
:100B40006176656C5F66656564726174653E204AB6
:100B50003C6A756E635F6465763E0020204D3230DE
:100B600034205000416363656C65726174696F6E17
:100B70002028756E6974732F7332293A20503C70A7
:100B800072696E745F616363656C3E20523C72658E
:100B900074726163745F616363656C3E20543C747E
:100BA000726176656C5F616363656C3E0020204D09
:100BB0003230312058004D6178696D756D20416388
:100BC00063656C65726174696F6E2028756E6974F7
:100BD000732F7332293A0020204D323033205800D1
:100BE0004D6178696D756D206665656472617465C7
:100BF000732028756E6974732F73293A00537465D6
:100C000070732070657220756E69743A0020204DF3
:100C100032303020530020204D323030205400201C
:100C200044697361626C65640A0046696C616D6554
:100C30006E742073657474696E67733A0020204D7A
:100C40003134392043203B20556E69747320696E1E
:100C50002043656C736975730A0020286D6D290047
:100C60002020473231202020203B20556E697473AC
:100C700020696E206D6D0020436F756E7420583AA8
:100C800000453200453100626564002C20737973A1
:100C900074656D2073746F707065642120486561A0
:100CA0007465725F49443A200048656174696E67F3
:100CB000204661696C65640048656174696E6720EF
:100CC0006661696C6564001FE02010231024901099
:100CD000A011202210241037B00840048003001F08
:100CE000E020102110231015201120211021103197
:100CF000300840048003001FE03FF03CF03B701FD1
:100D0000601EE03DF03BF038700FC0078003001F0D
:100D1000E03FF03EF03CF01AE01EE03EF03EF03ED8
:100D2000F00FC00780030079057505DF0CC70C0FB5
:100D30000DF70C3FFFF038007030FC3020FC102025
:100D400078102030102C00D02E31D02F7BD02F7B6C
:100D5000D02E31D02C00D020301020781020FC1064
:100D600030FC303800703FFFF03FFFF0380070314A
:100D700086302387102787902F87D02F03D02030ED
:100D8000102078102078102030102F03D02F87D01B
:100D90002787902387103186303800703FFFF01F7F
:100DA000FFF81FFFF804104002082002082004107A
:100DB00040082080104100104100082080041040AD
:100DC0000000001FFFF81FFFF800000D430000BAED
:100DD0004200003A430000D6C20000BAC200000040
:100DE0000000000D430000BA420000000000007047
:100DF0004100007041000080400202040000A04059
:100E00000000A040000000400000784300003A438A
:100E100000003A430101FFDB0FC93F45BCDA3F8FB9
:100E2000B30240FCF0274056946140FE4B9B408447
:100E3000A5D840E0231841346A5641E859974164E7
:100E4000DBD5416E271742B4B75542CE1A9742C838
:100E5000AED542B5885A43D40684BFA65FA7BF74F7
:100E600043E0BF10B11AC01C2C58C0E8F697C0B8B8
:100E700049D6C04E4E17C124D355C1802497C1A076
:100E8000B5D5C1121A17C244AE55C2781797C26CB5
:100E9000ACD5C267885AC30000AF430000AF43001F
:100EA0000020410000C8410000C8420000C84200C4
:100EB00000C8433333BB424C0400004C0400002CF8
:100EC0000100008813000024F4D43050C38E20C2E7
:100ED000A24017828B7011127A910D816CD90AA8E9
:100EE00061E108C7586607615143061E4B5D05C1A5
:100EF00045A7041A411104093D9803713931034093
:100F000036DB0265339102D4305402802E1D026319
:100F10002CEE01752AC501B028A001102781018F90
:100F20002564012B244B01E0223401AC211F018DEB
:100F3000200D01801FFC00841EED00971DDF00B80E
:100F40001CD200E61BC600201BBC00641AB200B213
:100F500019A8000A19A0006A189900D11791004039
:100F6000178B00B516840031167E00B31579003A50
:100F7000157300C7146F0058146A00EE13660088DA
:100F800013630025135E00C7125B006C1257001537
:100F9000125400C111510070114F0021114B00D6A5
:100FA0001049008D1047004610440002104200C056
:100FB0000F4000800F3E00420F3C00060F3B00CB6D
:100FC0000E3800930E37005C0E3500270E3400F308
:100FD0000D3200C10D3100900D3000600D2E003239
:100FE0000D2D00050D2C00D90C2B00AE0C29008511
:100FF0000C29005C0C2700350C27000E0C2600E89D
:101000000B2400C40B2400A00B23007D0B23005AEB
:101010000B2100390B2100180B2000F80A1F00D902
:101020000A1E00BB0A1E009D0A1D00800A1D0063E7
:101030000A1C00470A1B002C0A1B00110A1A00F7A1
:10104000091A00DD091900C4091900AB0919009239
:101050000917007B091800630917004C09160036B0
:10106000091600200916000A091500F5081500E008
:10107000081400CC081400B8081400A40814009048
:101080000813007D0812006B081300580812004670
:101090000812003408110023081100120811000181
:1010A000081100F0071000E0071000D0071000C082
:1010B000071000B0070F00A107100091070E008372
:1010C000070F0074070F0065070E0057070E004951
:1010D000070E003B070D002E070E0020070D001322
:1010E000070D0006070D00F9060C00ED060D00E0E7
:1010F000060C00D4060C00C8060C00BC060C00B0A0
:10110000060C00A4060B0099060C008D060B00824D
:10111000060B0077060B006C060B0061060A0057F1
:10112000060B004C060A0042060A0038060A002E8A
:10113000060A0024060A001A060A0010060900071B
:10114000060A00FD050900F4050900EB050900E2A7
:10115000050900D9050900D0050900C7050900BE29
:10116000050900B5050800AD050800A50509009CA6
:10117000050800940508008C050800840508007C1B
:10118000050800740508006C050700650508005D8A
:10119000050700560508004E0507004705070040F3
:1011A00005080038050700310507002A0507002358
:1011B0000507001C050600160507000F05070008B7
:1011C00005060002050700FB040600F5040700EE13
:1011D000040600E8040600E2040700DB040600D56C
:1011E000040600CF040600C9040600C3040600BDBF
:1011F000040600B7040600B1040500AC040600A60E
:10120000040600A00405009B040600950405009058
:101210000406008A04050085040500800406007A9F
:1012200004050075040500700405006B04050066E4
:10123000040500610405005C040500570405005224
:101240000405004D04050048040500430405003E64
:101250000404003A04050035040500300404002CA1
:1012600004050027040400230405001E0404001ADA
:1012700004040016040500110404000D0404000910
:101280000405000404040000040400FC030400F846
:10129000030400F4030400F0030400EC030400E87A
:1012A000030400E4030400E0030400DC030400D8AA
:1012B000030400D4030400D0030400CC030400C8DA
:1012C000030300C503030024F404D9201BC40C5CF1
:1012D0000E9804C4095F0265077101F405F900FB6B
:1012E00004B30048048700C1036900580355000394
:1012F000034500BE023A008402310053022A00294D
:1013000002250004022000E4011C00C8011900AFFE
:10131000011700980114008401130071011000618D
:1013200001100051010E0043010D0036010B002B8E
:10133000010B0020010B00150109000C010900033D
:10134000010800FB000800F3000800EB000700E4C0
:10135000000600DE000600D8000600D2000600CC21
:10136000000500C7000500C2000500BD000400B96B
:10137000000400B5000400B1000400AD000400A9A1
:10138000000400A5000300A20003009F0004009BCE
:1013900000030098000300950002009300030090F2
:1013A0000003008D0002008B00030088000200860D
:1013B00000020084000300810002007F0002007D23
:1013C0000002007B00020079000200770001007635
:1013D0000002007400020072000100710002006F40
:1013E0000002006D0001006C0002006A000100694B
:1013F0000002006700010066000100650001006452
:101400000002006200010061000100600001005F55
:101410000002005D0001005C0001005B0001005A59
:10142000000100590001005800010057000100565A
:10143000000100550001005400010053000000535A
:101440000001005200010051000100500001004F56
:101450000001004E0000004E0001004D0001004C54
:101460000001004B0000004B0001004A0001004950
:10147000000100480000004800010047000100464C
:101480000000004600010045000000450001004446
:101490000001004300000043000100420000004240
:1014A0000001004100000041000100400001003F38
:1014B0000000003F0001003E0000003E0001003D32
:1014C0000000003D0001003C0000003C0000003C2A
:1014D0000001003B0000003B0001003A0000003A20
:1014E0000001003900000039000100380000003818
:1014F000000000380001003700000037000100360E
:101500000000003600000036000100350000003504
:1015100000000035000100340000003400000034F9
:1015200000010033000000330000003300010032EE
:1015300000000032000000320001003100000031E4
:1015400000000031000100300000003000000030D9
:101550000001002F0000002F0000002F0000002FCE
:101560000001002E0000002E0000002E0001002DC2
:101570000000002D0000002D0000002D0001002CB7
:101580000000002C0000002C0000002C0001002BAB
:101590000000002B0000002B0000002B0001002A9F
:1015A0000000002A0000002A0000002A0001002993
:1015B0000000002900000029000000290000002987
:1015C000000100280000002800000028000000287A
:1015D000000000280001002700000027000000276D
:1015E0000000002700000027000100260000002660
:1015F0000000002600000026000000260001002553
:101600000000002500000025000000250000002546
:101610000000002500010024000000240000002438
:10162000000000240000002400010023000000232B
:10163000000000230000002300000023000000231E
:101640000000002300010022000000220000002210
:101650000000002200000022000000220001002102
:1016600000000021000000210000002100000021F6
:1016700000000021000000210001002000000020E7
:1016800000000020000000200000002000000020DA
:1016900000000020000000200001001F0000001FCB
:1016A0000000001F0000001F0000001F0000001FBE
:1016B0000000001F0001001E0000001E0000001EB0
:1016C0000000001E000000043700001E2900005129
:1016D0001B00005810000010090000CC0400007826
:1016E00002000041010000434F4D4D554E4943411A
:1016F00054494F4E0044525952554E004552524F94
:10170000525300494E464F004543484F00457272C0
:101710006F722077726974696E6720746F20454517
:1017200050524F4D210A004D343130004D3131328D
:10173000004D3130380053544F505045442E200056
:101740005072696E7465722073746F707065642076
:1017500064756520746F206572726F72732E2046F7
:10176000697820746865206572726F7220616E649A
:1017700020757365204D39393920746F2072657377
:10178000746172742E202854656D70657261747571
:1017900072652069732072657365742E20536574B9
:1017A0002069742061667465722072657374617259
:1017B00074696E67290A004E6F20436865636B7316
:1017C000756D2077697468206C696E65206E756D23
:1017D0006265722C204C617374204C696E653A20EE
:1017E00000636865636B73756D206D69736D6174FB
:1017F00063682C204C617374204C696E653A20003C
:101800004C696E65204E756D626572206973206E3D
:101810006F74204C617374204C696E65204E756D39
:101820006265722B312C204C617374204C696E659B
:101830003A20004D313130005344207265616420FC
:101840006572726F720A002121204B494C4C206353
:101850006175736564206279204B494C4C20627538
:1018600074746F6E2F70696E0A002121204B494CF1
:101870004C2063617573656420627920746F6F20FA
:101880006D75636820696E6163746976652074693B
:101890006D65202D2063757272656E7420636F6DA7
:1018A0006D616E643A2000627573793A20706175DB
:1018B00073656420666F7220696E7075740A0062C9
:1018C0007573793A2070617573656420666F722054
:1018D000757365720A00627573793A2070726F636E
:1018E000657373696E670A004D65646961205265AE
:1018F0006D6F766564004D6564696120496E73653E
:101900007274656400506C6561736520526573651F
:1019100074005052494E5445522048414C5445445D
:101920000025533A202553004B494C4C45442E206A
:10193000005072696E7465722068616C7465642E03
:10194000206B696C6C28292063616C6C6564210ACA
:10195000006563686F3A004572726F723A00204901
:101960006E76616C69642065787472756465722046
:1019700000536C6565702E2E2E00436C69636B20DE
:10198000746F20526573756D652E2E2E004E6F207C
:101990004D6F76652E00456E642066696C65206C1F
:1019A0006973740A00426567696E2066696C652018
:1019B0006C6973740A00286E6F2066696C65290073
:1019C00043757272656E742066696C653A200053C7
:1019D00044207072696E74696E6720627974652044
:1019E000004E6F74205344207072696E74696E6784
:1019F0000A0044656C6574696F6E206661696C6588
:101A0000642C2046696C653A200046696C65206448
:101A1000656C657465643A002569792025696420E0
:101A20002569682025696D20256973005072696EEB
:101A3000742074696D653A2000496E76616C696442
:101A40002050696E204D6F64650A0020573A0045AA
:101A50002563202553006F66660044454255473A8A
:101A6000004D3131322053687574646F776E004DCC
:101A700031313320530042656420436F6F6C696ECF
:101A8000672E2E2E004265642048656174696E677A
:101A90002E2E2E004249424F32546F7563685820F3
:101AA0004F46462E004348414D4245525F54454DF6
:101AB00050455241545552450042414259535445B4
:101AC0005050494E470041524353004D4F54494FE7
:101AD0004E5F4D4F44455300544845524D414C5F75
:101AE00050524F54454354494F4E004C4F4E475F60
:101AF00046494C454E414D45004155544F52455085
:101B00004F52545F53445F53544154555300534410
:101B1000434152440050524F4D50545F5355505022
:101B20004F525400454D455247454E43595F504131
:101B30005253455200434153455F4C494748545F17
:101B40004252494748544E45535300544F47474C1F
:101B5000455F4C494748545300534F4654574152F0
:101B6000455F504F574552004255494C445F5045E0
:101B70005243454E54004C4556454C494E475F44F0
:101B8000415441005A5F50524F42450052554E4F0A
:101B90005554004155544F4C4556454C0050524900
:101BA0004E545F4A4F420050524F475245535300E4
:101BB0004155544F5245504F52545F54454D50007B
:101BC000564F4C554D45545249430042494E41529F
:101BD000595F46494C455F5452414E534645520069
:101BE00053455249414C5F584F4E5F584F4646004F
:101BF0004649524D574152455F4E414D453A4D6120
:101C0000726C696E20322E302E362E3120284D61B6
:101C10007220323820323032312031383A35343A7D
:101C200035362920534F555243455F434F44455F56
:101C300055524C3A68747470733A2F2F6769746800
:101C400075622E636F6D2F4D61726C696E4669729D
:101C50006D776172652F4D61726C696E2050524FC5
:101C6000544F434F4C5F56455253494F4E3A312ED5
:101C700030204D414348494E455F545950453A4202
:101C800049424F32546F7563685820455854525535
:101C90004445525F434F554E543A322055554944BE
:101CA0003A63656465326132662D343161322D34B8
:101CB0003734382D396231322D633535633632662B
:101CC00033363766660A002F2F20004D3134352019
:101CD000533C696E6465783E206F7574206F662092
:101CE00072616E67652028302D31290A00416363D7
:101CF000656C65726174696F6E3A2050003F4A20CE
:101D00006F7574206F662072616E67652028302EB3
:101D1000303120746F20302E33290A0020204D618D
:101D2000783A200020204D696E3A2000536F667487
:101D300020656E6473746F70733A200046523A00E7
:101D400020466C6F773A200050726F74656374653B
:101D5000642050696E0A0020643A0020693A00202D
:101D6000703A006469730043290A0061626C65641B
:101D700020286D696E2074656D702000436F6C645F
:101D800020657874727564657320617265200048FF
:101D90006F6D6520257325732573204669727374F2
:101DA000004F666673657473204170706C6965647A
:101DB000004572723A20546F6F20666172210054A0
:101DC0006F6F206661722066726F6D207265666546
:101DD00072656E636520706F696E740A00454550C8
:101DE000524F4D204F4B0A00202820004475706C44
:101DF00069636174696F6E206D6F64653A20004499
:101E00006F6E65207072696E74696E672066696CAA
:101E1000650A004D3737004D3331004361703A0099
:101E200047322F47332062616420706172616D65B3
:101E3000746572730A00656E7175657565696E67A4
:101E40002022006F6B00526573656E643A20002398
:101E5000646566696E652044454641554C545F0093
:101E60004B6420004B6920004B70200050494420F7
:101E70004175746F74756E652066696E6973686507
:101E800064212050757420746865206C617374201F
:101E90004B702C204B6920616E64204B6420636F73
:101EA0006E7374616E74732066726F6D2062656C00
:101EB0006F7720696E746F20436F6E666967757205
:101EC0006174696F6E2E680A005049442041757430
:101ED0006F74756E65206661696C65642120746934
:101EE0006D656F75740A00504944204175746F74B4
:101EF000756E65206661696C6564212054656D703E
:101F00006572617475726520746F6F2068696768A7
:101F10000A00204B643A2000204B693A2000204BF5
:101F2000703A20000A20436C617373696320504942
:101F300044200A000A204E6F206F76657273686F26
:101F40006F740A002054753A2000204B753A200027
:101F5000206D61783A2000206D696E3A200020647F
:101F60003A200020626961733A20005049442041C0
:101F700075746F74756E652073746172740A0050A5
:101F80004944204175746F74756E65005049442052
:101F90004175746F74756E65206661696C65642146
:101FA00020426164206578747275646572206E7574
:101FB0006D6265720A004572723A20757466382047
:101FC000666F6E74206E6F7420696E697469616CDF
:101FD000697A65642E00456E636C6F737572650077
:101FE00046696C2E204469612E202A0046696C2EB9
:101FF000204469612E004520696E206D6DC2B300DA
:1020000020082046616374002008204D617800207C
:1020100008204D696E004F6666004F6E0041757472
:102020006F74656D70005654726176204D696E0054
:10203000566D696E00566D6178204500566D617869
:10204000205A00566D6178205900566D61782058ED
:1020500000416D6178204500416D6178205A004152
:102060006D6178205900416D6178205800412D54F0
:10207000726176656C00412D526574726163740003
:10208000416363656C00452073746570732F6D6DDB
:10209000005A2053746570732F6D6D00592053746E
:1020A0006570732F6D6D00582053746570732F6DBC
:1020B0006D00363726023C3D380F2E303E121A1C7A
:1020C0001824221E0AFF4307FF450809084400019F
:1020D00008170317FC16F516E716000C0F00FE078D
:1020E000022603BC017FFE08FE08FE050808060064
:1020F0000040F0C88888987810050808060000C0DD
:10210000F88888888888F80505050600012030F8D9
:1021100030200508080600002070F820202020E06C
:102120000509090600FF2070A8A8B8888870200556
:102130000606060001E08CEA8C8A0A0509090600F9
:10214000FFF8A88888888888A8F8050A0A0600FE8B
:10215000205050505088A8A888700303030600033D
:1021600040A040FFFFFFFFFFFFFFFFFFFFFFFFFF5C
:10217000FFFFFFFFFFFFFFFFFF0000000605FF015D
:10218000070706020080808080800080030303062A
:102190000105A0A0A005060606000050F85050F862
:1021A000500509090600FF2070A8A07028A870201B
:1021B000050707060000C8C81020409898050707C3
:1021C00006000040A0A040A8906801030306020595
:1021D0008080800309090601FF2040408080804004
:1021E00040200309090601FF804040202020404094
:1021F0008005070706000020A8702070A8200505AC
:10220000050600012020F820200203030601FFC07C
:102210004080050101060003F8020202060100C029
:10222000C005070706000008101020404080050781
:1022300007060000708898A8C88870030707060181
:102240000040C040404040E005070706000070889D
:1022500008102040F8050707060000F808103008AD
:10226000887005070706000010305090F810100520
:102270000707060000F880F00808887005070706C1
:102280000000304080F0888870050707060000F8DD
:1022900008101020202005070706000070888870AD
:1022A0008888700507070600007088887808106025
:1022B000020505060100C0C000C0C00206060601F6
:1022C000FFC0C000C040800305050601012040801A
:1022D0004020050303060002F800F8030505060187
:1022E000018040204080050707060000708810200C
:1022F0002000200507070600007088B8A8B8807085
:10230000050707060000708888F888888805070791
:10231000060000F04848704848F00507070600002E
:1023200070888080808870050707060000F04848A4
:10233000484848F0050707060000F88080F08080D4
:10234000F8050707060000F88080F0808080050708
:1023500007060000708880809888700507070600CF
:1023600000888888F8888888030707060100E0400D
:1023700040404040E00507070600003810101010EC
:1023800090600507070600008890A0C0A09088050F
:102390000707060000808080808080F80507070618
:1023A000000088D8A8888888880507070600008864
:1023B00088C8A8988888050707060000708888885C
:1023C000888870050707060000F08888F080808004
:1023D00005070706000070888888A8906805070729
:1023E000060000F08888F0A0908805070706000026
:1023F00070888070088870050707060000F82020A4
:102400002020202005070706000088888888888803
:102410007005070706000088888888505020050747
:102420000706000088888888A8A8500507070600C6
:102430000088885020508888050707060000888893
:102440005020202020050707060000F80810204033
:1024500080F80309090601FFE08080808080808089
:10246000E00507070600008040402010100803091F
:10247000090601FFE020202020202020E0050303A2
:102480000600052050880501010600FEF80303033D
:1024900006010580402005050506000070087888C3
:1024A000780507070600008080F0888888F0050519
:1024B0000506000070808088700507070600000888
:1024C0000878888888780505050600007088F080FF
:1024D00070050707060000304840E040404005070F
:1024E000070600FE708888887808700507070600D0
:1024F000008080F088888888030707060100400074
:10250000C0404040E00409090601FE1000301010F0
:102510001010906005070706000080808890E0900A
:1025200088030707060100C04040404040E0050521
:1025300005060000D0A8A8A8A8050505060000B05B
:10254000C888888805050506000070888888700599
:1025500007070600FEF0888888F0808005070706D8
:1025600000FE78888888780808050505060000B010
:10257000C880808005050506000078807008F00599
:1025800007070600002020F8202020180505050672
:1025900000008888889868050505060000888888F6
:1025A00050200505050600008888A8A850050505E7
:1025B00006000088502050880507070600FE88881E
:1025C0008850204080050505060000F8102040F8DE
:1025D0000309090601FF204040408040404020019F
:1025E00009090602FF808080808080808080030946
:1025F000090601FF80404040204040408005030321
:1026000006000248A890FF496E76616C69642065F7
:10261000787472756465720A002053697A653A208D
:10262000005072696E742066726F6D204D6564692A
:1026300061005072696E7420506175736564004565
:1026400072723A204D415854454D50004D415854F6
:10265000454D502074726967676572656400457204
:10266000723A204D494E54454D50004D494E544507
:102670004D502074726967676572656400202F0091
:102680002040002042403A0020403A0041637469F3
:1026900076652045787472756465723A20007C3CDA
:1026A0003E5E2B3D3F2F5B5D3B2C2A225C0043614D
:1026B0006E6E6F74206F70656E20737562646972E0
:1026C0002000534420496E6974204661696C0053B0
:1026D000442063617264206F6B0A006F70656E52F4
:1026E0006F6F74206661696C65640A00766F6C7543
:1026F0006D652E696E6974206661696C65640A0097
:102700004E6F20534420636172640A004D323400DE
:102710004D32332025730046696C652073656C6506
:10272000637465640A0046696C65206F70656E6548
:10273000643A2000454E4420535542524F55544967
:102740004E450A002220706F73002220706172656E
:102750006E743A2200535542524F5554494E45200B
:1027600043414C4C207461726765743A2200537582
:102770006263616C6C204F766572666C6F770045A2
:1027800078636565646564206D61782053554252B5
:102790004F5554494E452064657074683A310A00BB
:1027A00057726974696E6720746F2066696C653A48
:1027B00020006F70656E206661696C65642C204630
:1027C000696C653A2000667265736800646F696EB3
:1027D00067004E6F77200068747470733A2F2F6D06
:1027E00061726C696E66772E6F726700322E302EC2
:1027F000362E31002020506C616E6E657242756617
:1028000066657242797465733A2000204672656588
:10281000204D656D6F72793A2000436F6D70696C61
:1028200065643A204D617220323820323032310AEC
:1028300000204C61737420557064617465643A20A3
:10284000323032302D30382D3238207C20417574B2
:10285000686F723A20286E6F6E652C6465666175CC
:102860006C74636F6E666967290A00322E302E36EB
:102870002E310A004D61726C696E0020536F6674D0
:10288000776172652052657365740A002057617420
:102890006368646F672052657365740A0020427232
:1028A0006F776E206F75742052657365740A00200F
:1028B00045787465726E616C2052657365740A00A8
:1028C000506F77657255700A006175746F25632EBD
:1028D00067004732385859004D3130303100657249
:1028E000726F722077726974696E6720746F2066E8
:1028F000696C650A00446F6E6520736176696E6766
:102900002066696C652E0A004D323900456E64738D
:10291000746F707300255320256320256320256381
:1029200020256300656E6473746F7073206869742A
:102930003A2000220A00556E6B6E6F776E20636F2F
:102940006D6D616E643A2022004249424F32546FED
:10295000756368582052656164792E005072696E03
:1029600074696E672E2E2E00204D393220580020BB
:10297000453A00205A3A0020593A00544845524DF1
:10298000414C2052554E4157415900546865726D73
:10299000616C2052756E617761790030031001D04F
:1029A0000302017004F7001005ED00B005E50050CA
:1029B00006DD003008CC00100ABE00F00BB300703A
:1029C0000EA700F0109D0070139400F0158C00D03D
:1029D000178700B0198200901B7D00301C7B00D04F
:1029E0001C7A00701D7800101E7700B01E75005014
:1029F0001F7400F01F72009020710030216F00D012
:102A0000216E0070226C0010236B00B0236900500F
:102A1000246800F02466009025650030266400D00C
:102A20002662007027610010285F00B0285E005009
:102A3000295C00F0295B00902A5A00302B5800D006
:102A40002B5700702C5500102D5400B02D52005003
:102A50002E5100F02E4F00902F4D0030304C00D002
:102A6000304A007031480010324700B03245005003
:102A7000334300F033410090343F0030353E00D006
:102A8000353C007036390010373700B0373500500C
:102A9000383300F038300090392D00303A2A00D019
:102AA0003A2700703B2400103C2000503D1700F0F6
:102AB0003D1100903E0900003F000001FFFFFFFFB5
:102AC000FFFFFFFFFFFFFFFFFF0FFFFFFFFFFFFF06
:102AD000FFFFFFFFFFFFFF1E0000000000000000DF
:102AE000000007FFFF3800000000000000000000A9
:102AF00003FFFF700000000000000000000001FF65
:102B0000FF600000000000000000000000FFFF6008
:102B100000000000000000000000007FFFC0000077
:102B20000000000000007800003FFFC00FC0FC0064
:102B3000000000007818001FFFC03FE1FF00000008
:102B40000000783C000FFFC07FF3FF800000000012
:102B5000783C0007FFC0FFFFFFC000000000783C8A
:102B60000003FFC1F87F87E000000000780000014B
:102B7000FFC1F03F03E00000000078000000FFC14B
:102B8000E01E01E01F0003E0783C03F07FC1E01E7F
:102B900001E07FC00FF8783C07FC3FC1E01E01E177
:102BA000FFE01FFC783C0FFE1FC1E01E01E3FFF0B9
:102BB0003FFE783C1FFE0FC1E01E01E3F3F83F3EED
:102BC000783C3F3F07C1E01E01E7E0FC7C1F783CFA
:102BD0003E1F07C1E01E01E7C07C7C0F783C3C0F24
:102BE00003C1E01E01E7807C780F783C3C0F03C1F5
:102BF000E01E01E7803C7800783C3C0F03C1E01EFA
:102C000001E7803C7800783C3C0F03C1E01E01E7FF
:102C1000803C7800783C3C0F03C1E01E01E7C03CDB
:102C20007800783C3C0F03C1E01E01E3E03C7800F3
:102C30007C3C3C0F03C1E01E01E3FF3FF8007FBC7A
:102C40003C0F03C1E01E01E1FF3FF8003FBFFC0F56
:102C500003C1E01E01E0FF3FF8001FBFFC0F03C1EE
:102C6000E01E01E07F3FF8000FBFFC0F0360000093
:102C700000000000000000000000076000000000ED
:102C800000000000000000000670000000000000CE
:102C90000000000000000E380000000000000000EE
:102CA000000000001C1E00000000000000000000EA
:102CB0000000780FFFFFFFFFFFFFFFFFFFFFFFFF99
:102CC000F001FFFFFFFFFFFFFFFFFFFFFFFF80108F
:102CD00000C90210012C014001220170011801B04D
:102CE000010E01F00104015002FA00B002F00030C0
:102CF00003E600D003DC009004D2007005C800A0F9
:102D000006BE000008B400B009AA00D00BA0006005
:102D10000E960060118C000015820020197800C00A
:102D20001D6E00A0226400B0275A00902C500000B5
:102D3000314600E0343C0010383200903A28006000
:102D40003C1E00A03D1400803E0A00203F00000011
:102D5000002100240027002A002D0030003300014C
:102D6000010000040107010A0100002200250028DB
:102D7000002B002E00310034000201000005010884
:102D8000010B01000020002300260029002C002F49
:102D900000320000010000030106010901050505DC
:102DA00005070508080808020202020A0A080804C2
:102DB00004040401010101010101010303030303F0
:102DC000030303040707070C0C0C0C0C0C0C0C027F
:102DD00002020206060606060606060B0B0B0B0B86
:102DE0000B0B0B010210202008081020401020407F
:102DF00080020102010804020101020408102040BF
:102E000080804020100804020180040201804020DC
:102E10001008040201080402010102040810204005
:102E200080010204081020408000000A0B02090CF7
:102E30000D0E080703040100000000000000000060
:102E40000000000000000000000000000000000082
:102E5000000000000012111000000000000000003F
:102E60000000000000000000000000000000000062
:102E7000BBE6BEEE11241FBECFEFD1E2DEBFCDBF59
:102E800000E00CBF13E0A0E0B2E0E4EEFEEF01E0F2
:102E90000BBF02C007900D92AA30B107D9F723E10A
:102EA000AAE0B3E001C01D92A33FB207E1F717E12A
:102EB000C9E3D7E100E006C021970109802FFE0198
:102EC0000E9466FAC833D10780E00807A9F70E947C
:102ED000C1E70C9460FF0C940000BC012091FD0838
:102EE0003091FE084091FD085091FE0824173507E7
:102EF00031F481E02617370709F080E008959A0140
:102F0000F1CF7F928F929F92AF92BF92CF92DF923A
:102F1000EF92FF920F931F93CF93DF93709021084E
:102F2000CEE2D3E09BE0C92E92E0D92E2BE1E22E37
:102F300022E0F22E09E118E0772009F45EC0F801E2
:102F400080809180A280B38020E030E0A901C5019B
:102F5000B4010E9485F3882309F44FC020E030E0DB
:102F600040E05FE3C501B4010E94EBF39B01AC01BB
:102F70000E94EBF32BED3FE049E450E40E94EBF3B9
:102F80009B01AC0160E070E080E89FE30E9483FB5E
:102F90004B015C0189929992A992B992F6016191D3
:102FA00071916F01072E000C880B990B0E948CF316
:102FB0002AE037ED43E25CE30E94EBF3A5019401C4
:102FC0000E94EBF3F70161937193819391937F01D9
:102FD0000C5F1F4FF3E0C633DF0709F0ADCFDF9181
:102FE000CF911F910F91FF90EF90DF90CF90BF9006
:102FF000AF909F908F907F900895812C912C80E8C6
:10300000A82E8FE3B82EC6CF8F929F92AF92BF9219
:10301000CF92DF92EF92FF92FC01C080D180E280DC
:10302000F38020E030E040E251E4C701B6010E94A5
:10303000EBF320E030E040E251E40E94EBF34B017F
:103040005C0120E030E0A901C701B6010E9485F3D0
:1030500020E030E040EA50E487FF04C020E030E0A8
:1030600040EA50ECC501B4010E9489FA20E030E04A
:1030700040E251E40E9483FB0E94F5FB9B018BE23E
:1030800037FF05C022273327261B370B8DE280939D
:103090001703C90168EE73E00E9433FACB01EAE03E
:1030A000F0E0BF010E9433FA805D80931803C901EC
:1030B00064E670E00E9433FACB01BF010E9433FA4C
:1030C000805D80931903C901BF010E9433FA282F44
:1030D000CB01BF010E9433FA805D80931A038EE218
:1030E00080931B03205D20931C0387E193E0FF90F6
:1030F000EF90DF90CF90BF90AF909F908F9008950A
:103100009C0197FF26C0EE27FF27E81BF90B2D39FE
:103110008FEF38070CF05DC08DE280931903CF016B
:1031200064E670E00E9433FACB012AE030E0B90196
:103130000E9433FA805D80931A03CF01B9010E9487
:1031400033FACB01B9010E9433FA805D80931B03EF
:103150002AC0283E83E03807B4F1C90168EE73E065
:103160000E9433FACB01EAE0F0E0BF010E9433FA9B
:10317000805D80931903C90164E670E00E9433FA10
:10318000CB01BF010E9433FA805D80931A03C9010D
:10319000BF010E9433FACB01BF010E9433FA805D68
:1031A00080931B03F901CF016AE070E00E9433FABB
:1031B000805D80931C0389E193E008958DE237FDE3
:1031C000C5CF80E2C3CFF90180E2243631050CF08F
:1031D000A4CF80E28093190380931A03EA30F105AB
:1031E0006CF38DE237FF80E280931A03CF016AE02F
:1031F00070E00E9433FA605D60931B03D4CF9C01A2
:1032000080E22436310558F0C90164E670E00E947E
:103210001FFACB016AE070E00E941FFA805D809384
:103220001A0380E22A30310558F0EAE0F0E0C901E3
:10323000BF010E941FFACB01BF010E941FFA805DEF
:1032400080931B03C9016AE070E00E941FFA805D51
:1032500080931C038AE193E0089524E6829FC001D5
:10326000112481589F4F6FEF70E00E9433FA262F90
:1032700081E3643609F080E28093190390E22A30FA
:1032800040F03AE0822F632F0E9405FA0E9405FA6F
:10329000905D90931A03822F6AE00E9405FA905D78
:1032A00090931B0385E280931C0389E193E00895CA
:1032B000FC01A081B1811C92A281B3818C918F5FAE
:1032C0008C930280F381E02D90818CE0989F800D9B
:1032D0001124EEEBFEE013AE84AF08950F931F931D
:1032E000CF93DF938091670D90E0EC01CC0FDD1F51
:1032F000CC0FDD1F8E01055E1D4F880F991FFC014D
:10330000E55FFD4F60817181072E000C880B990BE2
:103310000E948CF32AE037ED43E25CE30E94EBF37A
:10332000C25DDC4F288139814A815B810E94EBF3C9
:10333000F8016083718382839383DF91CF911F9122
:103340000F9108950F931F93CF93DF9380913D0BBF
:1033500090E0EC01CC0FDD1FCC0FDD1F8E01055E70
:103360001D4F880F991FFC01E55FFD4F6081718142
:10337000072E000C880B990B0E948CF32AE037ED86
:1033800043E25CE30E94EBF3C25DDC4F28813981AC
:103390004A815B810E94EBF3F80160837183828331
:1033A0009383DF91CF911F910F9108958091670DC5
:1033B000811104C08091450D8093BE0B08958091CA
:1033C000670D811104C08091450D8093BE0B089557
:1033D000CF93DF93EC01CB01BA010E948CF320E084
:1033E00030E0A9010E9489FA0E94F5FB7983688385
:1033F000DF91CF91089580910F108823C1F0815003
:1034000080930F10ECE5FEE0882351F08150990B7A
:103410002BE1289FF001299FF00D1124EF5FF04F61
:103420008BE1A1E4BEE001900D928A95E1F7209135
:103430000F10211105C0809119108062809319101E
:1034400081E090E0A0E0B0E0211103C080E090E0D6
:10345000DC018093550D9093560DA093570DB093BA
:10346000580D10924D0D81E08093650D83E080939F
:103470006A020895CF93DF93EC01CB01BA010E9459
:103480008CF320E030E0A9010E9489FA0E94FCFB45
:1034900079836883DF91CF9108950E948CF320E0B7
:1034A00030E0A9010E9489FA0E94FCFBCB010C9438
:1034B000FF18CF93DF93EC01CB01BA010E948CF38C
:1034C00029EC38EC48EC5EE30E9483FB20E030E01E
:1034D00040E05FE30E9489FA0E94FCFB6883DF9171
:1034E000CF9108950E948CF329EC38EC48EC5EE310
:1034F0000E9483FB20E030E040E05FE30E9489FA15
:103500000E94FCFB862F0C942D19E091670D86E03C
:10351000E802F0011124E75FF74F8091450D90E03C
:1035200095838483089580913D0B882369F0809171
:10353000B00B8770873041F486E398E09093C00B1E
:103540008093BF0B10923D0B0895CF93DF93EC0156
:10355000CB01BA010E948CF320E030E040E251E45C
:103560000E9483FB20E030E0A9010E9489FA688371
:1035700079838A839B83DF91CF910895CF93DF93E3
:10358000EC01CB01BA010E948CF32AE037ED43E253
:103590005DE30E9483FB20E030E0A9010E9489FAEC
:1035A0000E94FCFB688379838A839B83DF91CF91A0
:1035B0000895CF93DF93EC01CB01BA010E948CF305
:1035C00020E030E0A9010E9489FA688379838A8328
:1035D0009B83DF91CF910895CF93DF93EC01CB01D3
:1035E000BA010E948CF320E030E0A9010E9489FA20
:1035F000688379838A839B83DF91CF910895CF93EA
:10360000DF93EC01CB01BA010E948CF32AE037ED85
:1036100043E25DE30E9483FB20E030E0A9010E94C9
:1036200089FA688379838A839B83DF91CF91089598
:10363000CF93DF93EC01CB01BA010E948CF320E021
:1036400030E048EC52E40E9483FB20E030E0A90126
:103650000E9489FA688379838A839B83DF91CF9163
:103660000895CF93DF93EC01CB01BA010E948CF354
:1036700020E030E04AE754E40E9483FB20E030E0A1
:10368000A9010E9489FA688379838A839B83DF91E9
:10369000CF910895CF92DF92EF92FF92CF93C82FF0
:1036A000833029F467FD60913D0B609358080E94B8
:1036B0008CCA6B017C0124EA30E74DE75FE360913F
:1036C00004027091050280910602909107020E9407
:1036D00085F387FD18C08AEF90E0A0E0B0E08C0D84
:1036E0009D1DAE1DBF1D8093590890935A08A0934D
:1036F0005B08B0935C08C0930802CF91FF90EF90F5
:10370000DF90CF90089580E090E0DC01E8CF109248
:10371000BE0B0E94B7E50C946081CF93C82FCB01FC
:103720000E945D9586EA9CE00E945D9584E299E0A6
:10373000CC2311F089E299E00E945D958AE0CF9157
:103740000C9456950F931F93CF93811113C0C42FE0
:103750008B010E94929582E89AE00E945D95C801D3
:103760000E945D95CC2331F08AE0CF911F910F919B
:103770000C945695CF911F910F9108954F925F929F
:103780006F927F928F929F92AF92BF92CF92DF9271
:10379000EF92FF920F931F93CF93DF93CDB7DEB7D6
:1037A0006A970FB6F894DEBF0FBECDBF9A8F898F90
:1037B0005B018A01DC01D7966D917D918D919C9181
:1037C000DA970E948AF36B017C01F5012081318137
:1037D000428153810E94EBF30E9467FB2B013C0165
:1037E000D8012D913D914D915C91C701B6010E9488
:1037F000EBF30E9467FB4B015C01C301B2010E9425
:10380000FCFB698B7A8B8B8B9C8B683771058105F0
:10381000910540F428E730E040E050E0298B3A8BF6
:103820004B8B5C8BC501B4010E94FCFB6D877E87CE
:103830008F87988B683771058105910540F488E77B
:1038400090E0A0E0B0E08D879E87AF87B88BE98DD0
:10385000FA8DED5BFF4F20813181428153812983B5
:103860003A834B835C83CA01B9010E948CF32B011C
:103870003C0169897A898B899C890E948AF36987CE
:103880007A878B879C8720E030E0A901C301B201D1
:103890000E9485F3882309F43BC1A7019601C70163
:1038A000B6010E94EBF34B015C0129853A854B85FB
:1038B0005C85CA01B9010E94EBF39B01AC01C50113
:1038C000B4010E9488FA4B015C01A3019201C3017B
:1038D000B2010E9489FA9B01AC01C501B4010E94AA
:1038E00083FB0E9467FB0E94FCFB6D837E838F83BA
:1038F000988769817A818B819C819095809570955C
:1039000061957F4F8F4F9F4F0E948CF34B015C015D
:103910006D857E858F8598890E948AF369837A8375
:103920008B839C8320E030E0A901C501B4010E9493
:1039300085F3882309F4F0C029813A814B815C81A9
:10394000CA01B9010E94EBF36D8B7E8B8F8B988F30
:10395000A7019601C701B6010E94EBF39B01AC01E0
:103960006D897E898F89988D0E9488FA6B017C0110
:10397000A5019401C501B4010E9489FA9B01AC0123
:10398000C701B6010E9483FB0E942BFCA98DBA8D52
:1039900095968D909D90AD90BC909897750164011F
:1039A0002D813E814F815885C21AD30AE40AF50A57
:1039B0000E94FCFBC61AD70AE80AF90AF7FE6EC095
:1039C00020E030E0A901C301B2010E9485F3882301
:1039D00009F4A6C0C501B4010E948AF36B017C0101
:1039E000A3019201C301B2010E9489FA9B01AC01BB
:1039F000C701B6010E94EBF36B017C0129853A8572
:103A00004B855C85CA01B9010E94EBF39B01AC01B7
:103A1000C701B6010E9488FA6B017C0129813A81B5
:103A20004B815C81CA01B9010E94EBF39B01AC019F
:103A3000C701B6010E9489FA6B017C0120E030E0E9
:103A400040E850E4C301B2010E94EBF39B01AC01DA
:103A5000C701B6010E9483FB0E9467FB6B017C01DA
:103A600020E030E0A9010E94E9FC18161CF0C12CEE
:103A7000D12C7601C701B6010E94FCFB6D837E83C9
:103A80008F83988786169706A806B90620F48D823C
:103A90009E82AF82B886C12CD12C76018D819E8109
:103AA000AF81B885E98DFA8D82A793A7A4A7B5A7A2
:103AB000C80ED91EEA1EFB1EC6A6D7A6E0AAF1AA0A
:103AC00029893A894B895C8923AF34AF45AF56AF1A
:103AD000FF962D853E854F8558892083318342830B
:103AE00053836A960FB6F894DEBF0FBECDBFDF9149
:103AF000CF911F910F91FF90EF90DF90CF90BF90EB
:103B0000AF909F908F907F906F905F904F900895AF
:103B100060E070E0CB01E5CE60E070E0CB0134CF37
:103B200060E070E0CB0198CF8093450D20E040E04D
:103B300070E060E082E49EE10C942F8181E080934C
:103B400015038091B00B8770873051F01092B00B45
:103B500010923E0B86E398E09093C00B8093BF0BCE
:103B600020E040E070E060E086ED98E40C942F8166
:103B700021E0209315036093040270930502809363
:103B800006029093070220E040E070E060E0809140
:103B90002C0890912D080C942F816DEC7CEC8CEC12
:103BA0009CE30C94B81D6DEC7CEC8CEC9DE30C94C8
:103BB000B81D60E070E080E89FE30C94B81D60E001
:103BC00070E080E291E40C94B81DCF92DF92EF9206
:103BD000FF920F931F938AECC82E85E0D82EF12C0C
:103BE000E12C06E317E02FE93EE148ED5AE662E0FA
:103BF00077E087E097E00E941A831F910F91FF9072
:103C0000EF90DF90CF900895CF92DF92EF92FF92E6
:103C10000F931F938AECC82E85E0D82EF12CE12C4F
:103C200006E416E021EA3EE144E758E462E576E086
:103C300087E596E00E941A831F910F91FF90EF9005
:103C4000DF90CF900895CF92DF92EF92FF920F9383
:103C50001F938AECC82E85E0D82EF12CE12C0DEDB7
:103C600015E030E020E040E059E76CEC75E083EDD2
:103C700095E00E941A831F910F91FF90EF90DF90C3
:103C8000CF900895AF92BF92CF92DF92EF92FF92C2
:103C90000F931F93CF93DF93CDB7DEB7ADB6BEB60C
:103CA0008DED95E00E94F88290E001962DB73EB729
:103CB000281B390B0FB6F8943EBF0FBE2DBF8DB732
:103CC0009EB701967C016DED75E00E94CBF280916C
:103CD000450D09EF18E0813031F004EE18E0823034
:103CE00011F00CE019E08AECC82E85E0D82E20E611
:103CF00031E840E059E76DE179E08CE099E10E941C
:103D00001A830FB6F894BEBE0FBEADBEDF91CF9141
:103D10001F910F91FF90EF90DF90CF90BF90AF90E9
:103D20000895CF93DF93EC010E94928120E040E060
:103D300070E060E0CE01DF91CF910C942F810C9464
:103D40007B81109215030C947B819F92AF92BF925E
:103D5000CF92DF92EF92FF920F931F93CF93DF9357
:103D60000E94F9C5C0914D0DCC2E85E0982E9C0E79
:103D700091E7A92E95E0B92ED7E0DC1B16E01C1BBD
:103D800005E00C1B84E0F82EFC1A83E0E82EEC1A08
:103D900082E0D82EDC1AC1112EC080914F0D8823ED
:103DA00091F080916A02882309F4F9C06C2D619525
:103DB00081E090914F0D911180E024E04DEF56E0AD
:103DC0000E9414C5ECC080910C0310920C03882350
:103DD00041F30E947B818091650D882311F3DF916F
:103DE000CF911F910F91FF90EF90DF90CF90BF90F8
:103DF000AF909F900895C13021F580914F0D813093
:103E000089F080916A02882309F4C9C061E06C19C5
:103E100081E090914F0D913009F080E023E04AE37A
:103E200058E0CECF80910C0310920C03882349F305
:103E300081E190E20E94911E8091650D882309F333
:103E4000CECFC23009F0CEC090914F0D923071F0BC
:103E500080916A02882309F4A2C081E0923009F0BF
:103E600080E020E24CE258E06D2DAACF80910C0357
:103E700010920C03882361F326E338E03093C00BE3
:103E80002093BF0B8091650D882311F3A8CF9091EB
:103E90004F0D933071F080916A02882309F47FC03E
:103EA00081E0933009F080E020E240E258E06E2D9E
:103EB00087CF80910C0310920C03882361F327E2D3
:103EC00038E03093C00B2093BF0B8091650D8823A1
:103ED00011F385CF90914F0D943071F080916A026B
:103EE000882309F45CC081E0943009F080E020E28E
:103EF00044E158E06F2D64CF80910C0310920C03C5
:103F0000882361F32BE138E03093C00B2093BF0B83
:103F10008091650D882311F362CF90914F0D9530FC
:103F200069F080916A028823D1F181E0953009F02F
:103F300080E020E248E058E0602F42CF80910C03FF
:103F400010920C03882369F32FE038E03093C00B04
:103F50002093BF0B8091650D882319F340CF80918A
:103F60004F0D863019F180916A028823C1F08EE9E5
:103F70009DE19F938F938AEF97E09F938F931F9379
:103F800081E090914F0D963009F080E08F930E9470
:103F90000C810F900F900F900F900F900F90CF5FAC
:103FA000C911F9CE88E080934E0D19CF80910C0392
:103FB00010920C038823B9F20E949E1D8091650D1A
:103FC000882389F20CCF80910C0310920C03882374
:103FD000D9F0B092C00BA092BF0B8091650D8823E1
:103FE00099F0FDCEC33009F452CFC43009F472CF3A
:103FF000C53009F492CFC63009F4B1CFC73079F695
:1040000090914F0D9730F9F280916A02882339F22E
:1040100081E0973009F080E020E249EE57E06D2F13
:10402000CFCEAF92BF92CF92DF92EF92FF920F93DB
:104030001F93CF93DF930E94F9C5C0914D0DDC2EE5
:1040400085E0C82ECC0E14E01C1B03E00C1B82E0A4
:10405000F82EFC1A81E0E82EEC1ABC2EB194C111A6
:1040600052C080914F0D8823B1F180916A0288235C
:1040700059F081E090914F0D911180E024E04DE1E5
:1040800057E06B2D0E9414C5D5E0AC2EAD18DC13A3
:1040900018C08BEF8D0F8093670D80914F0D8D179A
:1040A00009F4B0C080916A02882359F081E09091B0
:1040B0004F0D9D1380E023E040EC57E06A2D0E94F5
:1040C00014C5D63009F09CC0CF5FCC11C8CF87E0B3
:1040D00080934E0D0DC080910C0310920C03882329
:1040E00021F20E947B818091650D882309F4BDCF68
:1040F000DF91CF911F910F91FF90EF90DF90CF90C4
:10410000BF90AF900895C13019F580914F0D813067
:1041100081F080916A02882309F4B6CF81E0909102
:104120004F0D913009F080E023E042EE57E06E2D14
:10413000A9CF80910C0310920C03882351F38DE3D7
:1041400096E20E94911E8091650D882311F3D0CFD5
:10415000C23009F068C080914F0D823081F08091AB
:104160006A02882309F490CF81E090914F0D92303C
:1041700009F080E023E04BED57E06F2D83CF809175
:104180000C0310920C03882351F387E396E20E94FC
:10419000911E8091650D882311F3AACF80914F0D58
:1041A000833081F080916A02882309F46DCF81E029
:1041B00090914F0D933009F080E023E044ED57E0FB
:1041C000602F60CF80910C0310920C03882351F371
:1041D00081E396E20E94911E8091650D882311F380
:1041E00087CF80910C0310920C03882331F18BE26E
:1041F00096E20E94911E8091650D8823F1F078CFA0
:10420000D6E045CF80910C0310920C03882309F46B
:1042100049CF84E296E20E94911E8091650D882329
:1042200009F440CF65CFC33009F4B8CFC43009F0EA
:104230002BCF80914F0D8430A1F280916A028823A8
:1042400009F422CF81E090914F0D943009F080E085
:1042500023E04BEC57E0612F15CFAF92BF92CF9286
:10426000DF92EF92FF920F931F93CF93DF93CDB71F
:10427000DEB7ADB6BEB680917A0D6DE67DE08823DF
:1042800011F06AE77DE0FB0101900020E9F7CF0122
:10429000861B970B01962DB73EB7281B390B0FB61F
:1042A000F8943EBF0FBE2DBF8DB79EB701967C011F
:1042B00080E2EDB7FEB78183C70101960E9431FF0E
:1042C0008AECC82E85E0D82E02E617E02FE93EE101
:1042D0004AE65AE26CEC75E08BE297E00E941A83A2
:1042E0000FB6F894BEBE0FBEADBEDF91CF911F9149
:1042F0000F91FF90EF90DF90CF90BF90AF90089517
:104300008091670D0C94ECE58091670D0C94ECE5C1
:1043100068EE79E181E59DE50C94A1866AE37AE196
:104320008DE49AE10C94A18669E57AE182E79AE14D
:104330000C94A18668E17BE181E89AE20C94A18665
:1043400065EA7AE18DE49DE20C94A1866EEB7AE158
:104350008CE59DE20C94A1866CEE7AE180E299E70F
:104360000C94A1866FEF7AE181E199E70C94A18624
:1043700069ED7AE180E99AE20C94A18661E37BE140
:1043800082E79AE20C94A1860F931F93CF93DC01EE
:10439000C42F062F062E000C110B67FD1CC086E0F3
:1043A000809FF001819FF00D1124E75FF74F40815E
:1043B00051814115510579F0FD01EE0FFF1FEE52BD
:1043C000FD4F808191810F974817590708F4CA0162
:1043D0006A2F0E942D91C7FD15C086E0C802F0012A
:1043E0001124E75FF74F82819381009759F0893656
:1043F000910514F089E690E09093E50A8093E40A31
:104400000E9485CC86E0809FF001819FF00D1124F1
:10441000E75FF74F848195818F3F910519F010F088
:104420008FEF90E08093BE0BCF911F910F910C9472
:1044300060812F923F924F925F926F927F928F9204
:104440009F92AF92BF92CF92DF92EF92FF920F9323
:104450001F93CF93DF9300D01F921F92CDB7DEB78B
:104460003091450D39830E94F9C570904D0D9981A9
:10447000892F90E0880F991F895D924F9D838C83CF
:10448000472C35E0370D3A83572C519430E7E32E13
:1044900038E0F32E42E5C42E48E0D42E54E4A52E95
:1044A00058E0B52E85E087198B8362E6862E68E09A
:1044B000962E711014C080914F0D882309F4CFC03F
:1044C00080916A02882359F081E090914F0D9111FB
:1044D00080E024E048EF55E0652D0E9414C510E00F
:1044E00000E066246394372C3418202E67102AC00D
:1044F0006091450DE62FF0E0EE0FFF1FE95DF24FF2
:10450000859194910093670D9093690D8093680D48
:1045100080914F0D861509F4C8C080916A028823E6
:1045200089F01F92FF92EF923F9281E090914F0DA0
:10453000961180E08F930E940C810F900F900F9046
:104540000F900F90698281E0860D78122AC06091E9
:10455000450DE62FF0E0EE0FFF1FE95DF24F85916C
:1045600094912092670D9093690D8093680D8091CE
:104570004F0D871509F4AAC080916A02882389F03B
:104580001F92DF92CF923F9281E090914F0D971151
:1045900080E08F930E940C810F900F900F900F90EE
:1045A0000F900F5F1F4F6394639485E068129DCF57
:1045B000781224C0EC81FD81859194919093690DCE
:1045C0008093680D80914F0D853009F490C08091E3
:1045D0006A02882399F01F92BF92AF928B818F93CA
:1045E00081E090914F0D953009F080E08F930E940B
:1045F0000C810F900F900F900F900F9089818D5F1D
:10460000871124C0EC81FD81859194919093690D6F
:104610008093680D80914F0D871509F48FC08091AC
:104620006A02882399F01F929F928F92872D841996
:104630008F9381E090914F0D971180E08F930E94AE
:104640000C810F900F900F900F900F9073949A81A0
:1046500079122FCF89818C5F80934E0D0EC080918F
:104660000C0310920C03882309F42ACF0E947B814B
:104670008091650D882309F423CF0F900F900F9040
:104680000F900F90DF91CF911F910F91FF90EF90BE
:10469000DF90CF90BF90AF909F908F907F906F9062
:1046A0005F904F903F902F90089580910C0310924F
:1046B0000C03882309F431CF462FC8010E94C4217E
:1046C0008091650D882309F428CFD7CF80910C0302
:1046D00010920C03882309F44FCF4FEFC8010E94BA
:1046E000C4218091650D882309F446CFC6CF8091FF
:1046F0000C0310920C03882309F469CF2091450D17
:1047000036E02303F0011124E75FF74F60E080817A
:1047100091810E942D912091450D36E02303F001F7
:104720001124E75FF74F61E0808191810E942D9114
:104730008091650D882309F44ACF9FCF80910C03A7
:1047400010920C03882309F46ACF4091450D6FEF56
:104750008FEF9FEF0E94C4218091650D882309F49B
:104760005ECF8BCF2F923F924F925F926F927F924C
:104770008F929F92AF92BF92CF92DF92EF92FF9271
:104780000F931F93CF93DF93CDB7DEB76F970FB61D
:10479000F894DEBF0FBECDBF8F8F70932D0860934E
:1047A0002C088330E1F447FD40913D0B8091460396
:1047B000811115C087E1489FF0011124E951F54F9F
:1047C00064817581868197810E94F5FB442443941E
:1047D0002091230230912402621773070CF0412CC0
:1047E0000E94F9C530904D0DF12CEE24E3948CE03D
:1047F000282ECE0101965C0198E8C92E97E0D92EAB
:10480000532C5F0C9F8D913009F465C0D0F192302C
:1048100009F48BC08091770290917802A09179027F
:10482000B0917A028093280890932908A0932A08CF
:10483000B0932B085110A1C0EE20D9F080914F0DFC
:104840001816BCF04091550D5091560D6091570DC2
:104850007091580D4F5F5F4F6F4F7F4F4093550DD5
:104860005093560D6093570D7093580D8F5F809342
:104870004F0D80916A0243E06BEC77E0882339F1B9
:1048800050C051107AC0EE20D9F080914F0D18160B
:10489000BCF04091550D5091560D6091570D70919F
:1048A000580D4F5F5F4F6F4F7F4F4093550D5093A3
:1048B000560D6093570D7093580D8F5F80934F0D79
:1048C00080916A0243E062EE77E081112AC04420C1
:1048D00009F4AFC061C0511050C0EE20D9F08091F2
:1048E0004F0D1816BCF04091550D5091560D60912A
:1048F000570D7091580D4F5F5F4F6F4F7F4F409333
:10490000550D5093560D6093570D7093580D8F5F52
:1049100080934F0D80916A0243E06BED77E088232E
:10492000B1F28F2D0E94B7C4D2CF511026C0EE2015
:10493000D9F080914F0D1816BCF04091550D509153
:10494000560D6091570D7091580D4F5F5F4F6F4F2F
:104950007F4F4093550D5093560D6093570D7093B4
:10496000580D8F5F80934F0D80916A02882309F460
:10497000AECF43E064ED77E0D4CF442009F440C0EB
:1049800081E0581209C080914F0D813039F080913B
:104990006A02811128C0E12C82E08DC080910C0355
:1049A00010920C03882399F30E947B818091650DFE
:1049B000882369F36F960FB6F894DEBF0FBECDBFA4
:1049C000DF91CF911F910F91FF90EF90DF90CF90EB
:1049D000BF90AF909F908F907F906F905F904F901F
:1049E0003F902F90089581E090914F0D913009F004
:1049F00080E024E040EB57E06F2D0E9414C5CBCF40
:104A000091E059126EC080914F0D813009F45AC067
:104A100080916A02882361F081E090914F0D91307E
:104A200009F080E024E04AE358E06F2D0E9414C5AD
:104A3000E12C9F8D923009F070C08E010B5E1F4FEC
:104A400023E041E06DEC7CEC8CEC9CE30E94F8EE02
:104A50009F938F93DF92CF92BF92AF920E941CF3ED
:104A60000F900F900F900F900F900F9085E05812BD
:104A70000AC080914F0D853009F4A9C080916A0267
:104A80008111BBC0E12C80916A02882371F095E00E
:104A900059120BC01092F90E822DF29C800D112438
:104AA0008093FA0EC5010E941E860FB6F894DEBFF1
:104AB0000FBECDBF86E0F39495E0F912A1CE8093AE
:104AC0004E0D78CF80910C0310920C03882309F4CB
:104AD0009FCF0E947B818091650D882309F498CF38
:104AE00069CF82E058122AC080914F0D8230B9F010
:104AF00080916A02882361F081E090914F0D92309D
:104B000009F080E023E046EA57E06F2D0E9414C5CB
:104B10008F8D823009F47EC0E12C85E0CCCF80916E
:104B20000C0310920C03882319F38FED9DE10E9472
:104B3000911E8091650D8823D9F23CCF93E05912E4
:104B400021C080914F0D833071F080916A028823DB
:104B5000F9F281E090914F0D933009F080E023E06D
:104B60004DE957E0D2CF80910C0310920C038823BB
:104B700061F389ED9DE10E94911E8091650D88236E
:104B800021F318CF84E0581254CF80914F0D843018
:104B900079F080916A02882309F4BACF81E090917C
:104BA0004F0D943009F080E023E042E957E0ADCFAB
:104BB00080910C0310920C03882359F383ED9DE13F
:104BC0000E94911E8091650D882319F3F3CE809188
:104BD0000C0310920C03882309F450CF8DEC9DE157
:104BE0000E94911E8091650D882309F447CF0FB66E
:104BF000F894DEBF0FBECDBFDDCE81E090914F0DAA
:104C0000953009F080E023E043E35FE16F2D0E94DF
:104C100014C538CF8E010B5E1F4F23E041E06DECD1
:104C20007CEC8CEC9CE30E94F8EE9F938F93DF92D8
:104C3000CF92BF92AF920E941CF30F900F900F90F3
:104C40000F900F900F901ECF4091670D67EC76E2AA
:104C500083E00C94B2234FEF6BEC76E283E00C948C
:104C6000B2234FEF65EA78E282E00C94B2234FEF73
:104C70006AEA78E281E00C94B2234FEF6FEA78E2BF
:104C800080E00C94B2231F93CF93DF9300D01F9248
:104C9000CDB7DEB7182F80910C0310920C03882338
:104CA00061F0109215030E947B810F900F900F907E
:104CB0000F90DF91CF911F9108956091550D7091E4
:104CC000560D8091570D9091580D61157105810514
:104CD000910569F10E948CF3209104023091050244
:104CE00040910602509107020E94EBF32091770257
:104CF000309178024091790250917A020E9489FAAB
:104D000060937702709378028093790290937A028D
:104D1000612F83E00E944A1B81E080936A02109217
:104D2000550D1092560D1092570D1092580D8091FE
:104D30006A02882309F4B9CF1093670D1092690DA8
:104D40001092680D20E030E0A90160917702709127
:104D500078028091790290917A020E9489FA2091DA
:104D600028083091290840912A0850912B080E9468
:104D700088FA69837A838B839C83CE0101960E9493
:104D80000418BC0180EC97E00E9422868ECF8091AF
:104D9000670D0C9443268FEF0C9443263F924F925D
:104DA0005F926F927F928F929F92AF92BF92CF92BB
:104DB000DF92EF92FF920F931F93CF93DF9300D078
:104DC00000D000D01F92CDB7DEB79A878987362EE4
:104DD00080910C0310920C038823E1F010921503CC
:104DE0000E947B812A960FB6F894DEBF0FBECDBF1E
:104DF000DF91CF911F910F91FF90EF90DF90CF90B7
:104E0000BF90AF909F908F907F906F905F904F90EA
:104E10003F9008958091550D9091560DA091570D9A
:104E2000B091580D8D839E83AF83B887892B8A2BD1
:104E30008B2B09F455C094E0699F80011124F8017F
:104E4000E559FD4F408051806280738080910A0255
:104E500081118CC020E030E04AE754E4C301B20184
:104E60000E9488FA4B015C0120E030E04AE754E4FC
:104E7000C301B2010E9489FA6B017C016D817E81C0
:104E80008F8198850E948CF3209104023091050255
:104E900040910602509107020E94EBF3A301920198
:104EA0000E9489FA2B013C018D819E81AF81B885DA
:104EB000B7FF9DC0A5019401C301B2010E9485F313
:104EC00087FD8DC0F801E559FD4F40825182628215
:104ED00073826FEF832D0E944A1B81E080936A02E8
:104EE0001092550D1092560D1092570D1092580DAC
:104EF00080916A02882309F475CF94E0399E80017D
:104F00001124F801E559FD4F20E030E0A90160814E
:104F10007181828193810E9489FAF801EE51F24FEA
:104F200020813181428153810E9489FA6B017C0189
:104F3000C982DA82EB82FC822DEC3CEC4CEC5DE326
:104F4000609104027091050280910602909107021F
:104F50000E94E9FC87FD5CC0CE0101960E94041806
:104F6000BC0189859A850E9422863CCFA1E06A1700
:104F7000A1F0B2E06B1711F180903B0290903C02DF
:104F8000A0903D02B0903E02C0904702D0904802EF
:104F9000E0904902F0904A0271CF80903F029090D9
:104FA0004002A0904102B0904202C0904B02D090CB
:104FB0004C02E0904D02F0904E0260CF8090430290
:104FC00090904402A0904502B0904602C0904F02DB
:104FD000D0905002E0905102F09052024FCFF80171
:104FE000E559FD4F80829182A282B38272CFA701E0
:104FF0009601C301B2010E94E9FC18160CF062CFC1
:10500000F801E559FD4FC082D182E282F38261CF7F
:1050100020E030E040E251E4C701B6010E94EBF32A
:1050200020E030E04AE754E40E94EBF34B015C01DE
:1050300020E030E0A901C701B6010E9485F320E01D
:1050400030E040EA50E487FF04C020E030E040EA6E
:1050500050ECC501B4010E9489FA20E030E040E242
:1050600051E40E9483FB0E94F5FB6B017C01F7FC7D
:1050700062C020EA36E841E050E00E9447FACA01E7
:10508000B9012AE030E040E050E00E9447FA605D5C
:1050900060931603C701B60120E137E240E050E01B
:1050A0000E9447FA8AE0882E912CA12CB12CCA01CB
:1050B000B901A50194010E9447FA605D609317034E
:1050C000C701B60128EE33E040E050E00E9447FA05
:1050D000CA01B901A50194010E9447FA605D60937D
:1050E00018038EE280931903C701B60124E630E06D
:1050F00040E050E00E9447FACA01B901A5019401BD
:105100000E9447FA605D60931A03C701B601A501CA
:1051100094010E9447FA162FCA01B901A501940112
:105120000E9447FA605D60931B03105D10931C039F
:1051300086E193E015CFF094E094D094C094C11C24
:10514000D11CE11CF11C6DE2A3CF62E084ED97E07D
:105150000C94CE2661E08BED97E00C94CE2660E0B7
:1051600082EE97E00C94CE263F924F925F926F9220
:105170007F928F929F92AF92BF92CF92DF92EF92E7
:10518000FF920F931F93CF93DF93CDB7DEB7EB97CB
:105190000FB6F894DEBF0FBECDBF8091500D8823AF
:1051A00079F18091191000E010E083FF25C081E4BF
:1051B0009EE00E94FBDA8BE1E1E4FEE0DE019196E5
:1051C00001900D928A95E1F710E000E04AE75DE07A
:1051D000BE016F5F7F4FCE0181960E94E1D7181606
:1051E0003CF4CE0101960E9454D1080F111DEECF60
:1051F000CE0181960E94C9DC0093260810932708EF
:105200000E94F9C510914D0D412E85E0582E510E8A
:10521000312E31949BEFA92E99E1B92E24E8822EEC
:1052200027E0922E81E0782E711A111113C080911F
:105230004F0D882339F180916A02882359F081E06B
:1052400090914F0D911180E024E04DEF56E0632DD9
:105250000E9414C58091191085FD5BC083FF59C061
:10526000113009F054C080914F0D813079F1809157
:105270006A02811138C082E01F5F5112D6CF80933D
:105280004E0D0CC080910C0310920C03882399F2F0
:105290000E947B818091650D882369F2EB960FB6A1
:1052A000F894DEBF0FBECDBFDF91CF911F910F915C
:1052B000FF90EF90DF90CF90BF90AF909F908F9036
:1052C0007F906F905F904F903F90089580910C0376
:1052D00010920C03882359F20E94FB198091650DEE
:1052E000882329F2DBCFBF92AF929F928F927F9259
:1052F00081E090914F0D913009F080E08F930E94F2
:105300000C810F900F900F900F900F900F9082E0F4
:1053100001C081E090916A02992309F4ADCF082F72
:10532000D12CC12C612E6418802FE0902608F090BB
:105330002708CE14DF0408F09FCF0113AAC081E034
:10534000E81AF108EC18FD0881E49EE00E94FBDAFF
:105350008BE1E1E4FEE0DE01919601900D928A95E9
:10536000E1F7F12C4AE75DE0BE016F5F7F4FCE01B0
:1053700081960E94E1D718167CF4CE0101960E9416
:1053800054D1882379F3EF106BC0BE016F5F7F4F5C
:105390008DE69DE00E946FD1CE0181960E94C9DC0E
:1053A0008091191090914F0D84FF78C0911366C0C1
:1053B00080910C0310920C03882309F45FC01982BA
:1053C0001C828091440E6CE57EE0882311F061E43C
:1053D0007EE021E04DE65DE0CE0101960E94CFDC4B
:1053E000882309F43FC08BE1FE013196A1E4BEE0C1
:1053F00001900D928A95E1F7809119108F7D80932D
:105400001910A0910F10AA3080F481E08A0F8093C8
:105410000F108BE18A9FD0011124AF5FB04FE1E400
:10542000FEE001900D928A95E1F7CE0101960E946F
:10543000C9DC10924D0D82E090E0A0E0B0E08093D6
:10544000550D9093560DA093570DB093580D81E0D4
:105450008093650D10920D0383E080936A021ECF46
:10546000F39480CF0E9492956DE67DE08EE697E002
:105470000E947B958AE00E945695D7CF80916A0260
:10548000882339F081E0911380E041E0662D0E948D
:1054900055C58FEFC81AD80A0F5F46CF911759F03C
:1054A00080916A028823A9F381E090914F0D9113B6
:1054B00080E040E0EBCF80910C0310920C03882336
:1054C00079F38DE291E20E94911E8091650D88230F
:1054D00039F3E4CE8DE69DE00E94AED00E9460815B
:1054E0000C9448C40E948CF320E030E04AE754E476
:1054F0000E9483FB20E030E0A9010E9489FA0C940D
:10550000DD7E0E948CF320E030E048EC52E40E9403
:1055100083FB20E030E0A9010E9489FA0C94897F86
:105520000E948CF320E030E0A9010E9489FA0C94DB
:10553000D480CF92DF92EF92FF920F931F93CF937D
:10554000DF930E94F9C5C0914D0D95E0D92EDC0E78
:10555000D1E0DC1BCC2EC194C1112FC080914F0D26
:105560008823B1F080916A02882359F081E09091FC
:105570004F0D911180E024E048E356E06C2D0E942D
:1055800014C5CF5FCD11E8CF82E080934E0D0CC0E3
:1055900080910C0310920C03882321F30E947B81DD
:1055A0008091650D8823F1F2DF91CF911F910F91CA
:1055B000FF90EF90DF90CF900895C13011F7809168
:1055C0004F0D8130E9F080916A028823D1F211E019
:1055D00080914F0D813009F010E06091DE0D7091E7
:1055E000DF0D8091E00D9091E10D0E94D48000E0EC
:1055F0009C0147E656E06D2F812F0E943D87C1CF69
:1056000080910C0310920C038823E9F2E12CF12C19
:1056100000E211E420E030E0A9016EED7DE087E6D4
:1056200096E00E945BC68091650D882361F2BCCF35
:105630002F923F924F925F926F927F928F929F92A2
:10564000AF92BF92CF92DF92EF92FF920F931F9390
:10565000CF93DF9300D01F921F92CDB7DEB70E9489
:105660006881382E0E94F9C520914D0D2C8333207E
:1056700079F185E08D837C80272D2B5F298385E060
:1056800087198A8384E087198B8383E0682E6718E3
:1056900082E0582E571881E0482E4718272C219475
:1056A0002C8121113CC080914F0D8823A1F0809165
:1056B0006A02882309F454C081E090914F0D911142
:1056C00080E024E048E356E0622D0E9414C548C003
:1056D00096E09D83D0CF80910C0310920C03882319
:1056E00031F30E947B818091650D882301F30F9037
:1056F0000F900F900F900F90DF91CF911F910F910E
:10570000FF90EF90DF90CF90BF90AF909F908F90E1
:105710007F906F905F904F903F902F9008958C8175
:10572000813009F081C080914F0D813009F467C04C
:1057300080916A028823A1F01F9287E296E09F93EE
:105740008F934F9281E090914F0D913009F080E05E
:105750008F930E940C810F900F900F900F900F90DD
:1057600031109EC09C81953009F09AC080914F0DF8
:10577000853009F4F2C080916A028111FFC016E001
:1057800081E0810F9C81891316C080914F0D89178C
:1057900009F420C180916A02882369F06C8167193D
:1057A00081E090914F0D2C81921380E023E04FEE29
:1057B00055E00E9414C582E0810F9C81891315C0B9
:1057C00090914F0D2C81921709F415C180916A02B6
:1057D000882359F06C81671981E02C81921380E055
:1057E00023E04DED55E00E9414C58C818F5F8C83C2
:1057F0009981891355CF1D5F10934E0D78CF8091FD
:105800000C0310920C03882309F492CF88ED95E0E5
:105810009093C00B8093BF0B0E9460818091650DB7
:10582000882309F485CF63CF8C81823009F00BC1C6
:1058300080914F0D823081F080916A02882309F4B3
:105840008FCF81E090914F0D923009F080E023E0FE
:105850004EE156E0652D39CF80910C0310920C0378
:10586000882351F382E69CE80E94911E8091650D89
:10587000882311F33CCF80914F0D833001F180914B
:105880006A02882309F46CCF81E090914F0D933028
:1058900009F080E023E041E156E0662D0E9414C546
:1058A0002D818C81281309C080914F0D821709F436
:1058B00072C080916A0281117FC01D8161CF809189
:1058C0000C0310920C038823D1F28AE299E80E941B
:1058D000911E8091650D882391F209CF80910C0370
:1058E00010920C03882309F4BAC020E030E04AE7A4
:1058F00054E46091150870911608809117089091F2
:1059000018080E94EBF320E030E0A9010E9489FA18
:1059100020E030E040E85FE30E9488FA0E94FCFB50
:10592000912C812C8EEBA82E81E2B82E6B011BE20C
:10593000E12EFF24F39400E010E021E030E040E0AD
:1059400050E065E178E084E096E00E9487C58091B0
:10595000650D882309F483C0CACE80910C03109290
:105960000C03882309F407CF8BEF97E80E94911E60
:105970008091650D882309F4FECEB9CE81E0909127
:105980004F0D953009F080E023E049EA50E26A814A
:105990000E9414C5F4CE80910C0310920C0388234E
:1059A00009F487CF82E39EE80E94911E8091650DE5
:1059B000882309F47ECF9BCE6C81671981E090919A
:1059C0004F0D2C81921380E023E048EF55E00E94B8
:1059D00014C573CF80910C0310920C03882309F433
:1059E000D9CE81E99FE80E94911E8091650D8823A0
:1059F00009F4D0CE7CCE80910C0310920C03882346
:105A000009F4E4CE0E94928120E040E070E060E082
:105A100083E29EE10F900F900F900F900F90DF9117
:105A2000CF911F910F91FF90EF90DF90CF90BF909B
:105A3000AF909F908F907F906F905F904F903F902E
:105A40002F900C942F812C81233009F414CF243013
:105A500009F086CE80914F0D843009F43FCF8091BC
:105A60006A02882309F47CCE11E080914F0D8430C6
:105A700009F010E0609115087091160880911708E0
:105A8000909118080E94DD7E00E09C0144E056E001
:105A90006B81812F0E943D8703CF0E948CF320E011
:105AA00030E040E251E40E9483FB20E030E0A901B5
:105AB0000E9489FA0C94E27D0E948CF32AE037ED73
:105AC00043E25DE30E9483FB20E030E0A9010E94F5
:105AD00089FA0C94C97DEF92FF920F931F93CF9395
